{"abi":[{"type":"constructor","inputs":[],"stateMutability":"nonpayable"},{"type":"function","name":"MAX_SUPPLY","inputs":[],"outputs":[{"name":"","type":"uint256","internalType":"uint256"}],"stateMutability":"view"},{"type":"function","name":"allowance","inputs":[{"name":"owner","type":"address","internalType":"address"},{"name":"spender","type":"address","internalType":"address"}],"outputs":[{"name":"","type":"uint256","internalType":"uint256"}],"stateMutability":"view"},{"type":"function","name":"approve","inputs":[{"name":"spender","type":"address","internalType":"address"},{"name":"value","type":"uint256","internalType":"uint256"}],"outputs":[{"name":"","type":"bool","internalType":"bool"}],"stateMutability":"nonpayable"},{"type":"function","name":"balanceOf","inputs":[{"name":"account","type":"address","internalType":"address"}],"outputs":[{"name":"","type":"uint256","internalType":"uint256"}],"stateMutability":"view"},{"type":"function","name":"burn","inputs":[{"name":"amount","type":"uint256","internalType":"uint256"}],"outputs":[],"stateMutability":"nonpayable"},{"type":"function","name":"decimals","inputs":[],"outputs":[{"name":"","type":"uint8","internalType":"uint8"}],"stateMutability":"view"},{"type":"function","name":"mint","inputs":[{"name":"to","type":"address","internalType":"address"},{"name":"amount","type":"uint256","internalType":"uint256"}],"outputs":[],"stateMutability":"nonpayable"},{"type":"function","name":"minter","inputs":[],"outputs":[{"name":"","type":"address","internalType":"address"}],"stateMutability":"view"},{"type":"function","name":"mintingPaused","inputs":[],"outputs":[{"name":"","type":"bool","internalType":"bool"}],"stateMutability":"view"},{"type":"function","name":"name","inputs":[],"outputs":[{"name":"","type":"string","internalType":"string"}],"stateMutability":"view"},{"type":"function","name":"owner","inputs":[],"outputs":[{"name":"","type":"address","internalType":"address"}],"stateMutability":"view"},{"type":"function","name":"renounceOwnership","inputs":[],"outputs":[],"stateMutability":"nonpayable"},{"type":"function","name":"setMinter","inputs":[{"name":"newMinter","type":"address","internalType":"address"}],"outputs":[],"stateMutability":"nonpayable"},{"type":"function","name":"symbol","inputs":[],"outputs":[{"name":"","type":"string","internalType":"string"}],"stateMutability":"view"},{"type":"function","name":"toggleMinting","inputs":[],"outputs":[],"stateMutability":"nonpayable"},{"type":"function","name":"totalSupply","inputs":[],"outputs":[{"name":"","type":"uint256","internalType":"uint256"}],"stateMutability":"view"},{"type":"function","name":"transfer","inputs":[{"name":"to","type":"address","internalType":"address"},{"name":"value","type":"uint256","internalType":"uint256"}],"outputs":[{"name":"","type":"bool","internalType":"bool"}],"stateMutability":"nonpayable"},{"type":"function","name":"transferFrom","inputs":[{"name":"from","type":"address","internalType":"address"},{"name":"to","type":"address","internalType":"address"},{"name":"value","type":"uint256","internalType":"uint256"}],"outputs":[{"name":"","type":"bool","internalType":"bool"}],"stateMutability":"nonpayable"},{"type":"function","name":"transferOwnership","inputs":[{"name":"newOwner","type":"address","internalType":"address"}],"outputs":[],"stateMutability":"nonpayable"},{"type":"event","name":"Approval","inputs":[{"name":"owner","type":"address","indexed":true,"internalType":"address"},{"name":"spender","type":"address","indexed":true,"internalType":"address"},{"name":"value","type":"uint256","indexed":false,"internalType":"uint256"}],"anonymous":false},{"type":"event","name":"Burn","inputs":[{"name":"from","type":"address","indexed":true,"internalType":"address"},{"name":"amount","type":"uint256","indexed":false,"internalType":"uint256"}],"anonymous":false},{"type":"event","name":"Mint","inputs":[{"name":"to","type":"address","indexed":true,"internalType":"address"},{"name":"amount","type":"uint256","indexed":false,"internalType":"uint256"}],"anonymous":false},{"type":"event","name":"MinterUpdated","inputs":[{"name":"oldMinter","type":"address","indexed":true,"internalType":"address"},{"name":"newMinter","type":"address","indexed":true,"internalType":"address"}],"anonymous":false},{"type":"event","name":"MintingPaused","inputs":[{"name":"status","type":"bool","indexed":false,"internalType":"bool"}],"anonymous":false},{"type":"event","name":"OwnershipTransferred","inputs":[{"name":"previousOwner","type":"address","indexed":true,"internalType":"address"},{"name":"newOwner","type":"address","indexed":true,"internalType":"address"}],"anonymous":false},{"type":"event","name":"Transfer","inputs":[{"name":"from","type":"address","indexed":true,"internalType":"address"},{"name":"to","type":"address","indexed":true,"internalType":"address"},{"name":"value","type":"uint256","indexed":false,"internalType":"uint256"}],"anonymous":false},{"type":"error","name":"ERC20InsufficientAllowance","inputs":[{"name":"spender","type":"address","internalType":"address"},{"name":"allowance","type":"uint256","internalType":"uint256"},{"name":"needed","type":"uint256","internalType":"uint256"}]},{"type":"error","name":"ERC20InsufficientBalance","inputs":[{"name":"sender","type":"address","internalType":"address"},{"name":"balance","type":"uint256","internalType":"uint256"},{"name":"needed","type":"uint256","internalType":"uint256"}]},{"type":"error","name":"ERC20InvalidApprover","inputs":[{"name":"approver","type":"address","internalType":"address"}]},{"type":"error","name":"ERC20InvalidReceiver","inputs":[{"name":"receiver","type":"address","internalType":"address"}]},{"type":"error","name":"ERC20InvalidSender","inputs":[{"name":"sender","type":"address","internalType":"address"}]},{"type":"error","name":"ERC20InvalidSpender","inputs":[{"name":"spender","type":"address","internalType":"address"}]},{"type":"error","name":"ExceedsMaxSupply","inputs":[]},{"type":"error","name":"MintingPaused","inputs":[]},{"type":"error","name":"OwnableInvalidOwner","inputs":[{"name":"owner","type":"address","internalType":"address"}]},{"type":"error","name":"OwnableUnauthorizedAccount","inputs":[{"name":"account","type":"address","internalType":"address"}]},{"type":"error","name":"UnauthorizedMinter","inputs":[]},{"type":"error","name":"ZeroAddress","inputs":[]}],"bytecode":{"object":"0x608060405234801561000f575f5ffd5b50336040518060400160405280601481526020017f452d4d4144204469676974616c2044697268616d0000000000000000000000008152506040518060400160405280600481526020017f454d414400000000000000000000000000000000000000000000000000000000815250816003908161008c919061071c565b50806004908161009c919061071c565b5050505f73ffffffffffffffffffffffffffffffffffffffff168173ffffffffffffffffffffffffffffffffffffffff160361010f575f6040517f1e4fbdf7000000000000000000000000000000000000000000000000000000008152600401610106919061082a565b60405180910390fd5b61011e8161017e60201b60201c565b503360065f6101000a81548173ffffffffffffffffffffffffffffffffffffffff021916908373ffffffffffffffffffffffffffffffffffffffff1602179055506101793369d3c21bcecceda100000061024160201b60201c565b610900565b5f60055f9054906101000a900473ffffffffffffffffffffffffffffffffffffffff1690508160055f6101000a81548173ffffffffffffffffffffffffffffffffffffffff021916908373ffffffffffffffffffffffffffffffffffffffff1602179055508173ffffffffffffffffffffffffffffffffffffffff168173ffffffffffffffffffffffffffffffffffffffff167f8be0079c531659141344cd1fd0a4f28419497f9722a3daafe3b4186f6b6457e060405160405180910390a35050565b5f73ffffffffffffffffffffffffffffffffffffffff168273ffffffffffffffffffffffffffffffffffffffff16036102b1575f6040517fec442f050000000000000000000000000000000000000000000000000000000081526004016102a8919061082a565b60405180910390fd5b6102c25f83836102c660201b60201c565b5050565b5f73ffffffffffffffffffffffffffffffffffffffff168373ffffffffffffffffffffffffffffffffffffffff1603610316578060025f82825461030a9190610870565b925050819055506103e4565b5f5f5f8573ffffffffffffffffffffffffffffffffffffffff1673ffffffffffffffffffffffffffffffffffffffff1681526020019081526020015f205490508181101561039f578381836040517fe450d38c000000000000000000000000000000000000000000000000000000008152600401610396939291906108b2565b60405180910390fd5b8181035f5f8673ffffffffffffffffffffffffffffffffffffffff1673ffffffffffffffffffffffffffffffffffffffff1681526020019081526020015f2081905550505b5f73ffffffffffffffffffffffffffffffffffffffff168273ffffffffffffffffffffffffffffffffffffffff160361042b578060025f8282540392505081905550610475565b805f5f8473ffffffffffffffffffffffffffffffffffffffff1673ffffffffffffffffffffffffffffffffffffffff1681526020019081526020015f205f82825401925050819055505b8173ffffffffffffffffffffffffffffffffffffffff168373ffffffffffffffffffffffffffffffffffffffff167fddf252ad1be2c89b69c2b068fc378daa952ba7f163c4a11628f55a4df523b3ef836040516104d291906108e7565b60405180910390a3505050565b5f81519050919050565b7f4e487b71000000000000000000000000000000000000000000000000000000005f52604160045260245ffd5b7f4e487b71000000000000000000000000000000000000000000000000000000005f52602260045260245ffd5b5f600282049050600182168061055a57607f821691505b60208210810361056d5761056c610516565b5b50919050565b5f819050815f5260205f209050919050565b5f6020601f8301049050919050565b5f82821b905092915050565b5f600883026105cf7fffffffffffffffffffffffffffffffffffffffffffffffffffffffffffffffff82610594565b6105d98683610594565b95508019841693508086168417925050509392505050565b5f819050919050565b5f819050919050565b5f61061d610618610613846105f1565b6105fa565b6105f1565b9050919050565b5f819050919050565b61063683610603565b61064a61064282610624565b8484546105a0565b825550505050565b5f5f905090565b610661610652565b61066c81848461062d565b505050565b5b8181101561068f576106845f82610659565b600181019050610672565b5050565b601f8211156106d4576106a581610573565b6106ae84610585565b810160208510156106bd578190505b6106d16106c985610585565b830182610671565b50505b505050565b5f82821c905092915050565b5f6106f45f19846008026106d9565b1980831691505092915050565b5f61070c83836106e5565b9150826002028217905092915050565b610725826104df565b67ffffffffffffffff81111561073e5761073d6104e9565b5b6107488254610543565b610753828285610693565b5f60209050601f831160018114610784575f8415610772578287015190505b61077c8582610701565b8655506107e3565b601f19841661079286610573565b5f5b828110156107b957848901518255600182019150602085019450602081019050610794565b868310156107d657848901516107d2601f8916826106e5565b8355505b6001600288020188555050505b505050505050565b5f73ffffffffffffffffffffffffffffffffffffffff82169050919050565b5f610814826107eb565b9050919050565b6108248161080a565b82525050565b5f60208201905061083d5f83018461081b565b92915050565b7f4e487b71000000000000000000000000000000000000000000000000000000005f52601160045260245ffd5b5f61087a826105f1565b9150610885836105f1565b925082820190508082111561089d5761089c610843565b5b92915050565b6108ac816105f1565b82525050565b5f6060820190506108c55f83018661081b565b6108d260208301856108a3565b6108df60408301846108a3565b949350505050565b5f6020820190506108fa5f8301846108a3565b92915050565b6116d18061090d5f395ff3fe608060405234801561000f575f5ffd5b506004361061011f575f3560e01c806370a08231116100ab578063a9059cbb1161006f578063a9059cbb146102d1578063dd62ed3e14610301578063e1a283d614610331578063f2fde38b1461034f578063fca3b5aa1461036b5761011f565b806370a0823114610251578063715018a6146102815780637d55094d1461028b5780638da5cb5b1461029557806395d89b41146102b35761011f565b806323b872dd116100f257806323b872dd146101ad578063313ce567146101dd57806332cb6b0c146101fb57806340c10f191461021957806342966c68146102355761011f565b806306fdde03146101235780630754617214610141578063095ea7b31461015f57806318160ddd1461018f575b5f5ffd5b61012b610387565b604051610138919061131f565b60405180910390f35b610149610417565b604051610156919061137e565b60405180910390f35b610179600480360381019061017491906113f8565b61043c565b6040516101869190611450565b60405180910390f35b61019761045e565b6040516101a49190611478565b60405180910390f35b6101c760048036038101906101c29190611491565b610467565b6040516101d49190611450565b60405180910390f35b6101e5610495565b6040516101f291906114fc565b60405180910390f35b61020361049d565b6040516102109190611478565b60405180910390f35b610233600480360381019061022e91906113f8565b6104ad565b005b61024f600480360381019061024a9190611515565b610693565b005b61026b60048036038101906102669190611540565b6106ee565b6040516102789190611478565b60405180910390f35b610289610733565b005b610293610746565b005b61029d6107c0565b6040516102aa919061137e565b60405180910390f35b6102bb6107e8565b6040516102c8919061131f565b60405180910390f35b6102eb60048036038101906102e691906113f8565b610878565b6040516102f89190611450565b60405180910390f35b61031b6004803603810190610316919061156b565b61089a565b6040516103289190611478565b60405180910390f35b61033961091c565b6040516103469190611450565b60405180910390f35b61036960048036038101906103649190611540565b61092f565b005b61038560048036038101906103809190611540565b6109b3565b005b606060038054610396906115d6565b80601f01602080910402602001604051908101604052809291908181526020018280546103c2906115d6565b801561040d5780601f106103e45761010080835404028352916020019161040d565b820191905f5260205f20905b8154815290600101906020018083116103f057829003601f168201915b5050505050905090565b60065f9054906101000a900473ffffffffffffffffffffffffffffffffffffffff1681565b5f5f610446610ae3565b9050610453818585610aea565b600191505092915050565b5f600254905090565b5f5f610471610ae3565b905061047e858285610afc565b610489858585610b8f565b60019150509392505050565b5f6012905090565b6b033b2e3c9fd0803ce800000081565b60065f9054906101000a900473ffffffffffffffffffffffffffffffffffffffff1673ffffffffffffffffffffffffffffffffffffffff163373ffffffffffffffffffffffffffffffffffffffff1614610533576040517f955c501b00000000000000000000000000000000000000000000000000000000815260040160405180910390fd5b600660149054906101000a900460ff161561057a576040517feb56075600000000000000000000000000000000000000000000000000000000815260040160405180910390fd5b5f73ffffffffffffffffffffffffffffffffffffffff168273ffffffffffffffffffffffffffffffffffffffff16036105df576040517fd92e233d00000000000000000000000000000000000000000000000000000000815260040160405180910390fd5b6b033b2e3c9fd0803ce8000000816105f561045e565b6105ff9190611633565b1115610637576040517fc30436e900000000000000000000000000000000000000000000000000000000815260040160405180910390fd5b6106418282610c7f565b8173ffffffffffffffffffffffffffffffffffffffff167f0f6798a560793a54c3bcfe86a93cde1e73087d944c0ea20544137d4121396885826040516106879190611478565b60405180910390a25050565b61069d3382610cfe565b3373ffffffffffffffffffffffffffffffffffffffff167fcc16f5dbb4873280815c1ee09dbd06736cffcc184412cf7a71a0fdb75d397ca5826040516106e39190611478565b60405180910390a250565b5f5f5f8373ffffffffffffffffffffffffffffffffffffffff1673ffffffffffffffffffffffffffffffffffffffff1681526020019081526020015f20549050919050565b61073b610d7d565b6107445f610e04565b565b61074e610d7d565b600660149054906101000a900460ff1615600660146101000a81548160ff0219169083151502179055507f5708b32f825aa2f1192da18d8205d00f2cb633e72d1c5bb33a3111ccc61be8f4600660149054906101000a900460ff166040516107b69190611450565b60405180910390a1565b5f60055f9054906101000a900473ffffffffffffffffffffffffffffffffffffffff16905090565b6060600480546107f7906115d6565b80601f0160208091040260200160405190810160405280929190818152602001828054610823906115d6565b801561086e5780601f106108455761010080835404028352916020019161086e565b820191905f5260205f20905b81548152906001019060200180831161085157829003601f168201915b5050505050905090565b5f5f610882610ae3565b905061088f818585610b8f565b600191505092915050565b5f60015f8473ffffffffffffffffffffffffffffffffffffffff1673ffffffffffffffffffffffffffffffffffffffff1681526020019081526020015f205f8373ffffffffffffffffffffffffffffffffffffffff1673ffffffffffffffffffffffffffffffffffffffff1681526020019081526020015f2054905092915050565b600660149054906101000a900460ff1681565b610937610d7d565b5f73ffffffffffffffffffffffffffffffffffffffff168173ffffffffffffffffffffffffffffffffffffffff16036109a7575f6040517f1e4fbdf700000000000000000000000000000000000000000000000000000000815260040161099e919061137e565b60405180910390fd5b6109b081610e04565b50565b6109bb610d7d565b5f73ffffffffffffffffffffffffffffffffffffffff168173ffffffffffffffffffffffffffffffffffffffff1603610a20576040517fd92e233d00000000000000000000000000000000000000000000000000000000815260040160405180910390fd5b5f60065f9054906101000a900473ffffffffffffffffffffffffffffffffffffffff1690508160065f6101000a81548173ffffffffffffffffffffffffffffffffffffffff021916908373ffffffffffffffffffffffffffffffffffffffff1602179055508173ffffffffffffffffffffffffffffffffffffffff168173ffffffffffffffffffffffffffffffffffffffff167f1cf2de25c5bf439ac0287061c3a0fa69b3b02867d0ccfd2ded34e42577050b7360405160405180910390a35050565b5f33905090565b610af78383836001610ec7565b505050565b5f610b07848461089a565b90507fffffffffffffffffffffffffffffffffffffffffffffffffffffffffffffffff811015610b895781811015610b7a578281836040517ffb8f41b2000000000000000000000000000000000000000000000000000000008152600401610b7193929190611666565b60405180910390fd5b610b8884848484035f610ec7565b5b50505050565b5f73ffffffffffffffffffffffffffffffffffffffff168373ffffffffffffffffffffffffffffffffffffffff1603610bff575f6040517f96c6fd1e000000000000000000000000000000000000000000000000000000008152600401610bf6919061137e565b60405180910390fd5b5f73ffffffffffffffffffffffffffffffffffffffff168273ffffffffffffffffffffffffffffffffffffffff1603610c6f575f6040517fec442f05000000000000000000000000000000000000000000000000000000008152600401610c66919061137e565b60405180910390fd5b610c7a838383611096565b505050565b5f73ffffffffffffffffffffffffffffffffffffffff168273ffffffffffffffffffffffffffffffffffffffff1603610cef575f6040517fec442f05000000000000000000000000000000000000000000000000000000008152600401610ce6919061137e565b60405180910390fd5b610cfa5f8383611096565b5050565b5f73ffffffffffffffffffffffffffffffffffffffff168273ffffffffffffffffffffffffffffffffffffffff1603610d6e575f6040517f96c6fd1e000000000000000000000000000000000000000000000000000000008152600401610d65919061137e565b60405180910390fd5b610d79825f83611096565b5050565b610d85610ae3565b73ffffffffffffffffffffffffffffffffffffffff16610da36107c0565b73ffffffffffffffffffffffffffffffffffffffff1614610e0257610dc6610ae3565b6040517f118cdaa7000000000000000000000000000000000000000000000000000000008152600401610df9919061137e565b60405180910390fd5b565b5f60055f9054906101000a900473ffffffffffffffffffffffffffffffffffffffff1690508160055f6101000a81548173ffffffffffffffffffffffffffffffffffffffff021916908373ffffffffffffffffffffffffffffffffffffffff1602179055508173ffffffffffffffffffffffffffffffffffffffff168173ffffffffffffffffffffffffffffffffffffffff167f8be0079c531659141344cd1fd0a4f28419497f9722a3daafe3b4186f6b6457e060405160405180910390a35050565b5f73ffffffffffffffffffffffffffffffffffffffff168473ffffffffffffffffffffffffffffffffffffffff1603610f37575f6040517fe602df05000000000000000000000000000000000000000000000000000000008152600401610f2e919061137e565b60405180910390fd5b5f73ffffffffffffffffffffffffffffffffffffffff168373ffffffffffffffffffffffffffffffffffffffff1603610fa7575f6040517f94280d62000000000000000000000000000000000000000000000000000000008152600401610f9e919061137e565b60405180910390fd5b8160015f8673ffffffffffffffffffffffffffffffffffffffff1673ffffffffffffffffffffffffffffffffffffffff1681526020019081526020015f205f8573ffffffffffffffffffffffffffffffffffffffff1673ffffffffffffffffffffffffffffffffffffffff1681526020019081526020015f20819055508015611090578273ffffffffffffffffffffffffffffffffffffffff168473ffffffffffffffffffffffffffffffffffffffff167f8c5be1e5ebec7d5bd14f71427d1e84f3dd0314c0f7b2291e5b200ac8c7c3b925846040516110879190611478565b60405180910390a35b50505050565b5f73ffffffffffffffffffffffffffffffffffffffff168373ffffffffffffffffffffffffffffffffffffffff16036110e6578060025f8282546110da9190611633565b925050819055506111b4565b5f5f5f8573ffffffffffffffffffffffffffffffffffffffff1673ffffffffffffffffffffffffffffffffffffffff1681526020019081526020015f205490508181101561116f578381836040517fe450d38c00000000000000000000000000000000000000000000000000000000815260040161116693929190611666565b60405180910390fd5b8181035f5f8673ffffffffffffffffffffffffffffffffffffffff1673ffffffffffffffffffffffffffffffffffffffff1681526020019081526020015f2081905550505b5f73ffffffffffffffffffffffffffffffffffffffff168273ffffffffffffffffffffffffffffffffffffffff16036111fb578060025f8282540392505081905550611245565b805f5f8473ffffffffffffffffffffffffffffffffffffffff1673ffffffffffffffffffffffffffffffffffffffff1681526020019081526020015f205f82825401925050819055505b8173ffffffffffffffffffffffffffffffffffffffff168373ffffffffffffffffffffffffffffffffffffffff167fddf252ad1be2c89b69c2b068fc378daa952ba7f163c4a11628f55a4df523b3ef836040516112a29190611478565b60405180910390a3505050565b5f81519050919050565b5f82825260208201905092915050565b8281835e5f83830152505050565b5f601f19601f8301169050919050565b5f6112f1826112af565b6112fb81856112b9565b935061130b8185602086016112c9565b611314816112d7565b840191505092915050565b5f6020820190508181035f83015261133781846112e7565b905092915050565b5f73ffffffffffffffffffffffffffffffffffffffff82169050919050565b5f6113688261133f565b9050919050565b6113788161135e565b82525050565b5f6020820190506113915f83018461136f565b92915050565b5f5ffd5b6113a48161135e565b81146113ae575f5ffd5b50565b5f813590506113bf8161139b565b92915050565b5f819050919050565b6113d7816113c5565b81146113e1575f5ffd5b50565b5f813590506113f2816113ce565b92915050565b5f5f6040838503121561140e5761140d611397565b5b5f61141b858286016113b1565b925050602061142c858286016113e4565b9150509250929050565b5f8115159050919050565b61144a81611436565b82525050565b5f6020820190506114635f830184611441565b92915050565b611472816113c5565b82525050565b5f60208201905061148b5f830184611469565b92915050565b5f5f5f606084860312156114a8576114a7611397565b5b5f6114b5868287016113b1565b93505060206114c6868287016113b1565b92505060406114d7868287016113e4565b9150509250925092565b5f60ff82169050919050565b6114f6816114e1565b82525050565b5f60208201905061150f5f8301846114ed565b92915050565b5f6020828403121561152a57611529611397565b5b5f611537848285016113e4565b91505092915050565b5f6020828403121561155557611554611397565b5b5f611562848285016113b1565b91505092915050565b5f5f6040838503121561158157611580611397565b5b5f61158e858286016113b1565b925050602061159f858286016113b1565b9150509250929050565b7f4e487b71000000000000000000000000000000000000000000000000000000005f52602260045260245ffd5b5f60028204905060018216806115ed57607f821691505b602082108103611600576115ff6115a9565b5b50919050565b7f4e487b71000000000000000000000000000000000000000000000000000000005f52601160045260245ffd5b5f61163d826113c5565b9150611648836113c5565b92508282019050808211156116605761165f611606565b5b92915050565b5f6060820190506116795f83018661136f565b6116866020830185611469565b6116936040830184611469565b94935050505056fea26469706673582212204c01b22b2f5b50d2140b23b7913270012323ee392a32c154fba152b57a77ef0064736f6c634300081d0033","linkReferences":{}},"methodIdentifiers":{"MAX_SUPPLY()":"32cb6b0c","allowance(address,address)":"dd62ed3e","approve(address,uint256)":"095ea7b3","balanceOf(address)":"70a08231","burn(uint256)":"42966c68","decimals()":"313ce567","mint(address,uint256)":"40c10f19","minter()":"07546172","mintingPaused()":"e1a283d6","name()":"06fdde03","owner()":"8da5cb5b","renounceOwnership()":"715018a6","setMinter(address)":"fca3b5aa","symbol()":"95d89b41","toggleMinting()":"7d55094d","totalSupply()":"18160ddd","transfer(address,uint256)":"a9059cbb","transferFrom(address,address,uint256)":"23b872dd","transferOwnership(address)":"f2fde38b"},"id":77}