{"abi":[{"type":"constructor","inputs":[{"name":"_token","type":"address","internalType":"contract IVotes"},{"name":"_timelock","type":"address","internalType":"contract TimelockController"},{"name":"_treasury","type":"address","internalType":"address"},{"name":"_vetoer","type":"address","internalType":"address"}],"stateMutability":"nonpayable"},{"type":"receive","stateMutability":"payable"},{"type":"function","name":"BALLOT_TYPEHASH","inputs":[],"outputs":[{"name":"","type":"bytes32","internalType":"bytes32"}],"stateMutability":"view"},{"type":"function","name":"CLOCK_MODE","inputs":[],"outputs":[{"name":"","type":"string","internalType":"string"}],"stateMutability":"view"},{"type":"function","name":"COUNTING_MODE","inputs":[],"outputs":[{"name":"","type":"string","internalType":"string"}],"stateMutability":"pure"},{"type":"function","name":"EXTENDED_BALLOT_TYPEHASH","inputs":[],"outputs":[{"name":"","type":"bytes32","internalType":"bytes32"}],"stateMutability":"view"},{"type":"function","name":"VETO_PERIOD","inputs":[],"outputs":[{"name":"","type":"uint256","internalType":"uint256"}],"stateMutability":"view"},{"type":"function","name":"cancel","inputs":[{"name":"targets","type":"address[]","internalType":"address[]"},{"name":"values","type":"uint256[]","internalType":"uint256[]"},{"name":"calldatas","type":"bytes[]","internalType":"bytes[]"},{"name":"descriptionHash","type":"bytes32","internalType":"bytes32"}],"outputs":[{"name":"","type":"uint256","internalType":"uint256"}],"stateMutability":"nonpayable"},{"type":"function","name":"castVote","inputs":[{"name":"proposalId","type":"uint256","internalType":"uint256"},{"name":"support","type":"uint8","internalType":"uint8"}],"outputs":[{"name":"","type":"uint256","internalType":"uint256"}],"stateMutability":"nonpayable"},{"type":"function","name":"castVoteBySig","inputs":[{"name":"proposalId","type":"uint256","internalType":"uint256"},{"name":"support","type":"uint8","internalType":"uint8"},{"name":"voter","type":"address","internalType":"address"},{"name":"signature","type":"bytes","internalType":"bytes"}],"outputs":[{"name":"","type":"uint256","internalType":"uint256"}],"stateMutability":"nonpayable"},{"type":"function","name":"castVoteWithReason","inputs":[{"name":"proposalId","type":"uint256","internalType":"uint256"},{"name":"support","type":"uint8","internalType":"uint8"},{"name":"reason","type":"string","internalType":"string"}],"outputs":[{"name":"","type":"uint256","internalType":"uint256"}],"stateMutability":"nonpayable"},{"type":"function","name":"castVoteWithReasonAndParams","inputs":[{"name":"proposalId","type":"uint256","internalType":"uint256"},{"name":"support","type":"uint8","internalType":"uint8"},{"name":"reason","type":"string","internalType":"string"},{"name":"params","type":"bytes","internalType":"bytes"}],"outputs":[{"name":"","type":"uint256","internalType":"uint256"}],"stateMutability":"nonpayable"},{"type":"function","name":"castVoteWithReasonAndParamsBySig","inputs":[{"name":"proposalId","type":"uint256","internalType":"uint256"},{"name":"support","type":"uint8","internalType":"uint8"},{"name":"voter","type":"address","internalType":"address"},{"name":"reason","type":"string","internalType":"string"},{"name":"params","type":"bytes","internalType":"bytes"},{"name":"signature","type":"bytes","internalType":"bytes"}],"outputs":[{"name":"","type":"uint256","internalType":"uint256"}],"stateMutability":"nonpayable"},{"type":"function","name":"claimRewards","inputs":[],"outputs":[],"stateMutability":"nonpayable"},{"type":"function","name":"clock","inputs":[],"outputs":[{"name":"","type":"uint48","internalType":"uint48"}],"stateMutability":"view"},{"type":"function","name":"delegateVotingPower","inputs":[{"name":"delegatee","type":"address","internalType":"address"}],"outputs":[],"stateMutability":"nonpayable"},{"type":"function","name":"delegatedVotingPower","inputs":[{"name":"","type":"address","internalType":"address"}],"outputs":[{"name":"","type":"uint256","internalType":"uint256"}],"stateMutability":"view"},{"type":"function","name":"disableEmergencyMode","inputs":[],"outputs":[],"stateMutability":"nonpayable"},{"type":"function","name":"eip712Domain","inputs":[],"outputs":[{"name":"fields","type":"bytes1","internalType":"bytes1"},{"name":"name","type":"string","internalType":"string"},{"name":"version","type":"string","internalType":"string"},{"name":"chainId","type":"uint256","internalType":"uint256"},{"name":"verifyingContract","type":"address","internalType":"address"},{"name":"salt","type":"bytes32","internalType":"bytes32"},{"name":"extensions","type":"uint256[]","internalType":"uint256[]"}],"stateMutability":"view"},{"type":"function","name":"emergencyMode","inputs":[],"outputs":[{"name":"","type":"bool","internalType":"bool"}],"stateMutability":"view"},{"type":"function","name":"emergencyProposalId","inputs":[],"outputs":[{"name":"","type":"uint256","internalType":"uint256"}],"stateMutability":"view"},{"type":"function","name":"emergencyPropose","inputs":[{"name":"targets","type":"address[]","internalType":"address[]"},{"name":"values","type":"uint256[]","internalType":"uint256[]"},{"name":"calldatas","type":"bytes[]","internalType":"bytes[]"},{"name":"description","type":"string","internalType":"string"}],"outputs":[{"name":"","type":"uint256","internalType":"uint256"}],"stateMutability":"nonpayable"},{"type":"function","name":"execute","inputs":[{"name":"targets","type":"address[]","internalType":"address[]"},{"name":"values","type":"uint256[]","internalType":"uint256[]"},{"name":"calldatas","type":"bytes[]","internalType":"bytes[]"},{"name":"descriptionHash","type":"bytes32","internalType":"bytes32"}],"outputs":[{"name":"","type":"uint256","internalType":"uint256"}],"stateMutability":"payable"},{"type":"function","name":"failedProposals","inputs":[{"name":"","type":"address","internalType":"address"}],"outputs":[{"name":"","type":"uint256","internalType":"uint256"}],"stateMutability":"view"},{"type":"function","name":"getGovernanceStats","inputs":[],"outputs":[{"name":"proposals","type":"uint256","internalType":"uint256"},{"name":"successful","type":"uint256","internalType":"uint256"},{"name":"failed","type":"uint256","internalType":"uint256"},{"name":"votes","type":"uint256","internalType":"uint256"},{"name":"activeVoters","type":"uint256","internalType":"uint256"}],"stateMutability":"view"},{"type":"function","name":"getMemberStats","inputs":[{"name":"member","type":"address","internalType":"address"}],"outputs":[{"name":"reputation","type":"uint256","internalType":"uint256"},{"name":"successful","type":"uint256","internalType":"uint256"},{"name":"failed","type":"uint256","internalType":"uint256"},{"name":"rewards","type":"uint256","internalType":"uint256"}],"stateMutability":"view"},{"type":"function","name":"getProposalDetails","inputs":[{"name":"proposalId","type":"uint256","internalType":"uint256"}],"outputs":[{"name":"metadata","type":"tuple","internalType":"struct EMADGovernor.ProposalMetadata","components":[{"name":"proposalType","type":"uint8","internalType":"enum EMADGovernor.ProposalType"},{"name":"ipfsHash","type":"string","internalType":"string"},{"name":"createdAt","type":"uint256","internalType":"uint256"},{"name":"proposer","type":"address","internalType":"address"},{"name":"executed","type":"bool","internalType":"bool"},{"name":"cancelled","type":"bool","internalType":"bool"}]},{"name":"currentState","type":"uint8","internalType":"enum IGovernor.ProposalState"},{"name":"forVotes","type":"uint256","internalType":"uint256"},{"name":"againstVotes","type":"uint256","internalType":"uint256"},{"name":"abstainVotes","type":"uint256","internalType":"uint256"}],"stateMutability":"view"},{"type":"function","name":"getProposalId","inputs":[{"name":"targets","type":"address[]","internalType":"address[]"},{"name":"values","type":"uint256[]","internalType":"uint256[]"},{"name":"calldatas","type":"bytes[]","internalType":"bytes[]"},{"name":"descriptionHash","type":"bytes32","internalType":"bytes32"}],"outputs":[{"name":"","type":"uint256","internalType":"uint256"}],"stateMutability":"view"},{"type":"function","name":"getTotalVotingPower","inputs":[{"name":"account","type":"address","internalType":"address"}],"outputs":[{"name":"","type":"uint256","internalType":"uint256"}],"stateMutability":"view"},{"type":"function","name":"getVotes","inputs":[{"name":"account","type":"address","internalType":"address"},{"name":"timepoint","type":"uint256","internalType":"uint256"}],"outputs":[{"name":"","type":"uint256","internalType":"uint256"}],"stateMutability":"view"},{"type":"function","name":"getVotesWithParams","inputs":[{"name":"account","type":"address","internalType":"address"},{"name":"timepoint","type":"uint256","internalType":"uint256"},{"name":"params","type":"bytes","internalType":"bytes"}],"outputs":[{"name":"","type":"uint256","internalType":"uint256"}],"stateMutability":"view"},{"type":"function","name":"governanceToken","inputs":[],"outputs":[{"name":"","type":"address","internalType":"contract IERC20"}],"stateMutability":"view"},{"type":"function","name":"hasVoted","inputs":[{"name":"proposalId","type":"uint256","internalType":"uint256"},{"name":"account","type":"address","internalType":"address"}],"outputs":[{"name":"","type":"bool","internalType":"bool"}],"stateMutability":"view"},{"type":"function","name":"hashProposal","inputs":[{"name":"targets","type":"address[]","internalType":"address[]"},{"name":"values","type":"uint256[]","internalType":"uint256[]"},{"name":"calldatas","type":"bytes[]","internalType":"bytes[]"},{"name":"descriptionHash","type":"bytes32","internalType":"bytes32"}],"outputs":[{"name":"","type":"uint256","internalType":"uint256"}],"stateMutability":"pure"},{"type":"function","name":"lateQuorumVoteExtension","inputs":[],"outputs":[{"name":"","type":"uint48","internalType":"uint48"}],"stateMutability":"view"},{"type":"function","name":"meetsQuorum","inputs":[{"name":"proposalId","type":"uint256","internalType":"uint256"}],"outputs":[{"name":"","type":"bool","internalType":"bool"}],"stateMutability":"view"},{"type":"function","name":"memberReputation","inputs":[{"name":"","type":"address","internalType":"address"}],"outputs":[{"name":"","type":"uint256","internalType":"uint256"}],"stateMutability":"view"},{"type":"function","name":"name","inputs":[],"outputs":[{"name":"","type":"string","internalType":"string"}],"stateMutability":"view"},{"type":"function","name":"nonces","inputs":[{"name":"owner","type":"address","internalType":"address"}],"outputs":[{"name":"","type":"uint256","internalType":"uint256"}],"stateMutability":"view"},{"type":"function","name":"onERC1155BatchReceived","inputs":[{"name":"","type":"address","internalType":"address"},{"name":"","type":"address","internalType":"address"},{"name":"","type":"uint256[]","internalType":"uint256[]"},{"name":"","type":"uint256[]","internalType":"uint256[]"},{"name":"","type":"bytes","internalType":"bytes"}],"outputs":[{"name":"","type":"bytes4","internalType":"bytes4"}],"stateMutability":"nonpayable"},{"type":"function","name":"onERC1155Received","inputs":[{"name":"","type":"address","internalType":"address"},{"name":"","type":"address","internalType":"address"},{"name":"","type":"uint256","internalType":"uint256"},{"name":"","type":"uint256","internalType":"uint256"},{"name":"","type":"bytes","internalType":"bytes"}],"outputs":[{"name":"","type":"bytes4","internalType":"bytes4"}],"stateMutability":"nonpayable"},{"type":"function","name":"onERC721Received","inputs":[{"name":"","type":"address","internalType":"address"},{"name":"","type":"address","internalType":"address"},{"name":"","type":"uint256","internalType":"uint256"},{"name":"","type":"bytes","internalType":"bytes"}],"outputs":[{"name":"","type":"bytes4","internalType":"bytes4"}],"stateMutability":"nonpayable"},{"type":"function","name":"proposalDeadline","inputs":[{"name":"proposalId","type":"uint256","internalType":"uint256"}],"outputs":[{"name":"","type":"uint256","internalType":"uint256"}],"stateMutability":"view"},{"type":"function","name":"proposalEta","inputs":[{"name":"proposalId","type":"uint256","internalType":"uint256"}],"outputs":[{"name":"","type":"uint256","internalType":"uint256"}],"stateMutability":"view"},{"type":"function","name":"proposalMetadata","inputs":[{"name":"","type":"uint256","internalType":"uint256"}],"outputs":[{"name":"proposalType","type":"uint8","internalType":"enum EMADGovernor.ProposalType"},{"name":"ipfsHash","type":"string","internalType":"string"},{"name":"createdAt","type":"uint256","internalType":"uint256"},{"name":"proposer","type":"address","internalType":"address"},{"name":"executed","type":"bool","internalType":"bool"},{"name":"cancelled","type":"bool","internalType":"bool"}],"stateMutability":"view"},{"type":"function","name":"proposalNeedsQueuing","inputs":[{"name":"proposalId","type":"uint256","internalType":"uint256"}],"outputs":[{"name":"","type":"bool","internalType":"bool"}],"stateMutability":"view"},{"type":"function","name":"proposalProposer","inputs":[{"name":"proposalId","type":"uint256","internalType":"uint256"}],"outputs":[{"name":"","type":"address","internalType":"address"}],"stateMutability":"view"},{"type":"function","name":"proposalReward","inputs":[],"outputs":[{"name":"","type":"uint256","internalType":"uint256"}],"stateMutability":"view"},{"type":"function","name":"proposalSnapshot","inputs":[{"name":"proposalId","type":"uint256","internalType":"uint256"}],"outputs":[{"name":"","type":"uint256","internalType":"uint256"}],"stateMutability":"view"},{"type":"function","name":"proposalSpendAmount","inputs":[{"name":"","type":"uint256","internalType":"uint256"}],"outputs":[{"name":"","type":"uint256","internalType":"uint256"}],"stateMutability":"view"},{"type":"function","name":"proposalThreshold","inputs":[],"outputs":[{"name":"","type":"uint256","internalType":"uint256"}],"stateMutability":"view"},{"type":"function","name":"proposalThresholds","inputs":[{"name":"","type":"uint8","internalType":"enum EMADGovernor.ProposalType"}],"outputs":[{"name":"","type":"uint256","internalType":"uint256"}],"stateMutability":"view"},{"type":"function","name":"proposalVotes","inputs":[{"name":"proposalId","type":"uint256","internalType":"uint256"}],"outputs":[{"name":"againstVotes","type":"uint256","internalType":"uint256"},{"name":"forVotes","type":"uint256","internalType":"uint256"},{"name":"abstainVotes","type":"uint256","internalType":"uint256"}],"stateMutability":"view"},{"type":"function","name":"propose","inputs":[{"name":"targets","type":"address[]","internalType":"address[]"},{"name":"values","type":"uint256[]","internalType":"uint256[]"},{"name":"calldatas","type":"bytes[]","internalType":"bytes[]"},{"name":"description","type":"string","internalType":"string"}],"outputs":[{"name":"","type":"uint256","internalType":"uint256"}],"stateMutability":"nonpayable"},{"type":"function","name":"proposeWithType","inputs":[{"name":"targets","type":"address[]","internalType":"address[]"},{"name":"values","type":"uint256[]","internalType":"uint256[]"},{"name":"calldatas","type":"bytes[]","internalType":"bytes[]"},{"name":"description","type":"string","internalType":"string"},{"name":"proposalType","type":"uint8","internalType":"enum EMADGovernor.ProposalType"},{"name":"ipfsHash","type":"string","internalType":"string"}],"outputs":[{"name":"","type":"uint256","internalType":"uint256"}],"stateMutability":"nonpayable"},{"type":"function","name":"queue","inputs":[{"name":"targets","type":"address[]","internalType":"address[]"},{"name":"values","type":"uint256[]","internalType":"uint256[]"},{"name":"calldatas","type":"bytes[]","internalType":"bytes[]"},{"name":"descriptionHash","type":"bytes32","internalType":"bytes32"}],"outputs":[{"name":"","type":"uint256","internalType":"uint256"}],"stateMutability":"nonpayable"},{"type":"function","name":"quorum","inputs":[{"name":"blockNumber","type":"uint256","internalType":"uint256"}],"outputs":[{"name":"","type":"uint256","internalType":"uint256"}],"stateMutability":"view"},{"type":"function","name":"quorumDenominator","inputs":[],"outputs":[{"name":"","type":"uint256","internalType":"uint256"}],"stateMutability":"view"},{"type":"function","name":"quorumNumerator","inputs":[{"name":"timepoint","type":"uint256","internalType":"uint256"}],"outputs":[{"name":"","type":"uint256","internalType":"uint256"}],"stateMutability":"view"},{"type":"function","name":"quorumNumerator","inputs":[],"outputs":[{"name":"","type":"uint256","internalType":"uint256"}],"stateMutability":"view"},{"type":"function","name":"quorumThresholds","inputs":[{"name":"","type":"uint8","internalType":"enum EMADGovernor.ProposalType"}],"outputs":[{"name":"","type":"uint256","internalType":"uint256"}],"stateMutability":"view"},{"type":"function","name":"relay","inputs":[{"name":"target","type":"address","internalType":"address"},{"name":"value","type":"uint256","internalType":"uint256"},{"name":"data","type":"bytes","internalType":"bytes"}],"outputs":[],"stateMutability":"payable"},{"type":"function","name":"setLateQuorumVoteExtension","inputs":[{"name":"newVoteExtension","type":"uint48","internalType":"uint48"}],"outputs":[],"stateMutability":"nonpayable"},{"type":"function","name":"setProposalThreshold","inputs":[{"name":"newProposalThreshold","type":"uint256","internalType":"uint256"}],"outputs":[],"stateMutability":"nonpayable"},{"type":"function","name":"setVotingDelay","inputs":[{"name":"newVotingDelay","type":"uint48","internalType":"uint48"}],"outputs":[],"stateMutability":"nonpayable"},{"type":"function","name":"setVotingPeriod","inputs":[{"name":"newVotingPeriod","type":"uint32","internalType":"uint32"}],"outputs":[],"stateMutability":"nonpayable"},{"type":"function","name":"state","inputs":[{"name":"proposalId","type":"uint256","internalType":"uint256"}],"outputs":[{"name":"","type":"uint8","internalType":"enum IGovernor.ProposalState"}],"stateMutability":"view"},{"type":"function","name":"successfulProposals","inputs":[{"name":"","type":"address","internalType":"address"}],"outputs":[{"name":"","type":"uint256","internalType":"uint256"}],"stateMutability":"view"},{"type":"function","name":"supportsInterface","inputs":[{"name":"interfaceId","type":"bytes4","internalType":"bytes4"}],"outputs":[{"name":"","type":"bool","internalType":"bool"}],"stateMutability":"view"},{"type":"function","name":"timelock","inputs":[],"outputs":[{"name":"","type":"address","internalType":"address"}],"stateMutability":"view"},{"type":"function","name":"token","inputs":[],"outputs":[{"name":"","type":"address","internalType":"contract IERC5805"}],"stateMutability":"view"},{"type":"function","name":"totalFailedProposals","inputs":[],"outputs":[{"name":"","type":"uint256","internalType":"uint256"}],"stateMutability":"view"},{"type":"function","name":"totalProposals","inputs":[],"outputs":[{"name":"","type":"uint256","internalType":"uint256"}],"stateMutability":"view"},{"type":"function","name":"totalSuccessfulProposals","inputs":[],"outputs":[{"name":"","type":"uint256","internalType":"uint256"}],"stateMutability":"view"},{"type":"function","name":"totalVotesCast","inputs":[],"outputs":[{"name":"","type":"uint256","internalType":"uint256"}],"stateMutability":"view"},{"type":"function","name":"treasury","inputs":[],"outputs":[{"name":"","type":"address","internalType":"address"}],"stateMutability":"view"},{"type":"function","name":"treasurySpendLimit","inputs":[],"outputs":[{"name":"","type":"uint256","internalType":"uint256"}],"stateMutability":"view"},{"type":"function","name":"unclaimedRewards","inputs":[{"name":"","type":"address","internalType":"address"}],"outputs":[{"name":"","type":"uint256","internalType":"uint256"}],"stateMutability":"view"},{"type":"function","name":"updateProposalThreshold","inputs":[{"name":"proposalType","type":"uint8","internalType":"enum EMADGovernor.ProposalType"},{"name":"newThreshold","type":"uint256","internalType":"uint256"}],"outputs":[],"stateMutability":"nonpayable"},{"type":"function","name":"updateQuorumNumerator","inputs":[{"name":"newQuorumNumerator","type":"uint256","internalType":"uint256"}],"outputs":[],"stateMutability":"nonpayable"},{"type":"function","name":"updateQuorumThreshold","inputs":[{"name":"proposalType","type":"uint8","internalType":"enum EMADGovernor.ProposalType"},{"name":"newQuorum","type":"uint256","internalType":"uint256"}],"outputs":[],"stateMutability":"nonpayable"},{"type":"function","name":"updateRewards","inputs":[{"name":"_proposalReward","type":"uint256","internalType":"uint256"},{"name":"_votingReward","type":"uint256","internalType":"uint256"}],"outputs":[],"stateMutability":"nonpayable"},{"type":"function","name":"updateTimelock","inputs":[{"name":"newTimelock","type":"address","internalType":"contract TimelockController"}],"outputs":[],"stateMutability":"nonpayable"},{"type":"function","name":"updateVetoer","inputs":[{"name":"newVetoer","type":"address","internalType":"address"}],"outputs":[],"stateMutability":"nonpayable"},{"type":"function","name":"version","inputs":[],"outputs":[{"name":"","type":"string","internalType":"string"}],"stateMutability":"view"},{"type":"function","name":"veto","inputs":[{"name":"proposalId","type":"uint256","internalType":"uint256"}],"outputs":[],"stateMutability":"nonpayable"},{"type":"function","name":"vetoed","inputs":[{"name":"","type":"uint256","internalType":"uint256"}],"outputs":[{"name":"","type":"bool","internalType":"bool"}],"stateMutability":"view"},{"type":"function","name":"vetoer","inputs":[],"outputs":[{"name":"","type":"address","internalType":"address"}],"stateMutability":"view"},{"type":"function","name":"voteDelegation","inputs":[{"name":"","type":"address","internalType":"address"}],"outputs":[{"name":"","type":"address","internalType":"address"}],"stateMutability":"view"},{"type":"function","name":"votingDelay","inputs":[],"outputs":[{"name":"","type":"uint256","internalType":"uint256"}],"stateMutability":"view"},{"type":"function","name":"votingPeriod","inputs":[],"outputs":[{"name":"","type":"uint256","internalType":"uint256"}],"stateMutability":"view"},{"type":"function","name":"votingReward","inputs":[],"outputs":[{"name":"","type":"uint256","internalType":"uint256"}],"stateMutability":"view"},{"type":"event","name":"EIP712DomainChanged","inputs":[],"anonymous":false},{"type":"event","name":"EmergencyModeActivated","inputs":[{"name":"proposalId","type":"uint256","indexed":true,"internalType":"uint256"}],"anonymous":false},{"type":"event","name":"LateQuorumVoteExtensionSet","inputs":[{"name":"oldVoteExtension","type":"uint64","indexed":false,"internalType":"uint64"},{"name":"newVoteExtension","type":"uint64","indexed":false,"internalType":"uint64"}],"anonymous":false},{"type":"event","name":"ProposalCanceled","inputs":[{"name":"proposalId","type":"uint256","indexed":false,"internalType":"uint256"}],"anonymous":false},{"type":"event","name":"ProposalCreated","inputs":[{"name":"proposalId","type":"uint256","indexed":false,"internalType":"uint256"},{"name":"proposer","type":"address","indexed":false,"internalType":"address"},{"name":"targets","type":"address[]","indexed":false,"internalType":"address[]"},{"name":"values","type":"uint256[]","indexed":false,"internalType":"uint256[]"},{"name":"signatures","type":"string[]","indexed":false,"internalType":"string[]"},{"name":"calldatas","type":"bytes[]","indexed":false,"internalType":"bytes[]"},{"name":"voteStart","type":"uint256","indexed":false,"internalType":"uint256"},{"name":"voteEnd","type":"uint256","indexed":false,"internalType":"uint256"},{"name":"description","type":"string","indexed":false,"internalType":"string"}],"anonymous":false},{"type":"event","name":"ProposalCreatedWithType","inputs":[{"name":"proposalId","type":"uint256","indexed":true,"internalType":"uint256"},{"name":"proposalType","type":"uint8","indexed":false,"internalType":"enum EMADGovernor.ProposalType"},{"name":"proposer","type":"address","indexed":true,"internalType":"address"},{"name":"description","type":"string","indexed":false,"internalType":"string"}],"anonymous":false},{"type":"event","name":"ProposalExecuted","inputs":[{"name":"proposalId","type":"uint256","indexed":false,"internalType":"uint256"}],"anonymous":false},{"type":"event","name":"ProposalExtended","inputs":[{"name":"proposalId","type":"uint256","indexed":true,"internalType":"uint256"},{"name":"extendedDeadline","type":"uint64","indexed":false,"internalType":"uint64"}],"anonymous":false},{"type":"event","name":"ProposalQueued","inputs":[{"name":"proposalId","type":"uint256","indexed":false,"internalType":"uint256"},{"name":"etaSeconds","type":"uint256","indexed":false,"internalType":"uint256"}],"anonymous":false},{"type":"event","name":"ProposalThresholdSet","inputs":[{"name":"oldProposalThreshold","type":"uint256","indexed":false,"internalType":"uint256"},{"name":"newProposalThreshold","type":"uint256","indexed":false,"internalType":"uint256"}],"anonymous":false},{"type":"event","name":"ProposalVetoed","inputs":[{"name":"proposalId","type":"uint256","indexed":true,"internalType":"uint256"},{"name":"vetoer","type":"address","indexed":true,"internalType":"address"}],"anonymous":false},{"type":"event","name":"QuorumNumeratorUpdated","inputs":[{"name":"oldQuorumNumerator","type":"uint256","indexed":false,"internalType":"uint256"},{"name":"newQuorumNumerator","type":"uint256","indexed":false,"internalType":"uint256"}],"anonymous":false},{"type":"event","name":"ReputationUpdated","inputs":[{"name":"member","type":"address","indexed":true,"internalType":"address"},{"name":"oldRep","type":"uint256","indexed":false,"internalType":"uint256"},{"name":"newRep","type":"uint256","indexed":false,"internalType":"uint256"}],"anonymous":false},{"type":"event","name":"RewardsDistributed","inputs":[{"name":"recipient","type":"address","indexed":true,"internalType":"address"},{"name":"amount","type":"uint256","indexed":false,"internalType":"uint256"}],"anonymous":false},{"type":"event","name":"TimelockChange","inputs":[{"name":"oldTimelock","type":"address","indexed":false,"internalType":"address"},{"name":"newTimelock","type":"address","indexed":false,"internalType":"address"}],"anonymous":false},{"type":"event","name":"TreasuryAllocation","inputs":[{"name":"proposalId","type":"uint256","indexed":true,"internalType":"uint256"},{"name":"recipient","type":"address","indexed":true,"internalType":"address"},{"name":"amount","type":"uint256","indexed":false,"internalType":"uint256"}],"anonymous":false},{"type":"event","name":"VoteCast","inputs":[{"name":"voter","type":"address","indexed":true,"internalType":"address"},{"name":"proposalId","type":"uint256","indexed":false,"internalType":"uint256"},{"name":"support","type":"uint8","indexed":false,"internalType":"uint8"},{"name":"weight","type":"uint256","indexed":false,"internalType":"uint256"},{"name":"reason","type":"string","indexed":false,"internalType":"string"}],"anonymous":false},{"type":"event","name":"VoteCastWithParams","inputs":[{"name":"voter","type":"address","indexed":true,"internalType":"address"},{"name":"proposalId","type":"uint256","indexed":false,"internalType":"uint256"},{"name":"support","type":"uint8","indexed":false,"internalType":"uint8"},{"name":"weight","type":"uint256","indexed":false,"internalType":"uint256"},{"name":"reason","type":"string","indexed":false,"internalType":"string"},{"name":"params","type":"bytes","indexed":false,"internalType":"bytes"}],"anonymous":false},{"type":"event","name":"VoteCastWithReason","inputs":[{"name":"voter","type":"address","indexed":true,"internalType":"address"},{"name":"proposalId","type":"uint256","indexed":true,"internalType":"uint256"},{"name":"support","type":"uint8","indexed":false,"internalType":"uint8"},{"name":"weight","type":"uint256","indexed":false,"internalType":"uint256"},{"name":"reason","type":"string","indexed":false,"internalType":"string"}],"anonymous":false},{"type":"event","name":"VotingDelaySet","inputs":[{"name":"oldVotingDelay","type":"uint256","indexed":false,"internalType":"uint256"},{"name":"newVotingDelay","type":"uint256","indexed":false,"internalType":"uint256"}],"anonymous":false},{"type":"event","name":"VotingPeriodSet","inputs":[{"name":"oldVotingPeriod","type":"uint256","indexed":false,"internalType":"uint256"},{"name":"newVotingPeriod","type":"uint256","indexed":false,"internalType":"uint256"}],"anonymous":false},{"type":"error","name":"CheckpointUnorderedInsertion","inputs":[]},{"type":"error","name":"ExceedsTreasuryLimit","inputs":[]},{"type":"error","name":"FailedCall","inputs":[]},{"type":"error","name":"GovernorAlreadyCastVote","inputs":[{"name":"voter","type":"address","internalType":"address"}]},{"type":"error","name":"GovernorAlreadyQueuedProposal","inputs":[{"name":"proposalId","type":"uint256","internalType":"uint256"}]},{"type":"error","name":"GovernorDisabledDeposit","inputs":[]},{"type":"error","name":"GovernorInsufficientProposerVotes","inputs":[{"name":"proposer","type":"address","internalType":"address"},{"name":"votes","type":"uint256","internalType":"uint256"},{"name":"threshold","type":"uint256","internalType":"uint256"}]},{"type":"error","name":"GovernorInvalidProposalLength","inputs":[{"name":"targets","type":"uint256","internalType":"uint256"},{"name":"calldatas","type":"uint256","internalType":"uint256"},{"name":"values","type":"uint256","internalType":"uint256"}]},{"type":"error","name":"GovernorInvalidQuorumFraction","inputs":[{"name":"quorumNumerator","type":"uint256","internalType":"uint256"},{"name":"quorumDenominator","type":"uint256","internalType":"uint256"}]},{"type":"error","name":"GovernorInvalidSignature","inputs":[{"name":"voter","type":"address","internalType":"address"}]},{"type":"error","name":"GovernorInvalidVoteParams","inputs":[]},{"type":"error","name":"GovernorInvalidVoteType","inputs":[]},{"type":"error","name":"GovernorInvalidVotingPeriod","inputs":[{"name":"votingPeriod","type":"uint256","internalType":"uint256"}]},{"type":"error","name":"GovernorNonexistentProposal","inputs":[{"name":"proposalId","type":"uint256","internalType":"uint256"}]},{"type":"error","name":"GovernorNotQueuedProposal","inputs":[{"name":"proposalId","type":"uint256","internalType":"uint256"}]},{"type":"error","name":"GovernorOnlyExecutor","inputs":[{"name":"account","type":"address","internalType":"address"}]},{"type":"error","name":"GovernorQueueNotImplemented","inputs":[]},{"type":"error","name":"GovernorRestrictedProposer","inputs":[{"name":"proposer","type":"address","internalType":"address"}]},{"type":"error","name":"GovernorUnableToCancel","inputs":[{"name":"proposalId","type":"uint256","internalType":"uint256"},{"name":"account","type":"address","internalType":"address"}]},{"type":"error","name":"GovernorUnexpectedProposalState","inputs":[{"name":"proposalId","type":"uint256","internalType":"uint256"},{"name":"current","type":"uint8","internalType":"enum IGovernor.ProposalState"},{"name":"expectedStates","type":"bytes32","internalType":"bytes32"}]},{"type":"error","name":"InsufficientVotingPower","inputs":[]},{"type":"error","name":"InvalidAccountNonce","inputs":[{"name":"account","type":"address","internalType":"address"},{"name":"currentNonce","type":"uint256","internalType":"uint256"}]},{"type":"error","name":"InvalidProposalState","inputs":[]},{"type":"error","name":"InvalidShortString","inputs":[]},{"type":"error","name":"NoRewards","inputs":[]},{"type":"error","name":"ProposalNotFound","inputs":[]},{"type":"error","name":"ProposalVetoed","inputs":[]},{"type":"error","name":"SafeCastOverflowedUintDowncast","inputs":[{"name":"bits","type":"uint8","internalType":"uint8"},{"name":"value","type":"uint256","internalType":"uint256"}]},{"type":"error","name":"StringTooLong","inputs":[{"name":"str","type":"string","internalType":"string"}]},{"type":"error","name":"Unauthorized","inputs":[]},{"type":"error","name":"VetoPeriodExpired","inputs":[]}],"bytecode":{"object":"0x6101a060405269d3c21bcecceda1000000601755683635c9adc5dea00000601955678ac7230489e80000601a55348015610037575f5ffd5b5060405161b80738038061b807833981810160405281019061005991906110a8565b611c2083600486600161c4e069152d02c7e14af68000006040518060400160405280600d81526020017f5249414420476f7665726e6f7200000000000000000000000000000000000000815250806100b56105cb60201b60201c565b6100c85f8361060860201b90919060201c565b61012081815250506100e460018261060860201b90919060201c565b6101408181525050818051906020012060e08181525050808051906020012061010081815250504660a0818152505061012161065560201b60201c565b608081815250503073ffffffffffffffffffffffffffffffffffffffff1660c08173ffffffffffffffffffffffffffffffffffffffff16815250505050806003908161016d9190611349565b505061017e836106af60201b60201c565b61018d8261072260201b60201c565b61019c816107db60201b60201c565b5050508073ffffffffffffffffffffffffffffffffffffffff166101608173ffffffffffffffffffffffffffffffffffffffff1681525050506101e48161082060201b60201c565b506101f4816108fa60201b60201c565b506102048161099760201b60201c565b508373ffffffffffffffffffffffffffffffffffffffff166101808173ffffffffffffffffffffffffffffffffffffffff16815250508160165f6101000a81548173ffffffffffffffffffffffffffffffffffffffff021916908373ffffffffffffffffffffffffffffffffffffffff1602179055508060145f6101000a81548173ffffffffffffffffffffffffffffffffffffffff021916908373ffffffffffffffffffffffffffffffffffffffff16021790555069152d02c7e14af680000060125f5f60058111156102db576102da611418565b5b60058111156102ed576102ec611418565b5b81526020019081526020015f20819055506934f086f3b33b6840000060125f600160058111156103205761031f611418565b5b600581111561033257610331611418565b5b81526020019081526020015f20819055506969e10de76676d080000060125f6002600581111561036557610364611418565b5b600581111561037757610376611418565b5b81526020019081526020015f20819055506969e10de76676d080000060125f600360058111156103aa576103a9611418565b5b60058111156103bc576103bb611418565b5b81526020019081526020015f208190555069152d02c7e14af680000060125f600460058111156103ef576103ee611418565b5b600581111561040157610400611418565b5b81526020019081526020015f20819055506934f086f3b33b6840000060125f60058081111561043357610432611418565b5b600581111561044557610444611418565b5b81526020019081526020015f208190555061019060135f5f600581111561046f5761046e611418565b5b600581111561048157610480611418565b5b81526020019081526020015f20819055506101f460135f600160058111156104ac576104ab611418565b5b60058111156104be576104bd611418565b5b81526020019081526020015f20819055506103e860135f600260058111156104e9576104e8611418565b5b60058111156104fb576104fa611418565b5b81526020019081526020015f20819055506103e860135f6003600581111561052657610525611418565b5b600581111561053857610537611418565b5b81526020019081526020015f208190555061019060135f6004600581111561056357610562611418565b5b600581111561057557610574611418565b5b81526020019081526020015f20819055506101f460135f60058081111561059f5761059e611418565b5b60058111156105b1576105b0611418565b5b81526020019081526020015f20819055505050505061193e565b60606040518060400160405280600181526020017f3100000000000000000000000000000000000000000000000000000000000000815250905090565b5f6020835110156106295761062283610a0a60201b60201c565b905061064f565b8261063983610a6f60201b60201c565b5f0190816106479190611349565b5060ff5f1b90505b92915050565b5f7f8b73c3c69bb8fe3d512ecc4cf759cc79239f7b179b0ffacaa9a75d522b39400f60e05161010051463060405160200161069495949392919061147b565b60405160208183030381529060405280519060200120905090565b7fc565b045403dc03c2eea82b81a0465edad9e2e7fc4d97e11421c209da93d7a9360085f9054906101000a900465ffffffffffff16826040516106f392919061150d565b60405180910390a18060085f6101000a81548165ffffffffffff021916908365ffffffffffff16021790555050565b5f8163ffffffff160361076c575f6040517ff1cfbf05000000000000000000000000000000000000000000000000000000008152600401610763919061156d565b60405180910390fd5b7f7e3f7f0708a84de9203036abaa450dccc85ad5ff52f78c170f3edb55cf5e8828600860069054906101000a900463ffffffff16826040516107af9291906115c5565b60405180910390a180600860066101000a81548163ffffffff021916908363ffffffff16021790555050565b7fccb45da8d5717e6c4544694297c4ba5cf151d455c9bb0ed4fc7a38411bc054616007548260405161080e9291906115ec565b60405180910390a18060078190555050565b5f61082f610a7860201b60201c565b9050808211156108785781816040517f243e544500000000000000000000000000000000000000000000000000000000815260040161086f9291906115ec565b60405180910390fd5b5f610887610a8060201b60201c565b90506108ba61089a610ab260201b60201c565b6108a985610b4960201b60201c565b600a610bb660201b9092919060201c565b50507f0553476bf02ef2726e8ce5ced78d63e26e602e4a2257b1f559418e24b463399781846040516108ed9291906115ec565b60405180910390a1505050565b7f08f74ea46ef7894f65eabfb5e6e695de773a000b47c529ab559178069b226401600b5f9054906101000a900473ffffffffffffffffffffffffffffffffffffffff168260405161094c929190611613565b60405180910390a180600b5f6101000a81548173ffffffffffffffffffffffffffffffffffffffff021916908373ffffffffffffffffffffffffffffffffffffffff16021790555050565b7f7ca4ac117ed3cdce75c1161d8207c440389b1a15d69d096831664657c07dafc2600d5f9054906101000a900465ffffffffffff16826040516109db92919061167d565b60405180910390a180600d5f6101000a81548165ffffffffffff021916908365ffffffffffff16021790555050565b5f5f829050601f81511115610a5657826040517f305a27a9000000000000000000000000000000000000000000000000000000008152600401610a4d919061170a565b60405180910390fd5b805181610a6290611757565b5f1c175f1b915050919050565b5f819050919050565b5f6064905090565b5f610a91600a610bd760201b60201c565b79ffffffffffffffffffffffffffffffffffffffffffffffffffff16905090565b5f610ac1610c3f60201b60201c565b73ffffffffffffffffffffffffffffffffffffffff166391ddadf46040518163ffffffff1660e01b8152600401602060405180830381865afa925050508015610b2857506040513d601f19601f82011682018060405250810190610b2591906117e7565b60015b610b4157610b3a610c4960201b60201c565b9050610b46565b809150505b90565b5f79ffffffffffffffffffffffffffffffffffffffffffffffffffff8016821115610bae5760d0826040517f6dfcc650000000000000000000000000000000000000000000000000000000008152600401610ba5929190611857565b60405180910390fd5b819050919050565b5f5f610bcb855f018585610c5e60201b60201c565b91509150935093915050565b5f5f825f018054905090505f8114610c3557610c07835f01600183610bfc91906118ab565b610f5860201b60201c565b5f0160069054906101000a900479ffffffffffffffffffffffffffffffffffffffffffffffffffff16610c37565b5f5b915050919050565b5f61016051905090565b5f610c5943610f6a60201b60201c565b905090565b5f5f5f858054905090505f811115610e70575f610c8d87600184610c8291906118ab565b610f5860201b60201c565b90505f815f015f9054906101000a900465ffffffffffff1690505f825f0160069054906101000a900479ffffffffffffffffffffffffffffffffffffffffffffffffffff1690508765ffffffffffff168265ffffffffffff161115610d1e576040517f2520601d00000000000000000000000000000000000000000000000000000000815260040160405180910390fd5b8765ffffffffffff168265ffffffffffff1603610d885786835f0160066101000a81548179ffffffffffffffffffffffffffffffffffffffffffffffffffff021916908379ffffffffffffffffffffffffffffffffffffffffffffffffffff160217905550610e61565b8860405180604001604052808a65ffffffffffff1681526020018979ffffffffffffffffffffffffffffffffffffffffffffffffffff16815250908060018154018082558091505060019003905f5260205f20015f909190919091505f820151815f015f6101000a81548165ffffffffffff021916908365ffffffffffff1602179055506020820151815f0160066101000a81548179ffffffffffffffffffffffffffffffffffffffffffffffffffff021916908379ffffffffffffffffffffffffffffffffffffffffffffffffffff16021790555050505b80879550955050505050610f50565b8560405180604001604052808765ffffffffffff1681526020018679ffffffffffffffffffffffffffffffffffffffffffffffffffff16815250908060018154018082558091505060019003905f5260205f20015f909190919091505f820151815f015f6101000a81548165ffffffffffff021916908365ffffffffffff1602179055506020820151815f0160066101000a81548179ffffffffffffffffffffffffffffffffffffffffffffffffffff021916908379ffffffffffffffffffffffffffffffffffffffffffffffffffff16021790555050505f8492509250505b935093915050565b5f825f528160205f2001905092915050565b5f65ffffffffffff8016821115610fbb576030826040517f6dfcc650000000000000000000000000000000000000000000000000000000008152600401610fb2929190611917565b60405180910390fd5b819050919050565b5f5ffd5b5f73ffffffffffffffffffffffffffffffffffffffff82169050919050565b5f610ff082610fc7565b9050919050565b5f61100182610fe6565b9050919050565b61101181610ff7565b811461101b575f5ffd5b50565b5f8151905061102c81611008565b92915050565b5f61103c82610fc7565b9050919050565b5f61104d82611032565b9050919050565b61105d81611043565b8114611067575f5ffd5b50565b5f8151905061107881611054565b92915050565b61108781610fe6565b8114611091575f5ffd5b50565b5f815190506110a28161107e565b92915050565b5f5f5f5f608085870312156110c0576110bf610fc3565b5b5f6110cd8782880161101e565b94505060206110de8782880161106a565b93505060406110ef87828801611094565b925050606061110087828801611094565b91505092959194509250565b5f81519050919050565b7f4e487b71000000000000000000000000000000000000000000000000000000005f52604160045260245ffd5b7f4e487b71000000000000000000000000000000000000000000000000000000005f52602260045260245ffd5b5f600282049050600182168061118757607f821691505b60208210810361119a57611199611143565b5b50919050565b5f819050815f5260205f209050919050565b5f6020601f8301049050919050565b5f82821b905092915050565b5f600883026111fc7fffffffffffffffffffffffffffffffffffffffffffffffffffffffffffffffff826111c1565b61120686836111c1565b95508019841693508086168417925050509392505050565b5f819050919050565b5f819050919050565b5f61124a6112456112408461121e565b611227565b61121e565b9050919050565b5f819050919050565b61126383611230565b61127761126f82611251565b8484546111cd565b825550505050565b5f5f905090565b61128e61127f565b61129981848461125a565b505050565b5b818110156112bc576112b15f82611286565b60018101905061129f565b5050565b601f821115611301576112d2816111a0565b6112db846111b2565b810160208510156112ea578190505b6112fe6112f6856111b2565b83018261129e565b50505b505050565b5f82821c905092915050565b5f6113215f1984600802611306565b1980831691505092915050565b5f6113398383611312565b9150826002028217905092915050565b6113528261110c565b67ffffffffffffffff81111561136b5761136a611116565b5b6113758254611170565b6113808282856112c0565b5f60209050601f8311600181146113b1575f841561139f578287015190505b6113a9858261132e565b865550611410565b601f1984166113bf866111a0565b5f5b828110156113e6578489015182556001820191506020850194506020810190506113c1565b8683101561140357848901516113ff601f891682611312565b8355505b6001600288020188555050505b505050505050565b7f4e487b71000000000000000000000000000000000000000000000000000000005f52602160045260245ffd5b5f819050919050565b61145781611445565b82525050565b6114668161121e565b82525050565b61147581610fe6565b82525050565b5f60a08201905061148e5f83018861144e565b61149b602083018761144e565b6114a8604083018661144e565b6114b5606083018561145d565b6114c2608083018461146c565b9695505050505050565b5f65ffffffffffff82169050919050565b5f6114f76114f26114ed846114cc565b611227565b61121e565b9050919050565b611507816114dd565b82525050565b5f6040820190506115205f8301856114fe565b61152d60208301846114fe565b9392505050565b5f819050919050565b5f61155761155261154d84611534565b611227565b61121e565b9050919050565b6115678161153d565b82525050565b5f6020820190506115805f83018461155e565b92915050565b5f63ffffffff82169050919050565b5f6115af6115aa6115a584611586565b611227565b61121e565b9050919050565b6115bf81611595565b82525050565b5f6040820190506115d85f8301856115b6565b6115e560208301846115b6565b9392505050565b5f6040820190506115ff5f83018561145d565b61160c602083018461145d565b9392505050565b5f6040820190506116265f83018561146c565b611633602083018461146c565b9392505050565b5f67ffffffffffffffff82169050919050565b5f61166761166261165d846114cc565b611227565b61163a565b9050919050565b6116778161164d565b82525050565b5f6040820190506116905f83018561166e565b61169d602083018461166e565b9392505050565b5f82825260208201905092915050565b8281835e5f83830152505050565b5f601f19601f8301169050919050565b5f6116dc8261110c565b6116e681856116a4565b93506116f68185602086016116b4565b6116ff816116c2565b840191505092915050565b5f6020820190508181035f83015261172281846116d2565b905092915050565b5f81519050919050565b5f819050602082019050919050565b5f61174e8251611445565b80915050919050565b5f6117618261172a565b8261176b84611734565b905061177681611743565b925060208210156117b6576117b17fffffffffffffffffffffffffffffffffffffffffffffffffffffffffffffffff836020036008026111c1565b831692505b5050919050565b6117c6816114cc565b81146117d0575f5ffd5b50565b5f815190506117e1816117bd565b92915050565b5f602082840312156117fc576117fb610fc3565b5b5f611809848285016117d3565b91505092915050565b5f819050919050565b5f60ff82169050919050565b5f61184161183c61183784611812565b611227565b61181b565b9050919050565b61185181611827565b82525050565b5f60408201905061186a5f830185611848565b611877602083018461145d565b9392505050565b7f4e487b71000000000000000000000000000000000000000000000000000000005f52601160045260245ffd5b5f6118b58261121e565b91506118c08361121e565b92508282039050818111156118d8576118d761187e565b5b92915050565b5f819050919050565b5f6119016118fc6118f7846118de565b611227565b61181b565b9050919050565b611911816118e7565b82525050565b5f60408201905061192a5f830185611908565b611937602083018461145d565b9392505050565b60805160a05160c05160e0516101005161012051610140516101605161018051619e566119b15f395f8181611fcd01528181613596015261391601525f61395001525f61490601525f6148cb01525f616d7101525f616d5001525f6165a401525f6165fa01525f6166230152619e565ff3fe6080604052600436106104e4575f3560e01c80637de418d511610280578063c01f9e3711610159578063ebe5adb9116100cb578063f8ce560a11610084578063f8ce560a146115be578063f96dae0a146115fa578063f9a5c63914611624578063fc0c546a14611660578063feb062be1461168a578063feef4b08146116cb57610557565b8063ebe5adb9146114a4578063ece40cc1146114e0578063ef95256814611508578063f23a6e611461151e578063f3ff955a1461155a578063f7c9d9361461158257610557565b8063dd4e2ba51161011d578063dd4e2ba514611394578063deaaa7cc146113be578063df91f748146113e8578063e540d01d14611416578063e861dc851461143e578063eb9019d41461146857610557565b8063c01f9e37146112ac578063c28bc2fa146112e8578063c59057e414611304578063d33219b414611340578063d8bff4401461136a57610557565b8063a7713a70116101f2578063ab58fb8e116101b6578063ab58fb8e1461117c578063b5382afb146111b8578063b58131b0146111e0578063b7112d151461120a578063b815bf9214611234578063bc197c811461127057610557565b8063a7713a7014611088578063a78d80fc146110b2578063a890c910146110dc578063a8f8a66814611104578063a9a952941461114057610557565b806391ddadf41161024457806391ddadf414610f6c578063949813b814610f9657806397c3d33414610fd257806397e5081814610ffc5780639a802a6d146110245780639dcbfd7d1461106057610557565b80637de418d514610e705780637de6838514610e9a5780637ecebe0014610ec457806384b0196e14610f005780638ff262e314610f3057610557565b806337897931116103bd578063567813881161032f5780636986e329116102e85780636986e32914610d2e5780637130e8a514610d6a5780637905188714610da65780637b3c71d314610dce5780637d5e81e214610e0a5780637ddb5e6514610e4657610557565b80635678138814610bd55780635b8d0e0d14610c115780635f398a1414610c4d5780636075f98414610c8957806360c4247f14610cc857806361d027b314610d0457610557565b8063409d7a0411610381578063409d7a0414610a8f5780634385963214610acb578063452115d614610b075780634bf5d7e914610b43578063544ffc9c14610b6d57806354fd4d5014610bab57610557565b8063378979311461097157806338bbfbfd146109ad5780633932abb1146109e95780633b4d01a714610a135780633e4f49e614610a5357610557565b80631d28dec7116104565780632e6d55d01161041a5780632e6d55d01461088b5780632fe3e261146108b557806331fec3ac146108df57806332b8113e14610909578063330df7ff14610933578063372500ab1461095b57610557565b80631d28dec7146107935780631f12a62e146107bb5780632656227d146107e35780632c009fa2146108135780632d63f6931461084f57610557565b80630905f560116104a85780630905f5601461064f578063119fd98c14610679578063143489d0146106b5578063150b7a02146106f1578063160cbed71461072d57806318cfc2fb1461076957610557565b806301ffc9a71461055b57806302a251a31461059757806306f3f9e6146105c157806306fdde03146105e9578063082912791461061357610557565b36610557573073ffffffffffffffffffffffffffffffffffffffff16610508611707565b73ffffffffffffffffffffffffffffffffffffffff1614610555576040517fe90a651e00000000000000000000000000000000000000000000000000000000815260040160405180910390fd5b005b5f5ffd5b348015610566575f5ffd5b50610581600480360381019061057c91906171ba565b611715565b60405161058e91906171ff565b60405180910390f35b3480156105a2575f5ffd5b506105ab611726565b6040516105b89190617230565b60405180910390f35b3480156105cc575f5ffd5b506105e760048036038101906105e29190617273565b611734565b005b3480156105f4575f5ffd5b506105fd611748565b60405161060a919061730e565b60405180910390f35b34801561061e575f5ffd5b5061063960048036038101906106349190617273565b6117d8565b6040516106469190617230565b60405180910390f35b34801561065a575f5ffd5b506106636117ed565b60405161067091906171ff565b60405180910390f35b348015610684575f5ffd5b5061069f600480360381019061069a9190617351565b6117ff565b6040516106ac9190617230565b60405180910390f35b3480156106c0575f5ffd5b506106db60048036038101906106d69190617273565b611814565b6040516106e891906173bb565b60405180910390f35b3480156106fc575f5ffd5b506107176004803603810190610712919061752a565b61184f565b60405161072491906175b9565b60405180910390f35b348015610738575f5ffd5b50610753600480360381019061074e9190617867565b6118ce565b6040516107609190617230565b60405180910390f35b348015610774575f5ffd5b5061077d6119c4565b60405161078a9190617230565b60405180910390f35b34801561079e575f5ffd5b506107b960048036038101906107b49190617273565b6119ca565b005b3480156107c6575f5ffd5b506107e160048036038101906107dc919061791f565b611c2d565b005b6107fd60048036038101906107f89190617867565b611c6b565b60405161080a9190617230565b60405180910390f35b34801561081e575f5ffd5b506108396004803603810190610834919061795d565b611e15565b6040516108469190617230565b60405180910390f35b34801561085a575f5ffd5b5061087560048036038101906108709190617273565b611e7b565b6040516108829190617230565b60405180910390f35b348015610896575f5ffd5b5061089f611eb1565b6040516108ac9190617230565b60405180910390f35b3480156108c0575f5ffd5b506108c9611eb7565b6040516108d69190617997565b60405180910390f35b3480156108ea575f5ffd5b506108f3611edb565b6040516109009190617230565b60405180910390f35b348015610914575f5ffd5b5061091d611ee1565b60405161092a91906179d0565b60405180910390f35b34801561093e575f5ffd5b5061095960048036038101906109549190617a13565b611efb565b005b348015610966575f5ffd5b5061096f611f0f565b005b34801561097c575f5ffd5b506109976004803603810190610992919061795d565b6120db565b6040516109a49190617230565b60405180910390f35b3480156109b8575f5ffd5b506109d360048036038101906109ce919061795d565b6120f0565b6040516109e09190617230565b60405180910390f35b3480156109f4575f5ffd5b506109fd612105565b604051610a0a9190617230565b60405180910390f35b348015610a1e575f5ffd5b50610a396004803603810190610a349190617273565b612113565b604051610a4a959493929190617bf2565b60405180910390f35b348015610a5e575f5ffd5b50610a796004803603810190610a749190617273565b6122c4565b604051610a869190617c4a565b60405180910390f35b348015610a9a575f5ffd5b50610ab56004803603810190610ab0919061795d565b612302565b604051610ac29190617230565b60405180910390f35b348015610ad6575f5ffd5b50610af16004803603810190610aec9190617c63565b612317565b604051610afe91906171ff565b60405180910390f35b348015610b12575f5ffd5b50610b2d6004803603810190610b289190617867565b61237c565b604051610b3a9190617230565b60405180910390f35b348015610b4e575f5ffd5b50610b576123fc565b604051610b64919061730e565b60405180910390f35b348015610b78575f5ffd5b50610b936004803603810190610b8e9190617273565b6124b9565b604051610ba293929190617ca1565b60405180910390f35b348015610bb6575f5ffd5b50610bbf6124ec565b604051610bcc919061730e565b60405180910390f35b348015610be0575f5ffd5b50610bfb6004803603810190610bf69190617d0c565b612529565b604051610c089190617230565b60405180910390f35b348015610c1c575f5ffd5b50610c376004803603810190610c329190617da3565b612558565b604051610c449190617230565b60405180910390f35b348015610c58575f5ffd5b50610c736004803603810190610c6e9190617e85565b612648565b604051610c809190617230565b60405180910390f35b348015610c94575f5ffd5b50610caf6004803603810190610caa919061795d565b612769565b604051610cbf9493929190617f25565b60405180910390f35b348015610cd3575f5ffd5b50610cee6004803603810190610ce99190617273565b612874565b604051610cfb9190617230565b60405180910390f35b348015610d0f575f5ffd5b50610d18612887565b604051610d2591906173bb565b60405180910390f35b348015610d39575f5ffd5b50610d546004803603810190610d4f919061795d565b6128ac565b604051610d6191906173bb565b60405180910390f35b348015610d75575f5ffd5b50610d906004803603810190610d8b9190618006565b6128dc565b604051610d9d9190617230565b60405180910390f35b348015610db1575f5ffd5b50610dcc6004803603810190610dc79190617a13565b612a29565b005b348015610dd9575f5ffd5b50610df46004803603810190610def91906180da565b612a3d565b604051610e019190617230565b60405180910390f35b348015610e15575f5ffd5b50610e306004803603810190610e2b9190618006565b612aa3565b604051610e3d9190617230565b60405180910390f35b348015610e51575f5ffd5b50610e5a612aba565b604051610e679190617230565b60405180910390f35b348015610e7b575f5ffd5b50610e84612ac0565b604051610e919190617230565b60405180910390f35b348015610ea5575f5ffd5b50610eae612ac6565b604051610ebb9190617230565b60405180910390f35b348015610ecf575f5ffd5b50610eea6004803603810190610ee5919061795d565b612acc565b604051610ef79190617230565b60405180910390f35b348015610f0b575f5ffd5b50610f14612b12565b604051610f27979695949392919061822d565b60405180910390f35b348015610f3b575f5ffd5b50610f566004803603810190610f5191906182af565b612bb7565b604051610f639190617230565b60405180910390f35b348015610f77575f5ffd5b50610f80612c29565b604051610f8d91906179d0565b60405180910390f35b348015610fa1575f5ffd5b50610fbc6004803603810190610fb7919061795d565b612cb4565b604051610fc99190617230565b60405180910390f35b348015610fdd575f5ffd5b50610fe6612cc9565b604051610ff39190617230565b60405180910390f35b348015611007575f5ffd5b50611022600480360381019061101d919061832f565b612cd1565b005b34801561102f575f5ffd5b5061104a6004803603810190611045919061836d565b612ce3565b6040516110579190617230565b60405180910390f35b34801561106b575f5ffd5b506110866004803603810190611081919061795d565b612cf8565b005b348015611093575f5ffd5b5061109c612d43565b6040516110a99190617230565b60405180910390f35b3480156110bd575f5ffd5b506110c6612d6f565b6040516110d39190617230565b60405180910390f35b3480156110e7575f5ffd5b5061110260048036038101906110fd9190618425565b612d75565b005b34801561110f575f5ffd5b5061112a60048036038101906111259190617867565b612d89565b6040516111379190617230565b60405180910390f35b34801561114b575f5ffd5b5061116660048036038101906111619190617273565b612da0565b60405161117391906171ff565b60405180910390f35b348015611187575f5ffd5b506111a2600480360381019061119d9190617273565b612db1565b6040516111af9190617230565b60405180910390f35b3480156111c3575f5ffd5b506111de60048036038101906111d9919061791f565b612de7565b005b3480156111eb575f5ffd5b506111f4612e25565b6040516112019190617230565b60405180910390f35b348015611215575f5ffd5b5061121e612e33565b60405161122b9190617230565b60405180910390f35b34801561123f575f5ffd5b5061125a60048036038101906112559190618450565b612e39565b6040516112679190617230565b60405180910390f35b34801561127b575f5ffd5b5061129660048036038101906112919190618565565b613152565b6040516112a391906175b9565b60405180910390f35b3480156112b7575f5ffd5b506112d260048036038101906112cd9190617273565b6131d2565b6040516112df9190617230565b60405180910390f35b61130260048036038101906112fd9190618685565b6131e3565b005b34801561130f575f5ffd5b5061132a60048036038101906113259190617867565b61326c565b6040516113379190617230565b60405180910390f35b34801561134b575f5ffd5b506113546132a6565b60405161136191906173bb565b60405180910390f35b348015611375575f5ffd5b5061137e6132ce565b60405161138b91906173bb565b60405180910390f35b34801561139f575f5ffd5b506113a86132f3565b6040516113b5919061730e565b60405180910390f35b3480156113c9575f5ffd5b506113d2613330565b6040516113df9190617997565b60405180910390f35b3480156113f3575f5ffd5b506113fc613354565b60405161140d9594939291906186f6565b60405180910390f35b348015611421575f5ffd5b5061143c60048036038101906114379190618780565b613377565b005b348015611449575f5ffd5b5061145261338b565b60405161145f9190617230565b60405180910390f35b348015611473575f5ffd5b5061148e600480360381019061148991906187ab565b613392565b60405161149b9190617230565b60405180910390f35b3480156114af575f5ffd5b506114ca60048036038101906114c59190617273565b6133ad565b6040516114d791906171ff565b60405180910390f35b3480156114eb575f5ffd5b5061150660048036038101906115019190617273565b61364d565b005b348015611513575f5ffd5b5061151c613661565b005b348015611529575f5ffd5b50611544600480360381019061153f91906187e9565b61368b565b60405161155191906175b9565b60405180910390f35b348015611565575f5ffd5b50611580600480360381019061157b919061795d565b61370b565b005b34801561158d575f5ffd5b506115a860048036038101906115a39190617351565b6138ee565b6040516115b59190617230565b60405180910390f35b3480156115c9575f5ffd5b506115e460048036038101906115df9190617273565b613903565b6040516115f19190617230565b60405180910390f35b348015611605575f5ffd5b5061160e613914565b60405161161b91906188d7565b60405180910390f35b34801561162f575f5ffd5b5061164a6004803603810190611645919061795d565b613938565b6040516116579190617230565b60405180910390f35b34801561166b575f5ffd5b5061167461394d565b6040516116819190618910565b60405180910390f35b348015611695575f5ffd5b506116b060048036038101906116ab9190617273565b613974565b6040516116c296959493929190618938565b60405180910390f35b3480156116d6575f5ffd5b506116f160048036038101906116ec9190617273565b613a77565b6040516116fe91906171ff565b60405180910390f35b5f611710613a94565b905090565b5f61171f82613abc565b9050919050565b5f61172f613c0e565b905090565b61173c613c2d565b61174581613d22565b50565b606060038054611757906189cb565b80601f0160208091040260200160405190810160405280929190818152602001828054611783906189cb565b80156117ce5780601f106117a5576101008083540402835291602001916117ce565b820191905f5260205f20905b8154815290600101906020018083116117b157829003601f168201915b5050505050905090565b6018602052805f5260405f205f915090505481565b601f5f9054906101000a900460ff1681565b6012602052805f5260405f205f915090505481565b5f60045f8381526020019081526020015f205f015f9054906101000a900473ffffffffffffffffffffffffffffffffffffffff169050919050565b5f3073ffffffffffffffffffffffffffffffffffffffff1661186f611707565b73ffffffffffffffffffffffffffffffffffffffff16146118bc576040517fe90a651e00000000000000000000000000000000000000000000000000000000815260040160405180910390fd5b63150b7a0260e01b9050949350505050565b5f5f6118dc86868686612d89565b90506118f1816118ec6004613de4565b613e08565b505f6119008288888888613e73565b90505f8165ffffffffffff1614611985578060045f8481526020019081526020015f206001015f6101000a81548165ffffffffffff021916908365ffffffffffff1602179055507f9a2e42fd6722813d69113e7d0079d3d940171428df7373df9c7f7617cfda28928282604051611978929190618a2b565b60405180910390a16119b7565b6040517f90884a4600000000000000000000000000000000000000000000000000000000815260040160405180910390fd5b8192505050949350505050565b60175481565b60145f9054906101000a900473ffffffffffffffffffffffffffffffffffffffff1673ffffffffffffffffffffffffffffffffffffffff163373ffffffffffffffffffffffffffffffffffffffff1614611a50576040517f82b4290000000000000000000000000000000000000000000000000000000000815260040160405180910390fd5b805f600f5f8381526020019081526020015f206002015403611a9e576040517f635e873700000000000000000000000000000000000000000000000000000000815260040160405180910390fd5b5f611aa8836122c4565b90505f6007811115611abd57611abc617a3e565b5b816007811115611ad057611acf617a3e565b5b14158015611b03575060016007811115611aed57611aec617a3e565b5b816007811115611b0057611aff617a3e565b5b14155b8015611b34575060046007811115611b1e57611b1d617a3e565b5b816007811115611b3157611b30617a3e565b5b14155b15611b6b576040517fb437280300000000000000000000000000000000000000000000000000000000815260040160405180910390fd5b6202a300611b78846131d2565b611b829190618a7f565b421115611bbb576040517f3ed44aba00000000000000000000000000000000000000000000000000000000815260040160405180910390fd5b600160155f8581526020019081526020015f205f6101000a81548160ff0219169083151502179055503373ffffffffffffffffffffffffffffffffffffffff16837fc2131db10d833d6b93ae553fa450ea0f6c0c2dfb0160cb3309468bf72718f3eb60405160405180910390a3505050565b8060125f846005811115611c4457611c43617a3e565b5b6005811115611c5657611c55617a3e565b5b81526020019081526020015f20819055505050565b5f5f611c798686868661326c565b905060155f8281526020019081526020015f205f9054906101000a900460ff1615611cd0576040517f36eb5e0b00000000000000000000000000000000000000000000000000000000815260040160405180910390fd5b6001600f5f8381526020019081526020015f2060030160146101000a81548160ff0219169083151502179055505f600f5f8381526020019081526020015f206003015f9054906101000a900473ffffffffffffffffffffffffffffffffffffffff169050601d5f8273ffffffffffffffffffffffffffffffffffffffff1673ffffffffffffffffffffffffffffffffffffffff1681526020019081526020015f205f815480929190611d8190618ab2565b9190505550611d91816001613e8c565b601954601b5f8373ffffffffffffffffffffffffffffffffffffffff1673ffffffffffffffffffffffffffffffffffffffff1681526020019081526020015f205f828254611ddf9190618a7f565b9250508190555060225f815480929190611df890618ab2565b9190505550611e098787878761401c565b92505050949350505050565b5f60115f8373ffffffffffffffffffffffffffffffffffffffff1673ffffffffffffffffffffffffffffffffffffffff1681526020019081526020015f2054611e6a83600143611e659190618af9565b613392565b611e749190618a7f565b9050919050565b5f60045f8381526020019081526020015f205f0160149054906101000a900465ffffffffffff1665ffffffffffff169050919050565b60205481565b7f3e83946653575f9a39005e1545185629e92736b7528ab20ca3816f315424a81181565b60235481565b5f600d5f9054906101000a900465ffffffffffff16905090565b611f03613c2d565b611f0c816141f9565b50565b5f601b5f3373ffffffffffffffffffffffffffffffffffffffff1673ffffffffffffffffffffffffffffffffffffffff1681526020019081526020015f205490505f8103611f89576040517f3fb087f400000000000000000000000000000000000000000000000000000000815260040160405180910390fd5b5f601b5f3373ffffffffffffffffffffffffffffffffffffffff1673ffffffffffffffffffffffffffffffffffffffff1681526020019081526020015f20819055507f000000000000000000000000000000000000000000000000000000000000000073ffffffffffffffffffffffffffffffffffffffff166323b872dd60165f9054906101000a900473ffffffffffffffffffffffffffffffffffffffff1633846040518463ffffffff1660e01b815260040161204993929190618b2c565b6020604051808303815f875af1158015612065573d5f5f3e3d5ffd5b505050506040513d601f19601f820116820180604052508101906120899190618b8b565b503373ffffffffffffffffffffffffffffffffffffffff167fdf29796aad820e4bb192f3a8d631b76519bcd2cbe77cc85af20e9df53cece086826040516120d09190617230565b60405180910390a250565b601d602052805f5260405f205f915090505481565b601e602052805f5260405f205f915090505481565b5f61210e61426c565b905090565b61211b6170f7565b5f5f5f5f600f5f8781526020019081526020015f206040518060c00160405290815f82015f9054906101000a900460ff16600581111561215e5761215d617a3e565b5b60058111156121705761216f617a3e565b5b8152602001600182018054612184906189cb565b80601f01602080910402602001604051908101604052809291908181526020018280546121b0906189cb565b80156121fb5780601f106121d2576101008083540402835291602001916121fb565b820191905f5260205f20905b8154815290600101906020018083116121de57829003601f168201915b5050505050815260200160028201548152602001600382015f9054906101000a900473ffffffffffffffffffffffffffffffffffffffff1673ffffffffffffffffffffffffffffffffffffffff1673ffffffffffffffffffffffffffffffffffffffff1681526020016003820160149054906101000a900460ff161515151581526020016003820160159054906101000a900460ff16151515158152505094506122a4866122c4565b93506122af866124b9565b80935081945082955050505091939590929450565b5f60155f8381526020019081526020015f205f9054906101000a900460ff16156122f157600290506122fd565b6122fa8261428e565b90505b919050565b601c602052805f5260405f205f915090505481565b5f60095f8481526020019081526020015f206003015f8373ffffffffffffffffffffffffffffffffffffffff1673ffffffffffffffffffffffffffffffffffffffff1681526020019081526020015f205f9054906101000a900460ff16905092915050565b5f5f61238a86868686612d89565b90505f612395614443565b90506123a1828261444a565b6123e45781816040517f8fe5d8a90000000000000000000000000000000000000000000000000000000081526004016123db929190618bb6565b60405180910390fd5b6123f0878787876144c1565b92505050949350505050565b606061240661394d565b73ffffffffffffffffffffffffffffffffffffffff16634bf5d7e96040518163ffffffff1660e01b81526004015f60405180830381865afa92505050801561247057506040513d5f823e3d601f19601f8201168201806040525081019061246d9190618c4b565b60015b6124b1576040518060400160405280601d81526020017f6d6f64653d626c6f636b6e756d6265722666726f6d3d64656661756c7400000081525090506124b6565b809150505b90565b5f5f5f5f60095f8681526020019081526020015f209050805f015481600101548260020154935093509350509193909250565b60606040518060400160405280600181526020017f3100000000000000000000000000000000000000000000000000000000000000815250905090565b5f5f612533614443565b905061254f84828560405180602001604052805f8152506144d8565b91505092915050565b5f6125aa88888888888080601f0160208091040260200160405190810160405280939291908181526020018383808284375f81840152601f19601f8201169050808301925050505050505087876144f7565b6125eb57856040517f94ab6c070000000000000000000000000000000000000000000000000000000081526004016125e291906173bb565b60405180910390fd5b61263b88878988888080601f0160208091040260200160405190810160405280939291908181526020018383808284375f81840152601f19601f820116905080830192505050505050508761457f565b9050979650505050505050565b5f5f3390505f6126608261265b8a611e7b565b613392565b90505f8111156126e3575f670de0b6b3a764000082601a546126829190618c92565b61268c9190618d00565b905080601b5f8573ffffffffffffffffffffffffffffffffffffffff1673ffffffffffffffffffffffffffffffffffffffff1681526020019081526020015f205f8282546126da9190618a7f565b92505081905550505b60245f8154809291906126f590618ab2565b9190505550878273ffffffffffffffffffffffffffffffffffffffff167f885280229a2113708b3f5651a9096f15261146cbd1c5447dad804a50612b61ce89848a8a6040516127479493929190618d6b565b60405180910390a361275c8888888888614689565b9250505095945050505050565b5f5f5f5f601c5f8673ffffffffffffffffffffffffffffffffffffffff1673ffffffffffffffffffffffffffffffffffffffff1681526020019081526020015f2054601d5f8773ffffffffffffffffffffffffffffffffffffffff1673ffffffffffffffffffffffffffffffffffffffff1681526020019081526020015f2054601e5f8873ffffffffffffffffffffffffffffffffffffffff1673ffffffffffffffffffffffffffffffffffffffff1681526020019081526020015f2054601b5f8973ffffffffffffffffffffffffffffffffffffffff1673ffffffffffffffffffffffffffffffffffffffff1681526020019081526020015f205493509350935093509193509193565b5f612880600a836146f1565b9050919050565b60165f9054906101000a900473ffffffffffffffffffffffffffffffffffffffff1681565b6010602052805f5260405f205f915054906101000a900473ffffffffffffffffffffffffffffffffffffffff1681565b5f60145f9054906101000a900473ffffffffffffffffffffffffffffffffffffffff1673ffffffffffffffffffffffffffffffffffffffff163373ffffffffffffffffffffffffffffffffffffffff161415801561297857506103e8601c5f3373ffffffffffffffffffffffffffffffffffffffff1673ffffffffffffffffffffffffffffffffffffffff1681526020019081526020015f2054105b156129af576040517f82b4290000000000000000000000000000000000000000000000000000000000815260040160405180910390fd5b5f6129cd86868686600260405180602001604052805f815250612e39565b90506001601f5f6101000a81548160ff02191690831515021790555080602081905550807f5fa9abb83376468762d4533d9cd0a8f21edf0033fa06b47347578fb235a92edc60405160405180910390a280915050949350505050565b612a31613c2d565b612a3a8161475a565b50565b5f5f612a47614443565b9050612a9886828787878080601f0160208091040260200160405190810160405280939291908181526020018383808284375f81840152601f19601f820116905080830192505050505050506144d8565b915050949350505050565b5f612ab0858585856147cd565b9050949350505050565b601a5481565b60245481565b60225481565b5f60025f8373ffffffffffffffffffffffffffffffffffffffff1673ffffffffffffffffffffffffffffffffffffffff1681526020019081526020015f20549050919050565b5f6060805f5f5f6060612b236148c3565b612b2b6148fd565b46305f5f1b5f67ffffffffffffffff811115612b4a57612b49617406565b5b604051908082528060200260200182016040528015612b785781602001602082028036833780820191505090505b507f0f00000000000000000000000000000000000000000000000000000000000000959493929190965096509650965096509650965090919293949596565b5f612bc485858585614938565b612c0557826040517f94ab6c07000000000000000000000000000000000000000000000000000000008152600401612bfc91906173bb565b60405180910390fd5b612c1f85848660405180602001604052805f8152506144d8565b9050949350505050565b5f612c3261394d565b73ffffffffffffffffffffffffffffffffffffffff166391ddadf46040518163ffffffff1660e01b8152600401602060405180830381865afa925050508015612c9957506040513d601f19601f82011682018060405250810190612c969190618dbd565b60015b612cac57612ca56149ac565b9050612cb1565b809150505b90565b601b602052805f5260405f205f915090505481565b5f6064905090565b8160198190555080601a819055505050565b5f612cef8484846149bb565b90509392505050565b612d00613c2d565b8060145f6101000a81548173ffffffffffffffffffffffffffffffffffffffff021916908373ffffffffffffffffffffffffffffffffffffffff16021790555050565b5f612d4e600a614a46565b79ffffffffffffffffffffffffffffffffffffffffffffffffffff16905090565b60215481565b612d7d613c2d565b612d8681614aa8565b50565b5f612d968585858561326c565b9050949350505050565b5f612daa82614b45565b9050919050565b5f60045f8381526020019081526020015f206001015f9054906101000a900465ffffffffffff1665ffffffffffff169050919050565b8060135f846005811115612dfe57612dfd617a3e565b5b6005811115612e1057612e0f617a3e565b5b81526020019081526020015f20819055505050565b5f612e2e614b4f565b905090565b60195481565b5f5f60125f856005811115612e5157612e50617a3e565b5b6005811115612e6357612e62617a3e565b5b81526020019081526020015f2054905080612e8a33600143612e859190618af9565b613392565b1015612ec2576040517fcabeb65500000000000000000000000000000000000000000000000000000000815260040160405180910390fd5b60016005811115612ed657612ed5617a3e565b5b846005811115612ee957612ee8617a3e565b5b03612f8c575f5f90505f5f90505b8851811015612f3557888181518110612f1357612f12618de8565b5b602002602001015182612f269190618a7f565b91508080600101915050612ef7565b50601754811115612f72576040517f869fe18200000000000000000000000000000000000000000000000000000000815260040160405180910390fd5b8060185f60215481526020019081526020015f2081905550505b5f612f9989898989612aa3565b90506040518060c00160405280866005811115612fb957612fb8617a3e565b5b81526020018581526020014281526020013373ffffffffffffffffffffffffffffffffffffffff1681526020015f151581526020015f1515815250600f5f8381526020019081526020015f205f820151815f015f6101000a81548160ff0219169083600581111561302d5761302c617a3e565b5b021790555060208201518160010190816130479190618fac565b50604082015181600201556060820151816003015f6101000a81548173ffffffffffffffffffffffffffffffffffffffff021916908373ffffffffffffffffffffffffffffffffffffffff16021790555060808201518160030160146101000a81548160ff02191690831515021790555060a08201518160030160156101000a81548160ff02191690831515021790555090505060215f8154809291906130ed90618ab2565b91905055503373ffffffffffffffffffffffffffffffffffffffff16817f12d52896e277d804a0a9a7e5799997e3b7b7f062f669a6f65b9b17cdd1a73df0878960405161313b92919061907b565b60405180910390a380925050509695505050505050565b5f3073ffffffffffffffffffffffffffffffffffffffff16613172611707565b73ffffffffffffffffffffffffffffffffffffffff16146131bf576040517fe90a651e00000000000000000000000000000000000000000000000000000000815260040160405180910390fd5b63bc197c8160e01b905095945050505050565b5f6131dc82614b58565b9050919050565b6131eb613c2d565b5f5f8573ffffffffffffffffffffffffffffffffffffffff168585856040516132159291906190d7565b5f6040518083038185875af1925050503d805f811461324f576040519150601f19603f3d011682016040523d82523d5f602084013e613254565b606091505b50915091506132638282614b9c565b50505050505050565b5f8484848460405160200161328494939291906192a4565b604051602081830303815290604052805190602001205f1c9050949350505050565b5f600b5f9054906101000a900473ffffffffffffffffffffffffffffffffffffffff16905090565b60145f9054906101000a900473ffffffffffffffffffffffffffffffffffffffff1681565b60606040518060400160405280602081526020017f737570706f72743d627261766f2671756f72756d3d666f722c6162737461696e815250905090565b7ff2aad550cf55f045cb27e9c559f9889fdfb6e6cdaa032301d6ea397784ae51d781565b5f5f5f5f5f6021546022546023546024545f945094509450945094509091929394565b61337f613c2d565b61338881614bc0565b50565b6202a30081565b5f6133a583836133a0614c79565b6149bb565b905092915050565b5f5f600f5f8481526020019081526020015f206040518060c00160405290815f82015f9054906101000a900460ff1660058111156133ee576133ed617a3e565b5b6005811115613400576133ff617a3e565b5b8152602001600182018054613414906189cb565b80601f0160208091040260200160405190810160405280929190818152602001828054613440906189cb565b801561348b5780601f106134625761010080835404028352916020019161348b565b820191905f5260205f20905b81548152906001019060200180831161346e57829003601f168201915b5050505050815260200160028201548152602001600382015f9054906101000a900473ffffffffffffffffffffffffffffffffffffffff1673ffffffffffffffffffffffffffffffffffffffff1673ffffffffffffffffffffffffffffffffffffffff1681526020016003820160149054906101000a900460ff161515151581526020016003820160159054906101000a900460ff16151515158152505090505f60135f835f0151600581111561354557613544617a3e565b5b600581111561355757613556617a3e565b5b81526020019081526020015f205490505f5f5f613573876124b9565b9250925092505f8183856135879190618a7f565b6135919190618a7f565b90505f7f000000000000000000000000000000000000000000000000000000000000000073ffffffffffffffffffffffffffffffffffffffff166318160ddd6040518163ffffffff1660e01b8152600401602060405180830381865afa1580156135fd573d5f5f3e3d5ffd5b505050506040513d601f19601f820116820180604052508101906136219190619310565b9050858161362f9190618c92565b6127108361363d9190618c92565b1015975050505050505050919050565b613655613c2d565b61365e81614c8f565b50565b613669613c2d565b5f601f5f6101000a81548160ff0219169083151502179055505f602081905550565b5f3073ffffffffffffffffffffffffffffffffffffffff166136ab611707565b73ffffffffffffffffffffffffffffffffffffffff16146136f8576040517fe90a651e00000000000000000000000000000000000000000000000000000000815260040160405180910390fd5b63f23a6e6160e01b905095945050505050565b5f60105f3373ffffffffffffffffffffffffffffffffffffffff1673ffffffffffffffffffffffffffffffffffffffff1681526020019081526020015f205f9054906101000a900473ffffffffffffffffffffffffffffffffffffffff1690505f73ffffffffffffffffffffffffffffffffffffffff168173ffffffffffffffffffffffffffffffffffffffff1614613807576137b4336001436137af9190618af9565b613392565b60115f8373ffffffffffffffffffffffffffffffffffffffff1673ffffffffffffffffffffffffffffffffffffffff1681526020019081526020015f205f8282546137ff9190618af9565b925050819055505b8160105f3373ffffffffffffffffffffffffffffffffffffffff1673ffffffffffffffffffffffffffffffffffffffff1681526020019081526020015f205f6101000a81548173ffffffffffffffffffffffffffffffffffffffff021916908373ffffffffffffffffffffffffffffffffffffffff160217905550613898336001436138939190618af9565b613392565b60115f8473ffffffffffffffffffffffffffffffffffffffff1673ffffffffffffffffffffffffffffffffffffffff1681526020019081526020015f205f8282546138e39190618a7f565b925050819055505050565b6013602052805f5260405f205f915090505481565b5f61390d82614cd4565b9050919050565b7f000000000000000000000000000000000000000000000000000000000000000081565b6011602052805f5260405f205f915090505481565b5f7f0000000000000000000000000000000000000000000000000000000000000000905090565b600f602052805f5260405f205f91509050805f015f9054906101000a900460ff16908060010180546139a5906189cb565b80601f01602080910402602001604051908101604052809291908181526020018280546139d1906189cb565b8015613a1c5780601f106139f357610100808354040283529160200191613a1c565b820191905f5260205f20905b8154815290600101906020018083116139ff57829003601f168201915b505050505090806002015490806003015f9054906101000a900473ffffffffffffffffffffffffffffffffffffffff16908060030160149054906101000a900460ff16908060030160159054906101000a900460ff16905086565b6015602052805f5260405f205f915054906101000a900460ff1681565b5f600b5f9054906101000a900473ffffffffffffffffffffffffffffffffffffffff16905090565b5f7fcdbdfcee000000000000000000000000000000000000000000000000000000007bffffffffffffffffffffffffffffffffffffffffffffffffffffffff1916827bffffffffffffffffffffffffffffffffffffffffffffffffffffffff19161480613b8f575063a8f8a66860e01b7fcdbdfcee00000000000000000000000000000000000000000000000000000000187bffffffffffffffffffffffffffffffffffffffffffffffffffffffff1916827bffffffffffffffffffffffffffffffffffffffffffffffffffffffff1916145b80613bf757507f4e2312e0000000000000000000000000000000000000000000000000000000007bffffffffffffffffffffffffffffffffffffffffffffffffffffffff1916827bffffffffffffffffffffffffffffffffffffffffffffffffffffffff1916145b80613c075750613c0682614d74565b5b9050919050565b5f600860069054906101000a900463ffffffff1663ffffffff16905090565b613c35614443565b73ffffffffffffffffffffffffffffffffffffffff16613c53611707565b73ffffffffffffffffffffffffffffffffffffffff1614613cb257613c76614443565b6040517f47096e47000000000000000000000000000000000000000000000000000000008152600401613ca991906173bb565b60405180910390fd5b3073ffffffffffffffffffffffffffffffffffffffff16613cd1611707565b73ffffffffffffffffffffffffffffffffffffffff1614613d20575f613cf5614ddd565b604051613d039291906190d7565b604051809103902090505b80613d196005614de9565b03613d0e57505b565b5f613d2b612cc9565b905080821115613d745781816040517f243e5445000000000000000000000000000000000000000000000000000000008152600401613d6b92919061933b565b60405180910390fd5b5f613d7d612d43565b9050613da4613d8a612c29565b613d9385614f17565b600a614f849092919063ffffffff16565b50507f0553476bf02ef2726e8ce5ced78d63e26e602e4a2257b1f559418e24b46339978184604051613dd792919061933b565b60405180910390a1505050565b5f816007811115613df857613df7617a3e565b5b60ff166001901b5f1b9050919050565b5f5f613e13846122c4565b90505f5f1b83613e2283613de4565b1603613e69578381846040517f31b75e4d000000000000000000000000000000000000000000000000000000008152600401613e6093929190619362565b60405180910390fd5b8091505092915050565b5f613e818686868686614f9f565b905095945050505050565b5f601c5f8473ffffffffffffffffffffffffffffffffffffffff1673ffffffffffffffffffffffffffffffffffffffff1681526020019081526020015f205490508115613f2c576064601c5f8573ffffffffffffffffffffffffffffffffffffffff1673ffffffffffffffffffffffffffffffffffffffff1681526020019081526020015f205f828254613f209190618a7f565b92505081905550613f8a565b60328111613f3a575f613f48565b603281613f479190618af9565b5b601c5f8573ffffffffffffffffffffffffffffffffffffffff1673ffffffffffffffffffffffffffffffffffffffff1681526020019081526020015f20819055505b8273ffffffffffffffffffffffffffffffffffffffff167f5b88a2e3fc1a53234357ab78c104df11c33ccfa79886793654565ad70b8afb6e82601c5f8773ffffffffffffffffffffffffffffffffffffffff1673ffffffffffffffffffffffffffffffffffffffff1681526020019081526020015f205460405161400f92919061933b565b60405180910390a2505050565b5f5f61402a86868686612d89565b905061404a8161403a6005613de4565b6140446004613de4565b17613e08565b50600160045f8381526020019081526020015f205f01601e6101000a81548160ff0219169083151502179055503073ffffffffffffffffffffffffffffffffffffffff16614096611707565b73ffffffffffffffffffffffffffffffffffffffff161461414f575f5f90505b865181101561414d573073ffffffffffffffffffffffffffffffffffffffff168782815181106140e9576140e8618de8565b5b602002602001015173ffffffffffffffffffffffffffffffffffffffff16036141425761414185828151811061412257614121618de8565b5b60200260200101518051906020012060056151a590919063ffffffff16565b5b8060010190506140b6565b505b61415c818787878761529d565b3073ffffffffffffffffffffffffffffffffffffffff1661417b611707565b73ffffffffffffffffffffffffffffffffffffffff16141580156141a657506141a460056152b1565b155b156141b6576141b5600561531d565b5b7f712ae1383f79ac853f8d882153778e0260ef8f03b504e2866e0593e04d2b291f816040516141e59190617230565b60405180910390a180915050949350505050565b7f7ca4ac117ed3cdce75c1161d8207c440389b1a15d69d096831664657c07dafc2600d5f9054906101000a900465ffffffffffff168260405161423d9291906193da565b60405180910390a180600d5f6101000a81548165ffffffffffff021916908365ffffffffffff16021790555050565b5f60085f9054906101000a900465ffffffffffff1665ffffffffffff16905090565b5f5f61429983615393565b9050600560078111156142af576142ae617a3e565b5b8160078111156142c2576142c1617a3e565b5b146142d0578091505061443e565b5f600c5f8581526020019081526020015f20549050600b5f9054906101000a900473ffffffffffffffffffffffffffffffffffffffff1673ffffffffffffffffffffffffffffffffffffffff1663584b153e826040518263ffffffff1660e01b815260040161433f9190617997565b602060405180830381865afa15801561435a573d5f5f3e3d5ffd5b505050506040513d601f19601f8201168201806040525081019061437e9190618b8b565b1561438e5760059250505061443e565b600b5f9054906101000a900473ffffffffffffffffffffffffffffffffffffffff1673ffffffffffffffffffffffffffffffffffffffff16632ab0f529826040518263ffffffff1660e01b81526004016143e89190617997565b602060405180830381865afa158015614403573d5f5f3e3d5ffd5b505050506040513d601f19601f820116820180604052508101906144279190618b8b565b156144375760079250505061443e565b6002925050505b919050565b5f33905090565b5f5f600781111561445e5761445d617a3e565b5b614467846122c4565b600781111561447957614478617a3e565b5b1480156144b9575061448a83611814565b73ffffffffffffffffffffffffffffffffffffffff168273ffffffffffffffffffffffffffffffffffffffff16145b905092915050565b5f6144ce858585856154ea565b9050949350505050565b5f6144ed858585856144e8614c79565b61457f565b9050949350505050565b5f6145738561456d7f3e83946653575f9a39005e1545185629e92736b7528ab20ca3816f315424a8118a8a8a61452c8c6155c1565b8b805190602001208b805190602001206040516020016145529796959493929190619401565b60405160208183030381529060405280519060200120615614565b8461562d565b90509695505050505050565b5f6145938661458e6001613de4565b613e08565b505f6145a8866145a289611e7b565b856149bb565b90505f6145b888888885886156d9565b90505f84510361461b578673ffffffffffffffffffffffffffffffffffffffff167fb8e138887d0aa13bab447e82de9d5c1777041ecd21ca36ba824ff1e6c07ddda48988848960405161460e949392919061946e565b60405180910390a2614672565b8673ffffffffffffffffffffffffffffffffffffffff167fe2babfbac5889a709b63bb7f598b324e08bc5a4fb9ec647fb3cbc9ec07eb87128988848989604051614669959493929190619500565b60405180910390a25b61467b886158ce565b809250505095945050505050565b5f5f614693614443565b90506146e587828888888080601f0160208091040260200160405190810160405280939291908181526020018383808284375f81840152601f19601f820116905080830192505050505050508761457f565b91505095945050505050565b5f5f5f6146fd856158da565b9250925050838265ffffffffffff1611156147325761472d61471e85615969565b866159c290919063ffffffff16565b614734565b805b79ffffffffffffffffffffffffffffffffffffffffffffffffffff169250505092915050565b7fc565b045403dc03c2eea82b81a0465edad9e2e7fc4d97e11421c209da93d7a9360085f9054906101000a900465ffffffffffff168260405161479e92919061955f565b60405180910390a18060085f6101000a81548165ffffffffffff021916908365ffffffffffff16021790555050565b5f5f6147d7614443565b90506147e38184615ab2565b61482457806040517fd9b3955700000000000000000000000000000000000000000000000000000000815260040161481b91906173bb565b60405180910390fd5b5f61482d612e25565b90505f8111156148aa575f61485d836001614846612c29565b6148509190619586565b65ffffffffffff16613392565b9050818110156148a8578281836040517fc242ee1600000000000000000000000000000000000000000000000000000000815260040161489f939291906195bf565b60405180910390fd5b505b6148b78787878786615b98565b92505050949350505050565b60606148f85f7f0000000000000000000000000000000000000000000000000000000000000000615e1d90919063ffffffff16565b905090565b606061493360017f0000000000000000000000000000000000000000000000000000000000000000615e1d90919063ffffffff16565b905090565b5f6149a28361499c7ff2aad550cf55f045cb27e9c559f9889fdfb6e6cdaa032301d6ea397784ae51d788888861496d8a6155c1565b6040516020016149819594939291906195f4565b60405160208183030381529060405280519060200120615614565b8461562d565b9050949350505050565b5f6149b643615969565b905090565b5f6149c461394d565b73ffffffffffffffffffffffffffffffffffffffff16633a46b1a885856040518363ffffffff1660e01b81526004016149fe929190619645565b602060405180830381865afa158015614a19573d5f5f3e3d5ffd5b505050506040513d601f19601f82011682018060405250810190614a3d9190619310565b90509392505050565b5f5f825f018054905090505f8114614a9e57614a70835f01600183614a6b9190618af9565b615eca565b5f0160069054906101000a900479ffffffffffffffffffffffffffffffffffffffffffffffffffff16614aa0565b5f5b915050919050565b7f08f74ea46ef7894f65eabfb5e6e695de773a000b47c529ab559178069b226401600b5f9054906101000a900473ffffffffffffffffffffffffffffffffffffffff1682604051614afa92919061966c565b60405180910390a180600b5f6101000a81548173ffffffffffffffffffffffffffffffffffffffff021916908373ffffffffffffffffffffffffffffffffffffffff16021790555050565b5f60019050919050565b5f600754905090565b5f614b95614b6583615edc565b600e5f8581526020019081526020015f205f9054906101000a900465ffffffffffff1665ffffffffffff16615f46565b9050919050565b606082614bb157614bac82615f5c565b614bb9565b819050614bba565b5b92915050565b5f8163ffffffff1603614c0a575f6040517ff1cfbf05000000000000000000000000000000000000000000000000000000008152600401614c0191906196cc565b60405180910390fd5b7f7e3f7f0708a84de9203036abaa450dccc85ad5ff52f78c170f3edb55cf5e8828600860069054906101000a900463ffffffff1682604051614c4d929190619715565b60405180910390a180600860066101000a81548163ffffffff021916908363ffffffff16021790555050565b606060405180602001604052805f815250905090565b7fccb45da8d5717e6c4544694297c4ba5cf151d455c9bb0ed4fc7a38411bc0546160075482604051614cc292919061933b565b60405180910390a18060078190555050565b5f614d6d614ce061394d565b73ffffffffffffffffffffffffffffffffffffffff16638e539e8c846040518263ffffffff1660e01b8152600401614d189190617230565b602060405180830381865afa158015614d33573d5f5f3e3d5ffd5b505050506040513d601f19601f82011682018060405250810190614d579190619310565b614d6084612874565b614d68612cc9565b615f9f565b9050919050565b5f7f01ffc9a7000000000000000000000000000000000000000000000000000000007bffffffffffffffffffffffffffffffffffffffffffffffffffffffff1916827bffffffffffffffffffffffffffffffffffffffffffffffffffffffff1916149050919050565b365f5f36915091509091565b5f5f825f015f9054906101000a90046fffffffffffffffffffffffffffffffff169050825f0160109054906101000a90046fffffffffffffffffffffffffffffffff166fffffffffffffffffffffffffffffffff16816fffffffffffffffffffffffffffffffff1603614e6157614e60603161607e565b5b826001015f826fffffffffffffffffffffffffffffffff166fffffffffffffffffffffffffffffffff1681526020019081526020015f20549150826001015f826fffffffffffffffffffffffffffffffff166fffffffffffffffffffffffffffffffff1681526020019081526020015f205f905560018101835f015f6101000a8154816fffffffffffffffffffffffffffffffff02191690836fffffffffffffffffffffffffffffffff16021790555050919050565b5f79ffffffffffffffffffffffffffffffffffffffffffffffffffff8016821115614f7c5760d0826040517f6dfcc650000000000000000000000000000000000000000000000000000000008152600401614f73929190619775565b60405180910390fd5b819050919050565b5f5f614f93855f01858561608f565b91509150935093915050565b5f5f600b5f9054906101000a900473ffffffffffffffffffffffffffffffffffffffff1673ffffffffffffffffffffffffffffffffffffffff1663f27a0c926040518163ffffffff1660e01b8152600401602060405180830381865afa15801561500b573d5f5f3e3d5ffd5b505050506040513d601f19601f8201168201806040525081019061502f9190619310565b90505f61503b84616383565b9050600b5f9054906101000a900473ffffffffffffffffffffffffffffffffffffffff1673ffffffffffffffffffffffffffffffffffffffff1663b1c5f4278888885f866040518663ffffffff1660e01b815260040161509f9594939291906197d7565b602060405180830381865afa1580156150ba573d5f5f3e3d5ffd5b505050506040513d601f19601f820116820180604052508101906150de9190619851565b600c5f8a81526020019081526020015f2081905550600b5f9054906101000a900473ffffffffffffffffffffffffffffffffffffffff1673ffffffffffffffffffffffffffffffffffffffff16638f2a0bb08888885f86886040518763ffffffff1660e01b81526004016151579695949392919061987c565b5f604051808303815f87803b15801561516e575f5ffd5b505af1158015615180573d5f5f3e3d5ffd5b5050505061519882426151939190618a7f565b615969565b9250505095945050505050565b5f825f0160109054906101000a90046fffffffffffffffffffffffffffffffff169050825f015f9054906101000a90046fffffffffffffffffffffffffffffffff166fffffffffffffffffffffffffffffffff16600182016fffffffffffffffffffffffffffffffff160361521f5761521e604161607e565b5b81836001015f836fffffffffffffffffffffffffffffffff166fffffffffffffffffffffffffffffffff1681526020019081526020015f208190555060018101835f0160106101000a8154816fffffffffffffffffffffffffffffffff02191690836fffffffffffffffffffffffffffffffff160217905550505050565b6152aa85858585856163a0565b5050505050565b5f815f015f9054906101000a90046fffffffffffffffffffffffffffffffff166fffffffffffffffffffffffffffffffff16825f0160109054906101000a90046fffffffffffffffffffffffffffffffff166fffffffffffffffffffffffffffffffff16149050919050565b5f815f015f6101000a8154816fffffffffffffffffffffffffffffffff02191690836fffffffffffffffffffffffffffffffff1602179055505f815f0160106101000a8154816fffffffffffffffffffffffffffffffff02191690836fffffffffffffffffffffffffffffffff16021790555050565b5f5f60045f8481526020019081526020015f2090505f815f01601e9054906101000a900460ff1690505f825f01601f9054906101000a900460ff16905081156153e257600793505050506154e5565b80156153f457600293505050506154e5565b5f6153fe86611e7b565b90505f810361544457856040517f6ad0607500000000000000000000000000000000000000000000000000000000815260040161543b9190617230565b60405180910390fd5b5f61544d612c29565b65ffffffffffff16905080821061546b575f955050505050506154e5565b5f615475886131d2565b905081811061548d57600196505050505050506154e5565b61549688616454565b15806154a857506154a688616498565b155b156154bc57600396505050505050506154e5565b5f6154c689612db1565b036154da57600496505050505050506154e5565b600596505050505050505b919050565b5f5f6154f8868686866164bf565b90505f600c5f8381526020019081526020015f205490505f5f1b81146155b457600b5f9054906101000a900473ffffffffffffffffffffffffffffffffffffffff1673ffffffffffffffffffffffffffffffffffffffff1663c4d252f5826040518263ffffffff1660e01b81526004016155729190617997565b5f604051808303815f87803b158015615589575f5ffd5b505af115801561559b573d5f5f3e3d5ffd5b50505050600c5f8381526020019081526020015f205f90555b8192505050949350505050565b5f60025f8373ffffffffffffffffffffffffffffffffffffffff1673ffffffffffffffffffffffffffffffffffffffff1681526020019081526020015f205f815480929190600101919050559050919050565b5f6156266156206165a1565b83616657565b9050919050565b5f5f8473ffffffffffffffffffffffffffffffffffffffff163b036156c4575f5f6156588585616697565b50915091505f60038111156156705761566f617a3e565b5b81600381111561568357615682617a3e565b5b1480156156bb57508573ffffffffffffffffffffffffffffffffffffffff168273ffffffffffffffffffffffffffffffffffffffff16145b925050506156d2565b6156cf8484846166ec565b90505b9392505050565b5f5f60095f8881526020019081526020015f209050806003015f8773ffffffffffffffffffffffffffffffffffffffff1673ffffffffffffffffffffffffffffffffffffffff1681526020019081526020015f205f9054906101000a900460ff161561577c57856040517f71c6af4900000000000000000000000000000000000000000000000000000000815260040161577391906173bb565b60405180910390fd5b6001816003015f8873ffffffffffffffffffffffffffffffffffffffff1673ffffffffffffffffffffffffffffffffffffffff1681526020019081526020015f205f6101000a81548160ff0219169083151502179055505f60028111156157e6576157e5617a3e565b5b60ff168560ff16036158105783815f015f8282546158049190618a7f565b925050819055506158c1565b6001600281111561582457615823617a3e565b5b60ff168560ff160361584f5783816001015f8282546158439190618a7f565b925050819055506158c0565b60028081111561586257615861617a3e565b5b60ff168560ff160361588d5783816002015f8282546158819190618a7f565b925050819055506158bf565b6040517f06b337c200000000000000000000000000000000000000000000000000000000815260040160405180910390fd5b5b5b8391505095945050505050565b6158d78161680b565b50565b5f5f5f5f845f018054905090505f81036158fd575f5f5f93509350935050615962565b5f615916865f016001846159119190618af9565b615eca565b90506001815f015f9054906101000a900465ffffffffffff16825f0160069054906101000a900479ffffffffffffffffffffffffffffffffffffffffffffffffffff1694509450945050505b9193909250565b5f65ffffffffffff80168211156159ba576030826040517f6dfcc6500000000000000000000000000000000000000000000000000000000081526004016159b1929190619929565b60405180910390fd5b819050919050565b5f5f835f018054905090505f5f90505f8290506005831115615a46575f6159e8846168fd565b846159f39190618af9565b9050615a01875f0182615eca565b5f015f9054906101000a900465ffffffffffff1665ffffffffffff168665ffffffffffff161015615a3457809150615a44565b600181615a419190618a7f565b92505b505b5f615a55875f01878585616a97565b90505f8114615aa457615a76875f01600183615a719190618af9565b615eca565b5f0160069054906101000a900479ffffffffffffffffffffffffffffffffffffffffffffffffffff16615aa6565b5f5b94505050505092915050565b5f5f825190506034811015615acb576001915050615b92565b5f615ad98460348403616b0c565b90507f2370726f706f7365723d0000000000000000000000000000000000000000000075ffffffffffffffffffffffffffffffffffffffffffff19168175ffffffffffffffffffffffffffffffffffffffffffff191614615b3f57600192505050615b92565b5f5f615b4f86602a860386616b1c565b91509150811580615b8b57508673ffffffffffffffffffffffffffffffffffffffff168173ffffffffffffffffffffffffffffffffffffffff16145b9450505050505b92915050565b5f615bac8686868680519060200120612d89565b905084518651141580615bc157508351865114155b80615bcc57505f8651145b15615c15578551845186516040517f447b05d0000000000000000000000000000000000000000000000000000000008152600401615c0c93929190617ca1565b60405180910390fd5b5f60045f8381526020019081526020015f205f0160149054906101000a900465ffffffffffff1665ffffffffffff1614615c945780615c53826122c4565b5f5f1b6040517f31b75e4d000000000000000000000000000000000000000000000000000000008152600401615c8b93929190619362565b60405180910390fd5b5f615c9d612105565b615ca5612c29565b65ffffffffffff16615cb79190618a7f565b90505f615cc2611726565b90505f60045f8581526020019081526020015f20905084815f015f6101000a81548173ffffffffffffffffffffffffffffffffffffffff021916908373ffffffffffffffffffffffffffffffffffffffff160217905550615d2283615969565b815f0160146101000a81548165ffffffffffff021916908365ffffffffffff160217905550615d5082616c2d565b815f01601a6101000a81548163ffffffff021916908363ffffffff1602179055507f7d84a6263ae0d98d3329bd7b46bb4e8d6f98cd35a7adb45c274c8b7fd5ebd5e084868b8b8d5167ffffffffffffffff811115615db157615db0617406565b5b604051908082528060200260200182016040528015615de457816020015b6060815260200190600190039081615dcf5790505b508c89898b615df39190618a7f565b8e604051615e0999989796959493929190619a0b565b60405180910390a150505095945050505050565b606060ff5f1b8314615e3957615e3283616c84565b9050615ec4565b818054615e45906189cb565b80601f0160208091040260200160405190810160405280929190818152602001828054615e71906189cb565b8015615ebc5780601f10615e9357610100808354040283529160200191615ebc565b820191905f5260205f20905b815481529060010190602001808311615e9f57829003601f168201915b505050505090505b92915050565b5f825f528160205f2001905092915050565b5f60045f8381526020019081526020015f205f01601a9054906101000a900463ffffffff1663ffffffff1660045f8481526020019081526020015f205f0160149054906101000a900465ffffffffffff16615f379190619ab9565b65ffffffffffff169050919050565b5f615f548284118484616cf6565b905092915050565b5f81511115615f6d57805160208201fd5b6040517fd6bda27500000000000000000000000000000000000000000000000000000000815260040160405180910390fd5b5f5f5f615fac8686616d0f565b915091505f8203615fd157838181615fc757615fc6618cd3565b5b0492505050616077565b818411615ff057615fef615fea5f861460126011616cf6565b61607e565b5b5f8486880990508181118303925080820391505f855f038616905080860495508083049250600181825f0304019050808402831792505f600287600302189050808702600203810290508087026002038102905080870260020381029050808702600203810290508087026002038102905080870260020381029050808402955050505050505b9392505050565b634e487b715f52806020526024601cfd5b5f5f5f858054905090505f81111561629b575f6160b8876001846160b39190618af9565b615eca565b90505f815f015f9054906101000a900465ffffffffffff1690505f825f0160069054906101000a900479ffffffffffffffffffffffffffffffffffffffffffffffffffff1690508765ffffffffffff168265ffffffffffff161115616149576040517f2520601d00000000000000000000000000000000000000000000000000000000815260040160405180910390fd5b8765ffffffffffff168265ffffffffffff16036161b35786835f0160066101000a81548179ffffffffffffffffffffffffffffffffffffffffffffffffffff021916908379ffffffffffffffffffffffffffffffffffffffffffffffffffff16021790555061628c565b8860405180604001604052808a65ffffffffffff1681526020018979ffffffffffffffffffffffffffffffffffffffffffffffffffff16815250908060018154018082558091505060019003905f5260205f20015f909190919091505f820151815f015f6101000a81548165ffffffffffff021916908365ffffffffffff1602179055506020820151815f0160066101000a81548179ffffffffffffffffffffffffffffffffffffffffffffffffffff021916908379ffffffffffffffffffffffffffffffffffffffffffffffffffff16021790555050505b8087955095505050505061637b565b8560405180604001604052808765ffffffffffff1681526020018679ffffffffffffffffffffffffffffffffffffffffffffffffffff16815250908060018154018082558091505060019003905f5260205f20015f909190919091505f820151815f015f6101000a81548165ffffffffffff021916908365ffffffffffff1602179055506020820151815f0160066101000a81548179ffffffffffffffffffffffffffffffffffffffffffffffffffff021916908379ffffffffffffffffffffffffffffffffffffffffffffffffffff16021790555050505f8492509250505b935093915050565b5f813060601b6bffffffffffffffffffffffff1916189050919050565b600b5f9054906101000a900473ffffffffffffffffffffffffffffffffffffffff1673ffffffffffffffffffffffffffffffffffffffff1663e38335e5348686865f6163eb88616383565b6040518763ffffffff1660e01b815260040161640b9594939291906197d7565b5f604051808303818588803b158015616422575f5ffd5b505af1158015616434573d5f5f3e3d5ffd5b5050505050600c5f8681526020019081526020015f205f90555050505050565b5f5f60095f8481526020019081526020015f2090508060020154816001015461647d9190618a7f565b61648e61648985611e7b565b613903565b1115915050919050565b5f5f60095f8481526020019081526020015f209050805f0154816001015411915050919050565b5f5f6164cd86868686612d89565b9050616531816164dd6007613de4565b6164e76006613de4565b6164f16002613de4565b60018060078081111561650757616506617a3e565b5b6165119190619af2565b600261651d9190619c55565b6165279190618af9565b5f1b181818613e08565b50600160045f8381526020019081526020015f205f01601f6101000a81548160ff0219169083151502179055507f789cf55be980739dad1d0699b93b58e806b51c9d96619bfa8fe0a28abaa7b30c8160405161658d9190617230565b60405180910390a180915050949350505050565b5f7f000000000000000000000000000000000000000000000000000000000000000073ffffffffffffffffffffffffffffffffffffffff163073ffffffffffffffffffffffffffffffffffffffff1614801561661c57507f000000000000000000000000000000000000000000000000000000000000000046145b15616649577f00000000000000000000000000000000000000000000000000000000000000009050616654565b616651616d2c565b90505b90565b5f6040517f190100000000000000000000000000000000000000000000000000000000000081528360028201528260228201526042812091505092915050565b5f5f5f60418451036166d7575f5f5f602087015192506040870151915060608701515f1a90506166c988828585616dc1565b9550955095505050506166e5565b5f600285515f1b9250925092505b9250925092565b5f5f5f8573ffffffffffffffffffffffffffffffffffffffff168585604051602401616719929190619c9f565b604051602081830303815290604052631626ba7e60e01b6020820180517bffffffffffffffffffffffffffffffffffffffffffffffffffffffff838183161783525050505060405161676b9190619cfd565b5f60405180830381855afa9150503d805f81146167a3576040519150601f19603f3d011682016040523d82523d5f602084013e6167a8565b606091505b50915091508180156167bc57506020815110155b80156168005750631626ba7e60e01b7bffffffffffffffffffffffffffffffffffffffffffffffffffffffff1916818060200190518101906167fe9190619851565b145b925050509392505050565b61681481616ea8565b5f600e5f8381526020019081526020015f205f9054906101000a900465ffffffffffff1665ffffffffffff16148015616852575061685181616454565b5b156168fa575f616860611ee1565b616868612c29565b6168729190619ab9565b905061687d826131d2565b8165ffffffffffff1611156168c557817f541f725fb9f7c98a30cc9c0ff32fbb14358cd7159c847a3aa20a2bdc442ba511826040516168bc9190619d13565b60405180910390a25b80600e5f8481526020019081526020015f205f6101000a81548165ffffffffffff021916908365ffffffffffff160217905550505b50565b5f6001821161690e57819050616a92565b5f8290505f60019050700100000000000000000000000000000000821061693e57608082901c9150604081901b90505b68010000000000000000821061695d57604082901c9150602081901b90505b640100000000821061697857602082901c9150601081901b90505b62010000821061699157601082901c9150600881901b90505b61010082106169a957600882901c9150600481901b90505b601082106169c057600482901c9150600281901b90505b600482106169d057600181901b90505b600181600302901c905060018185816169ec576169eb618cd3565b5b048201901c90506001818581616a0557616a04618cd3565b5b048201901c90506001818581616a1e57616a1d618cd3565b5b048201901c90506001818581616a3757616a36618cd3565b5b048201901c90506001818581616a5057616a4f618cd3565b5b048201901c90506001818581616a6957616a68618cd3565b5b048201901c9050616a8b818581616a8357616a82618cd3565b5b048211616eab565b8103925050505b919050565b5f5b81831015616b01575f616aac8484616eb6565b90508465ffffffffffff16616ac18783615eca565b5f015f9054906101000a900465ffffffffffff1665ffffffffffff161115616aeb57809250616afb565b600181616af89190618a7f565b93505b50616a99565b819050949350505050565b5f81602084010151905092915050565b5f5f8451831180616b2c57508284115b15616b3c575f5f91509150616c25565b5f600185616b4a9190618a7f565b84118015616bc257507f30780000000000000000000000000000000000000000000000000000000000007dffffffffffffffffffffffffffffffffffffffffffffffffffffffffffff1916616b9f8787616edb565b7dffffffffffffffffffffffffffffffffffffffffffffffffffffffffffff1916145b90505f6002616bd2831515616eab565b616bdc9190618c92565b6028616be89190618a7f565b9050808686616bf79190618af9565b03616c1c575f5f616c09898989616eeb565b9150915081819550955050505050616c25565b5f5f9350935050505b935093915050565b5f63ffffffff8016821115616c7c576020826040517f6dfcc650000000000000000000000000000000000000000000000000000000008152600401616c73929190619d65565b60405180910390fd5b819050919050565b60605f616c9083617019565b90505f602067ffffffffffffffff811115616cae57616cad617406565b5b6040519080825280601f01601f191660200182016040528015616ce05781602001600182028036833780820191505090505b5090508181528360208201528092505050919050565b5f616d0084616eab565b82841802821890509392505050565b5f5f5f198385098385029150818110828203039250509250929050565b5f7f8b73c3c69bb8fe3d512ecc4cf759cc79239f7b179b0ffacaa9a75d522b39400f7f00000000000000000000000000000000000000000000000000000000000000007f00000000000000000000000000000000000000000000000000000000000000004630604051602001616da6959493929190619d8c565b60405160208183030381529060405280519060200120905090565b5f5f5f7f7fffffffffffffffffffffffffffffff5d576e7357a4501ddfe92f46681b20a0845f1c1115616dfd575f600385925092509250616e9e565b5f6001888888886040515f8152602001604052604051616e209493929190619ddd565b6020604051602081039080840390855afa158015616e40573d5f5f3e3d5ffd5b5050506020604051035190505f73ffffffffffffffffffffffffffffffffffffffff168173ffffffffffffffffffffffffffffffffffffffff1603616e91575f60015f5f1b93509350935050616e9e565b805f5f5f1b935093509350505b9450945094915050565b50565b5f8115159050919050565b5f6002828418616ec69190618d00565b828416616ed39190618a7f565b905092915050565b5f81602084010151905092915050565b5f5f5f8590505f600186616eff9190618a7f565b85118015616f7757507f30780000000000000000000000000000000000000000000000000000000000007dffffffffffffffffffffffffffffffffffffffffffffffffffffffffffff1916616f548388616edb565b7dffffffffffffffffffffffffffffffffffffffffffffffffffffffffffff1916145b90505f6002616f87831515616eab565b616f919190618c92565b90505f5f90505f8289616fa49190618a7f565b90505b87811015617004575f616fc2616fbd8784616edb565b617067565b9050600f8160ff161115616fe1575f5f97509750505050505050617011565b601083616fee9190618c92565b92508060ff168301925050806001019050616fa7565b5060018195509550505050505b935093915050565b5f5f60ff835f1c169050601f81111561705e576040517fb3512b0c00000000000000000000000000000000000000000000000000000000815260040160405180910390fd5b80915050919050565b5f5f8260f81c9050602f8160ff161180156170855750603a8160ff16105b15617095576030810390506170ed565b60608160ff161180156170ab575060678160ff16105b156170bb576057810390506170ec565b60408160ff161180156170d1575060478160ff16105b156170e1576037810390506170eb565b60ff9150506170f2565b5b5b809150505b919050565b6040518060c001604052805f600581111561711557617114617a3e565b5b8152602001606081526020015f81526020015f73ffffffffffffffffffffffffffffffffffffffff1681526020015f151581526020015f151581525090565b5f604051905090565b5f5ffd5b5f5ffd5b5f7fffffffff0000000000000000000000000000000000000000000000000000000082169050919050565b61719981617165565b81146171a3575f5ffd5b50565b5f813590506171b481617190565b92915050565b5f602082840312156171cf576171ce61715d565b5b5f6171dc848285016171a6565b91505092915050565b5f8115159050919050565b6171f9816171e5565b82525050565b5f6020820190506172125f8301846171f0565b92915050565b5f819050919050565b61722a81617218565b82525050565b5f6020820190506172435f830184617221565b92915050565b61725281617218565b811461725c575f5ffd5b50565b5f8135905061726d81617249565b92915050565b5f602082840312156172885761728761715d565b5b5f6172958482850161725f565b91505092915050565b5f81519050919050565b5f82825260208201905092915050565b8281835e5f83830152505050565b5f601f19601f8301169050919050565b5f6172e08261729e565b6172ea81856172a8565b93506172fa8185602086016172b8565b617303816172c6565b840191505092915050565b5f6020820190508181035f83015261732681846172d6565b905092915050565b6006811061733a575f5ffd5b50565b5f8135905061734b8161732e565b92915050565b5f602082840312156173665761736561715d565b5b5f6173738482850161733d565b91505092915050565b5f73ffffffffffffffffffffffffffffffffffffffff82169050919050565b5f6173a58261737c565b9050919050565b6173b58161739b565b82525050565b5f6020820190506173ce5f8301846173ac565b92915050565b6173dd8161739b565b81146173e7575f5ffd5b50565b5f813590506173f8816173d4565b92915050565b5f5ffd5b5f5ffd5b7f4e487b71000000000000000000000000000000000000000000000000000000005f52604160045260245ffd5b61743c826172c6565b810181811067ffffffffffffffff8211171561745b5761745a617406565b5b80604052505050565b5f61746d617154565b90506174798282617433565b919050565b5f67ffffffffffffffff82111561749857617497617406565b5b6174a1826172c6565b9050602081019050919050565b828183375f83830152505050565b5f6174ce6174c98461747e565b617464565b9050828152602081018484840111156174ea576174e9617402565b5b6174f58482856174ae565b509392505050565b5f82601f830112617511576175106173fe565b5b81356175218482602086016174bc565b91505092915050565b5f5f5f5f608085870312156175425761754161715d565b5b5f61754f878288016173ea565b9450506020617560878288016173ea565b93505060406175718782880161725f565b925050606085013567ffffffffffffffff81111561759257617591617161565b5b61759e878288016174fd565b91505092959194509250565b6175b381617165565b82525050565b5f6020820190506175cc5f8301846175aa565b92915050565b5f67ffffffffffffffff8211156175ec576175eb617406565b5b602082029050602081019050919050565b5f5ffd5b5f61761361760e846175d2565b617464565b90508083825260208201905060208402830185811115617636576176356175fd565b5b835b8181101561765f578061764b88826173ea565b845260208401935050602081019050617638565b5050509392505050565b5f82601f83011261767d5761767c6173fe565b5b813561768d848260208601617601565b91505092915050565b5f67ffffffffffffffff8211156176b0576176af617406565b5b602082029050602081019050919050565b5f6176d36176ce84617696565b617464565b905080838252602082019050602084028301858111156176f6576176f56175fd565b5b835b8181101561771f578061770b888261725f565b8452602084019350506020810190506176f8565b5050509392505050565b5f82601f83011261773d5761773c6173fe565b5b813561774d8482602086016176c1565b91505092915050565b5f67ffffffffffffffff8211156177705761776f617406565b5b602082029050602081019050919050565b5f61779361778e84617756565b617464565b905080838252602082019050602084028301858111156177b6576177b56175fd565b5b835b818110156177fd57803567ffffffffffffffff8111156177db576177da6173fe565b5b8086016177e889826174fd565b855260208501945050506020810190506177b8565b5050509392505050565b5f82601f83011261781b5761781a6173fe565b5b813561782b848260208601617781565b91505092915050565b5f819050919050565b61784681617834565b8114617850575f5ffd5b50565b5f813590506178618161783d565b92915050565b5f5f5f5f6080858703121561787f5761787e61715d565b5b5f85013567ffffffffffffffff81111561789c5761789b617161565b5b6178a887828801617669565b945050602085013567ffffffffffffffff8111156178c9576178c8617161565b5b6178d587828801617729565b935050604085013567ffffffffffffffff8111156178f6576178f5617161565b5b61790287828801617807565b925050606061791387828801617853565b91505092959194509250565b5f5f604083850312156179355761793461715d565b5b5f6179428582860161733d565b92505060206179538582860161725f565b9150509250929050565b5f602082840312156179725761797161715d565b5b5f61797f848285016173ea565b91505092915050565b61799181617834565b82525050565b5f6020820190506179aa5f830184617988565b92915050565b5f65ffffffffffff82169050919050565b6179ca816179b0565b82525050565b5f6020820190506179e35f8301846179c1565b92915050565b6179f2816179b0565b81146179fc575f5ffd5b50565b5f81359050617a0d816179e9565b92915050565b5f60208284031215617a2857617a2761715d565b5b5f617a35848285016179ff565b91505092915050565b7f4e487b71000000000000000000000000000000000000000000000000000000005f52602160045260245ffd5b60068110617a7c57617a7b617a3e565b5b50565b5f819050617a8c82617a6b565b919050565b5f617a9b82617a7f565b9050919050565b617aab81617a91565b82525050565b5f82825260208201905092915050565b5f617acb8261729e565b617ad58185617ab1565b9350617ae58185602086016172b8565b617aee816172c6565b840191505092915050565b617b0281617218565b82525050565b617b118161739b565b82525050565b617b20816171e5565b82525050565b5f60c083015f830151617b3b5f860182617aa2565b5060208301518482036020860152617b538282617ac1565b9150506040830151617b686040860182617af9565b506060830151617b7b6060860182617b08565b506080830151617b8e6080860182617b17565b5060a0830151617ba160a0860182617b17565b508091505092915050565b60088110617bbd57617bbc617a3e565b5b50565b5f819050617bcd82617bac565b919050565b5f617bdc82617bc0565b9050919050565b617bec81617bd2565b82525050565b5f60a0820190508181035f830152617c0a8188617b26565b9050617c196020830187617be3565b617c266040830186617221565b617c336060830185617221565b617c406080830184617221565b9695505050505050565b5f602082019050617c5d5f830184617be3565b92915050565b5f5f60408385031215617c7957617c7861715d565b5b5f617c868582860161725f565b9250506020617c97858286016173ea565b9150509250929050565b5f606082019050617cb45f830186617221565b617cc16020830185617221565b617cce6040830184617221565b949350505050565b5f60ff82169050919050565b617ceb81617cd6565b8114617cf5575f5ffd5b50565b5f81359050617d0681617ce2565b92915050565b5f5f60408385031215617d2257617d2161715d565b5b5f617d2f8582860161725f565b9250506020617d4085828601617cf8565b9150509250929050565b5f5ffd5b5f5f83601f840112617d6357617d626173fe565b5b8235905067ffffffffffffffff811115617d8057617d7f617d4a565b5b602083019150836001820283011115617d9c57617d9b6175fd565b5b9250929050565b5f5f5f5f5f5f5f60c0888a031215617dbe57617dbd61715d565b5b5f617dcb8a828b0161725f565b9750506020617ddc8a828b01617cf8565b9650506040617ded8a828b016173ea565b955050606088013567ffffffffffffffff811115617e0e57617e0d617161565b5b617e1a8a828b01617d4e565b9450945050608088013567ffffffffffffffff811115617e3d57617e3c617161565b5b617e498a828b016174fd565b92505060a088013567ffffffffffffffff811115617e6a57617e69617161565b5b617e768a828b016174fd565b91505092959891949750929550565b5f5f5f5f5f60808688031215617e9e57617e9d61715d565b5b5f617eab8882890161725f565b9550506020617ebc88828901617cf8565b945050604086013567ffffffffffffffff811115617edd57617edc617161565b5b617ee988828901617d4e565b9350935050606086013567ffffffffffffffff811115617f0c57617f0b617161565b5b617f18888289016174fd565b9150509295509295909350565b5f608082019050617f385f830187617221565b617f456020830186617221565b617f526040830185617221565b617f5f6060830184617221565b95945050505050565b5f67ffffffffffffffff821115617f8257617f81617406565b5b617f8b826172c6565b9050602081019050919050565b5f617faa617fa584617f68565b617464565b905082815260208101848484011115617fc657617fc5617402565b5b617fd18482856174ae565b509392505050565b5f82601f830112617fed57617fec6173fe565b5b8135617ffd848260208601617f98565b91505092915050565b5f5f5f5f6080858703121561801e5761801d61715d565b5b5f85013567ffffffffffffffff81111561803b5761803a617161565b5b61804787828801617669565b945050602085013567ffffffffffffffff81111561806857618067617161565b5b61807487828801617729565b935050604085013567ffffffffffffffff81111561809557618094617161565b5b6180a187828801617807565b925050606085013567ffffffffffffffff8111156180c2576180c1617161565b5b6180ce87828801617fd9565b91505092959194509250565b5f5f5f5f606085870312156180f2576180f161715d565b5b5f6180ff8782880161725f565b945050602061811087828801617cf8565b935050604085013567ffffffffffffffff81111561813157618130617161565b5b61813d87828801617d4e565b925092505092959194509250565b5f7fff0000000000000000000000000000000000000000000000000000000000000082169050919050565b61817f8161814b565b82525050565b5f81519050919050565b5f82825260208201905092915050565b5f819050602082019050919050565b5f6181b98383617af9565b60208301905092915050565b5f602082019050919050565b5f6181db82618185565b6181e5818561818f565b93506181f08361819f565b805f5b8381101561822057815161820788826181ae565b9750618212836181c5565b9250506001810190506181f3565b5085935050505092915050565b5f60e0820190506182405f83018a618176565b818103602083015261825281896172d6565b9050818103604083015261826681886172d6565b90506182756060830187617221565b61828260808301866173ac565b61828f60a0830185617988565b81810360c08301526182a181846181d1565b905098975050505050505050565b5f5f5f5f608085870312156182c7576182c661715d565b5b5f6182d48782880161725f565b94505060206182e587828801617cf8565b93505060406182f6878288016173ea565b925050606085013567ffffffffffffffff81111561831757618316617161565b5b618323878288016174fd565b91505092959194509250565b5f5f604083850312156183455761834461715d565b5b5f6183528582860161725f565b92505060206183638582860161725f565b9150509250929050565b5f5f5f606084860312156183845761838361715d565b5b5f618391868287016173ea565b93505060206183a28682870161725f565b925050604084013567ffffffffffffffff8111156183c3576183c2617161565b5b6183cf868287016174fd565b9150509250925092565b5f6183e38261737c565b9050919050565b5f6183f4826183d9565b9050919050565b618404816183ea565b811461840e575f5ffd5b50565b5f8135905061841f816183fb565b92915050565b5f6020828403121561843a5761843961715d565b5b5f61844784828501618411565b91505092915050565b5f5f5f5f5f5f60c0878903121561846a5761846961715d565b5b5f87013567ffffffffffffffff81111561848757618486617161565b5b61849389828a01617669565b965050602087013567ffffffffffffffff8111156184b4576184b3617161565b5b6184c089828a01617729565b955050604087013567ffffffffffffffff8111156184e1576184e0617161565b5b6184ed89828a01617807565b945050606087013567ffffffffffffffff81111561850e5761850d617161565b5b61851a89828a01617fd9565b935050608061852b89828a0161733d565b92505060a087013567ffffffffffffffff81111561854c5761854b617161565b5b61855889828a01617fd9565b9150509295509295509295565b5f5f5f5f5f60a0868803121561857e5761857d61715d565b5b5f61858b888289016173ea565b955050602061859c888289016173ea565b945050604086013567ffffffffffffffff8111156185bd576185bc617161565b5b6185c988828901617729565b935050606086013567ffffffffffffffff8111156185ea576185e9617161565b5b6185f688828901617729565b925050608086013567ffffffffffffffff81111561861757618616617161565b5b618623888289016174fd565b9150509295509295909350565b5f5f83601f840112618645576186446173fe565b5b8235905067ffffffffffffffff81111561866257618661617d4a565b5b60208301915083600182028301111561867e5761867d6175fd565b5b9250929050565b5f5f5f5f6060858703121561869d5761869c61715d565b5b5f6186aa878288016173ea565b94505060206186bb8782880161725f565b935050604085013567ffffffffffffffff8111156186dc576186db617161565b5b6186e887828801618630565b925092505092959194509250565b5f60a0820190506187095f830188617221565b6187166020830187617221565b6187236040830186617221565b6187306060830185617221565b61873d6080830184617221565b9695505050505050565b5f63ffffffff82169050919050565b61875f81618747565b8114618769575f5ffd5b50565b5f8135905061877a81618756565b92915050565b5f602082840312156187955761879461715d565b5b5f6187a28482850161876c565b91505092915050565b5f5f604083850312156187c1576187c061715d565b5b5f6187ce858286016173ea565b92505060206187df8582860161725f565b9150509250929050565b5f5f5f5f5f60a086880312156188025761880161715d565b5b5f61880f888289016173ea565b9550506020618820888289016173ea565b94505060406188318882890161725f565b93505060606188428882890161725f565b925050608086013567ffffffffffffffff81111561886357618862617161565b5b61886f888289016174fd565b9150509295509295909350565b5f819050919050565b5f61889f61889a6188958461737c565b61887c565b61737c565b9050919050565b5f6188b082618885565b9050919050565b5f6188c1826188a6565b9050919050565b6188d1816188b7565b82525050565b5f6020820190506188ea5f8301846188c8565b92915050565b5f6188fa826188a6565b9050919050565b61890a816188f0565b82525050565b5f6020820190506189235f830184618901565b92915050565b61893281617a91565b82525050565b5f60c08201905061894b5f830189618929565b818103602083015261895d81886172d6565b905061896c6040830187617221565b61897960608301866173ac565b61898660808301856171f0565b61899360a08301846171f0565b979650505050505050565b7f4e487b71000000000000000000000000000000000000000000000000000000005f52602260045260245ffd5b5f60028204905060018216806189e257607f821691505b6020821081036189f5576189f461899e565b5b50919050565b5f618a15618a10618a0b846179b0565b61887c565b617218565b9050919050565b618a25816189fb565b82525050565b5f604082019050618a3e5f830185617221565b618a4b6020830184618a1c565b9392505050565b7f4e487b71000000000000000000000000000000000000000000000000000000005f52601160045260245ffd5b5f618a8982617218565b9150618a9483617218565b9250828201905080821115618aac57618aab618a52565b5b92915050565b5f618abc82617218565b91507fffffffffffffffffffffffffffffffffffffffffffffffffffffffffffffffff8203618aee57618aed618a52565b5b600182019050919050565b5f618b0382617218565b9150618b0e83617218565b9250828203905081811115618b2657618b25618a52565b5b92915050565b5f606082019050618b3f5f8301866173ac565b618b4c60208301856173ac565b618b596040830184617221565b949350505050565b618b6a816171e5565b8114618b74575f5ffd5b50565b5f81519050618b8581618b61565b92915050565b5f60208284031215618ba057618b9f61715d565b5b5f618bad84828501618b77565b91505092915050565b5f604082019050618bc95f830185617221565b618bd660208301846173ac565b9392505050565b5f618bef618bea84617f68565b617464565b905082815260208101848484011115618c0b57618c0a617402565b5b618c168482856172b8565b509392505050565b5f82601f830112618c3257618c316173fe565b5b8151618c42848260208601618bdd565b91505092915050565b5f60208284031215618c6057618c5f61715d565b5b5f82015167ffffffffffffffff811115618c7d57618c7c617161565b5b618c8984828501618c1e565b91505092915050565b5f618c9c82617218565b9150618ca783617218565b9250828202618cb581617218565b91508282048414831517618ccc57618ccb618a52565b5b5092915050565b7f4e487b71000000000000000000000000000000000000000000000000000000005f52601260045260245ffd5b5f618d0a82617218565b9150618d1583617218565b925082618d2557618d24618cd3565b5b828204905092915050565b618d3981617cd6565b82525050565b5f618d4a83856172a8565b9350618d578385846174ae565b618d60836172c6565b840190509392505050565b5f606082019050618d7e5f830187618d30565b618d8b6020830186617221565b8181036040830152618d9e818486618d3f565b905095945050505050565b5f81519050618db7816179e9565b92915050565b5f60208284031215618dd257618dd161715d565b5b5f618ddf84828501618da9565b91505092915050565b7f4e487b71000000000000000000000000000000000000000000000000000000005f52603260045260245ffd5b5f819050815f5260205f209050919050565b5f6020601f8301049050919050565b5f82821b905092915050565b5f60088302618e717fffffffffffffffffffffffffffffffffffffffffffffffffffffffffffffffff82618e36565b618e7b8683618e36565b95508019841693508086168417925050509392505050565b5f618ead618ea8618ea384617218565b61887c565b617218565b9050919050565b5f819050919050565b618ec683618e93565b618eda618ed282618eb4565b848454618e42565b825550505050565b5f5f905090565b618ef1618ee2565b618efc818484618ebd565b505050565b5b81811015618f1f57618f145f82618ee9565b600181019050618f02565b5050565b601f821115618f6457618f3581618e15565b618f3e84618e27565b81016020851015618f4d578190505b618f61618f5985618e27565b830182618f01565b50505b505050565b5f82821c905092915050565b5f618f845f1984600802618f69565b1980831691505092915050565b5f618f9c8383618f75565b9150826002028217905092915050565b618fb58261729e565b67ffffffffffffffff811115618fce57618fcd617406565b5b618fd882546189cb565b618fe3828285618f23565b5f60209050601f831160018114619014575f8415619002578287015190505b61900c8582618f91565b865550619073565b601f19841661902286618e15565b5f5b8281101561904957848901518255600182019150602085019450602081019050619024565b868310156190665784890151619062601f891682618f75565b8355505b6001600288020188555050505b505050505050565b5f60408201905061908e5f830185618929565b81810360208301526190a081846172d6565b90509392505050565b5f81905092915050565b5f6190be83856190a9565b93506190cb8385846174ae565b82840190509392505050565b5f6190e38284866190b3565b91508190509392505050565b5f81519050919050565b5f82825260208201905092915050565b5f819050602082019050919050565b5f6191238383617b08565b60208301905092915050565b5f602082019050919050565b5f619145826190ef565b61914f81856190f9565b935061915a83619109565b805f5b8381101561918a5781516191718882619118565b975061917c8361912f565b92505060018101905061915d565b5085935050505092915050565b5f81519050919050565b5f82825260208201905092915050565b5f819050602082019050919050565b5f81519050919050565b5f82825260208201905092915050565b5f6191e4826191c0565b6191ee81856191ca565b93506191fe8185602086016172b8565b619207816172c6565b840191505092915050565b5f61921d83836191da565b905092915050565b5f602082019050919050565b5f61923b82619197565b61924581856191a1565b935083602082028501619257856191b1565b805f5b8581101561929257848403895281516192738582619212565b945061927e83619225565b925060208a0199505060018101905061925a565b50829750879550505050505092915050565b5f6080820190508181035f8301526192bc818761913b565b905081810360208301526192d081866181d1565b905081810360408301526192e48185619231565b90506192f36060830184617988565b95945050505050565b5f8151905061930a81617249565b92915050565b5f602082840312156193255761932461715d565b5b5f619332848285016192fc565b91505092915050565b5f60408201905061934e5f830185617221565b61935b6020830184617221565b9392505050565b5f6060820190506193755f830186617221565b6193826020830185617be3565b61938f6040830184617988565b949350505050565b5f67ffffffffffffffff82169050919050565b5f6193c46193bf6193ba846179b0565b61887c565b619397565b9050919050565b6193d4816193aa565b82525050565b5f6040820190506193ed5f8301856193cb565b6193fa60208301846193cb565b9392505050565b5f60e0820190506194145f83018a617988565b6194216020830189617221565b61942e6040830188618d30565b61943b60608301876173ac565b6194486080830186617221565b61945560a0830185617988565b61946260c0830184617988565b98975050505050505050565b5f6080820190506194815f830187617221565b61948e6020830186618d30565b61949b6040830185617221565b81810360608301526194ad81846172d6565b905095945050505050565b5f82825260208201905092915050565b5f6194d2826191c0565b6194dc81856194b8565b93506194ec8185602086016172b8565b6194f5816172c6565b840191505092915050565b5f60a0820190506195135f830188617221565b6195206020830187618d30565b61952d6040830186617221565b818103606083015261953f81856172d6565b9050818103608083015261955381846194c8565b90509695505050505050565b5f6040820190506195725f830185618a1c565b61957f6020830184618a1c565b9392505050565b5f619590826179b0565b915061959b836179b0565b9250828203905065ffffffffffff8111156195b9576195b8618a52565b5b92915050565b5f6060820190506195d25f8301866173ac565b6195df6020830185617221565b6195ec6040830184617221565b949350505050565b5f60a0820190506196075f830188617988565b6196146020830187617221565b6196216040830186618d30565b61962e60608301856173ac565b61963b6080830184617221565b9695505050505050565b5f6040820190506196585f8301856173ac565b6196656020830184617221565b9392505050565b5f60408201905061967f5f8301856173ac565b61968c60208301846173ac565b9392505050565b5f819050919050565b5f6196b66196b16196ac84619693565b61887c565b617218565b9050919050565b6196c68161969c565b82525050565b5f6020820190506196df5f8301846196bd565b92915050565b5f6196ff6196fa6196f584618747565b61887c565b617218565b9050919050565b61970f816196e5565b82525050565b5f6040820190506197285f830185619706565b6197356020830184619706565b9392505050565b5f819050919050565b5f61975f61975a6197558461973c565b61887c565b617cd6565b9050919050565b61976f81619745565b82525050565b5f6040820190506197885f830185619766565b6197956020830184617221565b9392505050565b5f815f1b9050919050565b5f6197c16197bc6197b784619693565b61979c565b617834565b9050919050565b6197d1816197a7565b82525050565b5f60a0820190508181035f8301526197ef818861913b565b9050818103602083015261980381876181d1565b905081810360408301526198178186619231565b905061982660608301856197c8565b6198336080830184617988565b9695505050505050565b5f8151905061984b8161783d565b92915050565b5f602082840312156198665761986561715d565b5b5f6198738482850161983d565b91505092915050565b5f60c0820190508181035f830152619894818961913b565b905081810360208301526198a881886181d1565b905081810360408301526198bc8187619231565b90506198cb60608301866197c8565b6198d86080830185617988565b6198e560a0830184617221565b979650505050505050565b5f819050919050565b5f61991361990e619909846198f0565b61887c565b617cd6565b9050919050565b619923816198f9565b82525050565b5f60408201905061993c5f83018561991a565b6199496020830184617221565b9392505050565b5f81519050919050565b5f82825260208201905092915050565b5f819050602082019050919050565b5f6199848383617ac1565b905092915050565b5f602082019050919050565b5f6199a282619950565b6199ac818561995a565b9350836020820285016199be8561996a565b805f5b858110156199f957848403895281516199da8582619979565b94506199e58361998c565b925060208a019950506001810190506199c1565b50829750879550505050505092915050565b5f61012082019050619a1f5f83018c617221565b619a2c602083018b6173ac565b8181036040830152619a3e818a61913b565b90508181036060830152619a5281896181d1565b90508181036080830152619a668188619998565b905081810360a0830152619a7a8187619231565b9050619a8960c0830186617221565b619a9660e0830185617221565b818103610100830152619aa981846172d6565b90509a9950505050505050505050565b5f619ac3826179b0565b9150619ace836179b0565b9250828201905065ffffffffffff811115619aec57619aeb618a52565b5b92915050565b5f619afc82617cd6565b9150619b0783617cd6565b9250828201905060ff811115619b2057619b1f618a52565b5b92915050565b5f8160011c9050919050565b5f5f8291508390505b6001851115619b7b57808604811115619b5757619b56618a52565b5b6001851615619b665780820291505b8081029050619b7485619b26565b9450619b3b565b94509492505050565b5f82619b935760019050619c4e565b81619ba0575f9050619c4e565b8160018114619bb65760028114619bc057619bef565b6001915050619c4e565b60ff841115619bd257619bd1618a52565b5b8360020a915084821115619be957619be8618a52565b5b50619c4e565b5060208310610133831016604e8410600b8410161715619c245782820a905083811115619c1f57619c1e618a52565b5b619c4e565b619c318484846001619b32565b92509050818404811115619c4857619c47618a52565b5b81810290505b9392505050565b5f619c5f82617218565b9150619c6a83617cd6565b9250619c977fffffffffffffffffffffffffffffffffffffffffffffffffffffffffffffffff8484619b84565b905092915050565b5f604082019050619cb25f830185617988565b8181036020830152619cc481846194c8565b90509392505050565b5f619cd7826191c0565b619ce181856190a9565b9350619cf18185602086016172b8565b80840191505092915050565b5f619d088284619ccd565b915081905092915050565b5f602082019050619d265f8301846193cb565b92915050565b5f819050919050565b5f619d4f619d4a619d4584619d2c565b61887c565b617cd6565b9050919050565b619d5f81619d35565b82525050565b5f604082019050619d785f830185619d56565b619d856020830184617221565b9392505050565b5f60a082019050619d9f5f830188617988565b619dac6020830187617988565b619db96040830186617988565b619dc66060830185617221565b619dd360808301846173ac565b9695505050505050565b5f608082019050619df05f830187617988565b619dfd6020830186618d30565b619e0a6040830185617988565b619e176060830184617988565b9594505050505056fea264697066735822122084d16c981027ca8b686afae30306374934fdb8c6aedd4844f5b4419d368d449764736f6c634300081d0033","linkReferences":{}},"methodIdentifiers":{"BALLOT_TYPEHASH()":"deaaa7cc","CLOCK_MODE()":"4bf5d7e9","COUNTING_MODE()":"dd4e2ba5","EXTENDED_BALLOT_TYPEHASH()":"2fe3e261","VETO_PERIOD()":"e861dc85","cancel(address[],uint256[],bytes[],bytes32)":"452115d6","castVote(uint256,uint8)":"56781388","castVoteBySig(uint256,uint8,address,bytes)":"8ff262e3","castVoteWithReason(uint256,uint8,string)":"7b3c71d3","castVoteWithReasonAndParams(uint256,uint8,string,bytes)":"5f398a14","castVoteWithReasonAndParamsBySig(uint256,uint8,address,string,bytes,bytes)":"5b8d0e0d","claimRewards()":"372500ab","clock()":"91ddadf4","delegateVotingPower(address)":"f3ff955a","delegatedVotingPower(address)":"f9a5c639","disableEmergencyMode()":"ef952568","eip712Domain()":"84b0196e","emergencyMode()":"0905f560","emergencyProposalId()":"2e6d55d0","emergencyPropose(address[],uint256[],bytes[],string)":"7130e8a5","execute(address[],uint256[],bytes[],bytes32)":"2656227d","failedProposals(address)":"38bbfbfd","getGovernanceStats()":"df91f748","getMemberStats(address)":"6075f984","getProposalDetails(uint256)":"3b4d01a7","getProposalId(address[],uint256[],bytes[],bytes32)":"a8f8a668","getTotalVotingPower(address)":"2c009fa2","getVotes(address,uint256)":"eb9019d4","getVotesWithParams(address,uint256,bytes)":"9a802a6d","governanceToken()":"f96dae0a","hasVoted(uint256,address)":"43859632","hashProposal(address[],uint256[],bytes[],bytes32)":"c59057e4","lateQuorumVoteExtension()":"32b8113e","meetsQuorum(uint256)":"ebe5adb9","memberReputation(address)":"409d7a04","name()":"06fdde03","nonces(address)":"7ecebe00","onERC1155BatchReceived(address,address,uint256[],uint256[],bytes)":"bc197c81","onERC1155Received(address,address,uint256,uint256,bytes)":"f23a6e61","onERC721Received(address,address,uint256,bytes)":"150b7a02","proposalDeadline(uint256)":"c01f9e37","proposalEta(uint256)":"ab58fb8e","proposalMetadata(uint256)":"feb062be","proposalNeedsQueuing(uint256)":"a9a95294","proposalProposer(uint256)":"143489d0","proposalReward()":"b7112d15","proposalSnapshot(uint256)":"2d63f693","proposalSpendAmount(uint256)":"08291279","proposalThreshold()":"b58131b0","proposalThresholds(uint8)":"119fd98c","proposalVotes(uint256)":"544ffc9c","propose(address[],uint256[],bytes[],string)":"7d5e81e2","proposeWithType(address[],uint256[],bytes[],string,uint8,string)":"b815bf92","queue(address[],uint256[],bytes[],bytes32)":"160cbed7","quorum(uint256)":"f8ce560a","quorumDenominator()":"97c3d334","quorumNumerator()":"a7713a70","quorumNumerator(uint256)":"60c4247f","quorumThresholds(uint8)":"f7c9d936","relay(address,uint256,bytes)":"c28bc2fa","setLateQuorumVoteExtension(uint48)":"330df7ff","setProposalThreshold(uint256)":"ece40cc1","setVotingDelay(uint48)":"79051887","setVotingPeriod(uint32)":"e540d01d","state(uint256)":"3e4f49e6","successfulProposals(address)":"37897931","supportsInterface(bytes4)":"01ffc9a7","timelock()":"d33219b4","token()":"fc0c546a","totalFailedProposals()":"31fec3ac","totalProposals()":"a78d80fc","totalSuccessfulProposals()":"7de68385","totalVotesCast()":"7de418d5","treasury()":"61d027b3","treasurySpendLimit()":"18cfc2fb","unclaimedRewards(address)":"949813b8","updateProposalThreshold(uint8,uint256)":"1f12a62e","updateQuorumNumerator(uint256)":"06f3f9e6","updateQuorumThreshold(uint8,uint256)":"b5382afb","updateRewards(uint256,uint256)":"97e50818","updateTimelock(address)":"a890c910","updateVetoer(address)":"9dcbfd7d","version()":"54fd4d50","veto(uint256)":"1d28dec7","vetoed(uint256)":"feef4b08","vetoer()":"d8bff440","voteDelegation(address)":"6986e329","votingDelay()":"3932abb1","votingPeriod()":"02a251a3","votingReward()":"7ddb5e65"},"id":78}