{"abi":[{"type":"constructor","inputs":[{"name":"_emad","type":"address","internalType":"address"},{"name":"_vault","type":"address","internalType":"address"},{"name":"_treasury","type":"address","internalType":"address"},{"name":"_priceOracle","type":"address","internalType":"address"}],"stateMutability":"nonpayable"},{"type":"function","name":"BURNER_ROLE","inputs":[],"outputs":[{"name":"","type":"bytes32","internalType":"bytes32"}],"stateMutability":"view"},{"type":"function","name":"DEFAULT_ADMIN_ROLE","inputs":[],"outputs":[{"name":"","type":"bytes32","internalType":"bytes32"}],"stateMutability":"view"},{"type":"function","name":"EMAD","inputs":[],"outputs":[{"name":"","type":"address","internalType":"contract IEMAD"}],"stateMutability":"view"},{"type":"function","name":"FEE_PRECISION","inputs":[],"outputs":[{"name":"","type":"uint256","internalType":"uint256"}],"stateMutability":"view"},{"type":"function","name":"GUARDIAN_ROLE","inputs":[],"outputs":[{"name":"","type":"bytes32","internalType":"bytes32"}],"stateMutability":"view"},{"type":"function","name":"MINTER_ROLE","inputs":[],"outputs":[{"name":"","type":"bytes32","internalType":"bytes32"}],"stateMutability":"view"},{"type":"function","name":"OPERATOR_ROLE","inputs":[],"outputs":[{"name":"","type":"bytes32","internalType":"bytes32"}],"stateMutability":"view"},{"type":"function","name":"PRECISION","inputs":[],"outputs":[{"name":"","type":"uint256","internalType":"uint256"}],"stateMutability":"view"},{"type":"function","name":"PRICE_PRECISION","inputs":[],"outputs":[{"name":"","type":"uint256","internalType":"uint256"}],"stateMutability":"view"},{"type":"function","name":"accumulatedFees","inputs":[],"outputs":[{"name":"","type":"uint256","internalType":"uint256"}],"stateMutability":"view"},{"type":"function","name":"blacklisted","inputs":[{"name":"","type":"address","internalType":"address"}],"outputs":[{"name":"","type":"bool","internalType":"bool"}],"stateMutability":"view"},{"type":"function","name":"burn","inputs":[{"name":"amount","type":"uint256","internalType":"uint256"}],"outputs":[{"name":"burnedAmount","type":"uint256","internalType":"uint256"}],"stateMutability":"nonpayable"},{"type":"function","name":"burnParams","inputs":[],"outputs":[{"name":"dailyLimit","type":"uint256","internalType":"uint256"},{"name":"hourlyLimit","type":"uint256","internalType":"uint256"},{"name":"perTransactionLimit","type":"uint256","internalType":"uint256"},{"name":"minBurnAmount","type":"uint256","internalType":"uint256"},{"name":"burnFee","type":"uint256","internalType":"uint256"},{"name":"cooldownPeriod","type":"uint256","internalType":"uint256"}],"stateMutability":"view"},{"type":"function","name":"canMint","inputs":[{"name":"user","type":"address","internalType":"address"},{"name":"amount","type":"uint256","internalType":"uint256"}],"outputs":[{"name":"","type":"bool","internalType":"bool"}],"stateMutability":"view"},{"type":"function","name":"collectFees","inputs":[],"outputs":[],"stateMutability":"nonpayable"},{"type":"function","name":"crossChainMint","inputs":[{"name":"chainId","type":"uint16","internalType":"uint16"},{"name":"to","type":"address","internalType":"address"},{"name":"amount","type":"uint256","internalType":"uint256"},{"name":"nonce","type":"uint256","internalType":"uint256"}],"outputs":[],"stateMutability":"nonpayable"},{"type":"function","name":"crossChainMinters","inputs":[{"name":"","type":"uint16","internalType":"uint16"}],"outputs":[{"name":"","type":"address","internalType":"address"}],"stateMutability":"view"},{"type":"function","name":"emergencyBurnPaused","inputs":[],"outputs":[{"name":"","type":"bool","internalType":"bool"}],"stateMutability":"view"},{"type":"function","name":"emergencyMintPaused","inputs":[],"outputs":[{"name":"","type":"bool","internalType":"bool"}],"stateMutability":"view"},{"type":"function","name":"emergencyPause","inputs":[{"name":"pauseMint","type":"bool","internalType":"bool"},{"name":"pauseBurn","type":"bool","internalType":"bool"}],"outputs":[],"stateMutability":"nonpayable"},{"type":"function","name":"emergencyWithdrawDelay","inputs":[],"outputs":[{"name":"","type":"uint256","internalType":"uint256"}],"stateMutability":"view"},{"type":"function","name":"getBurnFee","inputs":[{"name":"amount","type":"uint256","internalType":"uint256"}],"outputs":[{"name":"","type":"uint256","internalType":"uint256"}],"stateMutability":"view"},{"type":"function","name":"getMintFee","inputs":[{"name":"amount","type":"uint256","internalType":"uint256"}],"outputs":[{"name":"","type":"uint256","internalType":"uint256"}],"stateMutability":"view"},{"type":"function","name":"getRoleAdmin","inputs":[{"name":"role","type":"bytes32","internalType":"bytes32"}],"outputs":[{"name":"","type":"bytes32","internalType":"bytes32"}],"stateMutability":"view"},{"type":"function","name":"getUserMintLimit","inputs":[{"name":"user","type":"address","internalType":"address"}],"outputs":[{"name":"","type":"uint256","internalType":"uint256"}],"stateMutability":"view"},{"type":"function","name":"globalLimits","inputs":[],"outputs":[{"name":"dailyMinted","type":"uint256","internalType":"uint256"},{"name":"hourlyMinted","type":"uint256","internalType":"uint256"},{"name":"dailyBurned","type":"uint256","internalType":"uint256"},{"name":"hourlyBurned","type":"uint256","internalType":"uint256"},{"name":"lastDailyReset","type":"uint256","internalType":"uint256"},{"name":"lastHourlyReset","type":"uint256","internalType":"uint256"}],"stateMutability":"view"},{"type":"function","name":"grantRole","inputs":[{"name":"role","type":"bytes32","internalType":"bytes32"},{"name":"account","type":"address","internalType":"address"}],"outputs":[],"stateMutability":"nonpayable"},{"type":"function","name":"hasRole","inputs":[{"name":"role","type":"bytes32","internalType":"bytes32"},{"name":"account","type":"address","internalType":"address"}],"outputs":[{"name":"","type":"bool","internalType":"bool"}],"stateMutability":"view"},{"type":"function","name":"maxPriceDeviation","inputs":[],"outputs":[{"name":"","type":"uint256","internalType":"uint256"}],"stateMutability":"view"},{"type":"function","name":"mint","inputs":[{"name":"to","type":"address","internalType":"address"},{"name":"amount","type":"uint256","internalType":"uint256"}],"outputs":[{"name":"mintedAmount","type":"uint256","internalType":"uint256"}],"stateMutability":"nonpayable"},{"type":"function","name":"mintParams","inputs":[],"outputs":[{"name":"dailyLimit","type":"uint256","internalType":"uint256"},{"name":"hourlyLimit","type":"uint256","internalType":"uint256"},{"name":"perTransactionLimit","type":"uint256","internalType":"uint256"},{"name":"minMintAmount","type":"uint256","internalType":"uint256"},{"name":"mintFee","type":"uint256","internalType":"uint256"},{"name":"dynamicFeeEnabled","type":"uint256","internalType":"uint256"}],"stateMutability":"view"},{"type":"function","name":"pause","inputs":[],"outputs":[],"stateMutability":"nonpayable"},{"type":"function","name":"paused","inputs":[],"outputs":[{"name":"","type":"bool","internalType":"bool"}],"stateMutability":"view"},{"type":"function","name":"priceOracle","inputs":[],"outputs":[{"name":"","type":"address","internalType":"contract IOracle"}],"stateMutability":"view"},{"type":"function","name":"processedCrossChainMints","inputs":[{"name":"","type":"bytes32","internalType":"bytes32"}],"outputs":[{"name":"","type":"bool","internalType":"bool"}],"stateMutability":"view"},{"type":"function","name":"renounceRole","inputs":[{"name":"role","type":"bytes32","internalType":"bytes32"},{"name":"callerConfirmation","type":"address","internalType":"address"}],"outputs":[],"stateMutability":"nonpayable"},{"type":"function","name":"revokeRole","inputs":[{"name":"role","type":"bytes32","internalType":"bytes32"},{"name":"account","type":"address","internalType":"address"}],"outputs":[],"stateMutability":"nonpayable"},{"type":"function","name":"setBlacklist","inputs":[{"name":"user","type":"address","internalType":"address"},{"name":"status","type":"bool","internalType":"bool"}],"outputs":[],"stateMutability":"nonpayable"},{"type":"function","name":"setWhitelist","inputs":[{"name":"user","type":"address","internalType":"address"},{"name":"status","type":"bool","internalType":"bool"}],"outputs":[],"stateMutability":"nonpayable"},{"type":"function","name":"supplyThresholdHigh","inputs":[],"outputs":[{"name":"","type":"uint256","internalType":"uint256"}],"stateMutability":"view"},{"type":"function","name":"supplyThresholdLow","inputs":[],"outputs":[{"name":"","type":"uint256","internalType":"uint256"}],"stateMutability":"view"},{"type":"function","name":"supportsInterface","inputs":[{"name":"interfaceId","type":"bytes4","internalType":"bytes4"}],"outputs":[{"name":"","type":"bool","internalType":"bool"}],"stateMutability":"view"},{"type":"function","name":"targetSupply","inputs":[],"outputs":[{"name":"","type":"uint256","internalType":"uint256"}],"stateMutability":"view"},{"type":"function","name":"treasury","inputs":[],"outputs":[{"name":"","type":"address","internalType":"address"}],"stateMutability":"view"},{"type":"function","name":"unpause","inputs":[],"outputs":[],"stateMutability":"nonpayable"},{"type":"function","name":"updateBurnParams","inputs":[{"name":"dailyLimit","type":"uint256","internalType":"uint256"},{"name":"hourlyLimit","type":"uint256","internalType":"uint256"},{"name":"perTransactionLimit","type":"uint256","internalType":"uint256"},{"name":"minAmount","type":"uint256","internalType":"uint256"},{"name":"fee","type":"uint256","internalType":"uint256"},{"name":"cooldown","type":"uint256","internalType":"uint256"}],"outputs":[],"stateMutability":"nonpayable"},{"type":"function","name":"updateMintParams","inputs":[{"name":"dailyLimit","type":"uint256","internalType":"uint256"},{"name":"hourlyLimit","type":"uint256","internalType":"uint256"},{"name":"perTransactionLimit","type":"uint256","internalType":"uint256"},{"name":"minAmount","type":"uint256","internalType":"uint256"},{"name":"fee","type":"uint256","internalType":"uint256"},{"name":"dynamicEnabled","type":"uint256","internalType":"uint256"}],"outputs":[],"stateMutability":"nonpayable"},{"type":"function","name":"updateOracle","inputs":[{"name":"newOracle","type":"address","internalType":"address"}],"outputs":[],"stateMutability":"nonpayable"},{"type":"function","name":"userHistory","inputs":[{"name":"","type":"address","internalType":"address"}],"outputs":[{"name":"totalMinted","type":"uint256","internalType":"uint256"},{"name":"totalBurned","type":"uint256","internalType":"uint256"},{"name":"lastMintTime","type":"uint256","internalType":"uint256"},{"name":"lastBurnTime","type":"uint256","internalType":"uint256"},{"name":"mintCount","type":"uint256","internalType":"uint256"},{"name":"burnCount","type":"uint256","internalType":"uint256"}],"stateMutability":"view"},{"type":"function","name":"userLimits","inputs":[{"name":"","type":"address","internalType":"address"}],"outputs":[{"name":"dailyMinted","type":"uint256","internalType":"uint256"},{"name":"hourlyMinted","type":"uint256","internalType":"uint256"},{"name":"dailyBurned","type":"uint256","internalType":"uint256"},{"name":"hourlyBurned","type":"uint256","internalType":"uint256"},{"name":"lastDailyReset","type":"uint256","internalType":"uint256"},{"name":"lastHourlyReset","type":"uint256","internalType":"uint256"}],"stateMutability":"view"},{"type":"function","name":"vault","inputs":[],"outputs":[{"name":"","type":"address","internalType":"address"}],"stateMutability":"view"},{"type":"function","name":"whitelistedMinters","inputs":[{"name":"","type":"address","internalType":"address"}],"outputs":[{"name":"","type":"bool","internalType":"bool"}],"stateMutability":"view"},{"type":"event","name":"BlacklistUpdated","inputs":[{"name":"user","type":"address","indexed":true,"internalType":"address"},{"name":"status","type":"bool","indexed":false,"internalType":"bool"}],"anonymous":false},{"type":"event","name":"Burned","inputs":[{"name":"from","type":"address","indexed":true,"internalType":"address"},{"name":"amount","type":"uint256","indexed":false,"internalType":"uint256"},{"name":"fee","type":"uint256","indexed":false,"internalType":"uint256"}],"anonymous":false},{"type":"event","name":"CrossChainBurn","inputs":[{"name":"chainId","type":"uint16","indexed":true,"internalType":"uint16"},{"name":"from","type":"address","indexed":true,"internalType":"address"},{"name":"amount","type":"uint256","indexed":false,"internalType":"uint256"}],"anonymous":false},{"type":"event","name":"CrossChainMint","inputs":[{"name":"chainId","type":"uint16","indexed":true,"internalType":"uint16"},{"name":"to","type":"address","indexed":true,"internalType":"address"},{"name":"amount","type":"uint256","indexed":false,"internalType":"uint256"}],"anonymous":false},{"type":"event","name":"DynamicFeeApplied","inputs":[{"name":"baseFee","type":"uint256","indexed":false,"internalType":"uint256"},{"name":"dynamicFee","type":"uint256","indexed":false,"internalType":"uint256"}],"anonymous":false},{"type":"event","name":"EmergencyPause","inputs":[{"name":"mintPaused","type":"bool","indexed":false,"internalType":"bool"},{"name":"burnPaused","type":"bool","indexed":false,"internalType":"bool"}],"anonymous":false},{"type":"event","name":"FeesCollected","inputs":[{"name":"amount","type":"uint256","indexed":false,"internalType":"uint256"}],"anonymous":false},{"type":"event","name":"Minted","inputs":[{"name":"to","type":"address","indexed":true,"internalType":"address"},{"name":"amount","type":"uint256","indexed":false,"internalType":"uint256"},{"name":"fee","type":"uint256","indexed":false,"internalType":"uint256"}],"anonymous":false},{"type":"event","name":"ParametersUpdated","inputs":[{"name":"paramType","type":"string","indexed":false,"internalType":"string"}],"anonymous":false},{"type":"event","name":"Paused","inputs":[{"name":"account","type":"address","indexed":false,"internalType":"address"}],"anonymous":false},{"type":"event","name":"RoleAdminChanged","inputs":[{"name":"role","type":"bytes32","indexed":true,"internalType":"bytes32"},{"name":"previousAdminRole","type":"bytes32","indexed":true,"internalType":"bytes32"},{"name":"newAdminRole","type":"bytes32","indexed":true,"internalType":"bytes32"}],"anonymous":false},{"type":"event","name":"RoleGranted","inputs":[{"name":"role","type":"bytes32","indexed":true,"internalType":"bytes32"},{"name":"account","type":"address","indexed":true,"internalType":"address"},{"name":"sender","type":"address","indexed":true,"internalType":"address"}],"anonymous":false},{"type":"event","name":"RoleRevoked","inputs":[{"name":"role","type":"bytes32","indexed":true,"internalType":"bytes32"},{"name":"account","type":"address","indexed":true,"internalType":"address"},{"name":"sender","type":"address","indexed":true,"internalType":"address"}],"anonymous":false},{"type":"event","name":"Unpaused","inputs":[{"name":"account","type":"address","indexed":false,"internalType":"address"}],"anonymous":false},{"type":"event","name":"WhitelistUpdated","inputs":[{"name":"user","type":"address","indexed":true,"internalType":"address"},{"name":"status","type":"bool","indexed":false,"internalType":"bool"}],"anonymous":false},{"type":"error","name":"AccessControlBadConfirmation","inputs":[]},{"type":"error","name":"AccessControlUnauthorizedAccount","inputs":[{"name":"account","type":"address","internalType":"address"},{"name":"neededRole","type":"bytes32","internalType":"bytes32"}]},{"type":"error","name":"AlreadyProcessed","inputs":[]},{"type":"error","name":"AmountTooLarge","inputs":[]},{"type":"error","name":"AmountTooSmall","inputs":[]},{"type":"error","name":"Blacklisted","inputs":[]},{"type":"error","name":"CooldownActive","inputs":[]},{"type":"error","name":"DailyLimitExceeded","inputs":[]},{"type":"error","name":"EmergencyPause","inputs":[]},{"type":"error","name":"EnforcedPause","inputs":[]},{"type":"error","name":"ExpectedPause","inputs":[]},{"type":"error","name":"HourlyLimitExceeded","inputs":[]},{"type":"error","name":"NotWhitelisted","inputs":[]},{"type":"error","name":"PriceDeviationTooHigh","inputs":[]},{"type":"error","name":"ReentrancyGuardReentrantCall","inputs":[]},{"type":"error","name":"SafeERC20FailedOperation","inputs":[{"name":"token","type":"address","internalType":"address"}]},{"type":"error","name":"ZeroAddress","inputs":[]}],"bytecode":{"object":"0x60c06040526127d8601c55612648601d556203f480601f5561012c602355348015610028575f5ffd5b50604051613ebc380380613ebc833981810160405281019061004a91906105b6565b600180819055505f73ffffffffffffffffffffffffffffffffffffffff168473ffffffffffffffffffffffffffffffffffffffff1614806100b657505f73ffffffffffffffffffffffffffffffffffffffff168373ffffffffffffffffffffffffffffffffffffffff16145b806100ec57505f73ffffffffffffffffffffffffffffffffffffffff168273ffffffffffffffffffffffffffffffffffffffff16145b15610123576040517fd92e233d00000000000000000000000000000000000000000000000000000000815260040160405180910390fd5b8373ffffffffffffffffffffffffffffffffffffffff1660808173ffffffffffffffffffffffffffffffffffffffff16815250508273ffffffffffffffffffffffffffffffffffffffff1660a08173ffffffffffffffffffffffffffffffffffffffff16815250508160205f6101000a81548173ffffffffffffffffffffffffffffffffffffffff021916908373ffffffffffffffffffffffffffffffffffffffff1602179055508060225f6101000a81548173ffffffffffffffffffffffffffffffffffffffff021916908373ffffffffffffffffffffffffffffffffffffffff16021790555061021d5f5f1b336103f960201b60201c565b5061024e7f9f2df0fed2c77648de5860a4cc508cd0818c85b8b8a1ab4ceeef8d981c8956a6846103f960201b60201c565b5061027f7f97667070c54ef182b0f5858b034beac1b6f3089aa2d3188bb1e8929f4fa9b929336103f960201b60201c565b506102b07f55435dd261a4b9b3364963f7738a7a662ad9c84396d64be3365284bb7f0a5041336103f960201b60201c565b506040518060c001604052806a084595161401484a000000815260200169d3c21bcecceda1000000815260200169152d02c7e14af6800000815260200168056bc75e2d631000008152602001601e8152602001600181525060035f820151815f01556020820151816001015560408201518160020155606082015181600301556080820151816004015560a082015181600501559050506040518060c001604052806a084595161401484a000000815260200169d3c21bcecceda1000000815260200169152d02c7e14af6800000815260200168056bc75e2d631000008152602001601e8152602001610e1081525060095f820151815f01556020820151816001015560408201518160020155606082015181600301556080820151816004015560a082015181600501559050506a52b7d2dcc80cd2e4000000601b819055505050505061061a565b5f61040a83836104ee60201b60201c565b6104e45760015f5f8581526020019081526020015f205f015f8473ffffffffffffffffffffffffffffffffffffffff1673ffffffffffffffffffffffffffffffffffffffff1681526020019081526020015f205f6101000a81548160ff02191690831515021790555061048161055160201b60201c565b73ffffffffffffffffffffffffffffffffffffffff168273ffffffffffffffffffffffffffffffffffffffff16847f2f8788117e7eff1d82e926ec794901d17c78024a50270940304540a733656f0d60405160405180910390a4600190506104e8565b5f90505b92915050565b5f5f5f8481526020019081526020015f205f015f8373ffffffffffffffffffffffffffffffffffffffff1673ffffffffffffffffffffffffffffffffffffffff1681526020019081526020015f205f9054906101000a900460ff16905092915050565b5f33905090565b5f5ffd5b5f73ffffffffffffffffffffffffffffffffffffffff82169050919050565b5f6105858261055c565b9050919050565b6105958161057b565b811461059f575f5ffd5b50565b5f815190506105b08161058c565b92915050565b5f5f5f5f608085870312156105ce576105cd610558565b5b5f6105db878288016105a2565b94505060206105ec878288016105a2565b93505060406105fd878288016105a2565b925050606061060e878288016105a2565b91505092959194509250565b60805160a05161385061066c5f395f61218f01525f8181611321015281816113b1015281816117d001528181611817015281816118cb01528181611a610152818161200f015261226801526138505ff3fe608060405234801561000f575f5ffd5b506004361061030a575f3560e01c806362645e271161019b578063ad20d2e6116100e7578063dbac26e9116100a0578063e63a391f1161007a578063e63a391f14610973578063ed1e008514610991578063f5b541a6146109c1578063fbfa77cf146109df5761030a565b8063dbac26e914610907578063e1c56c8b14610937578063e546bd4b146109555761030a565b8063ad20d2e614610852578063c2e11e3f14610882578063c8796572146108a5578063cb2c8c66146108af578063d5391393146108cd578063d547741f146108eb5761030a565b806391d1485411610154578063975b86621161012e578063975b8662146107da5780639a0401db146107f8578063a217fddf14610816578063aaf5eb68146108345761030a565b806391d148541461077057806395082d25146107a05780639652fc95146107be5761030a565b806362645e27146106bb5780636e6074b6146106d757806372070b81146106f55780637469eecc146107135780638456cb59146107365780638ec3155c146107405761030a565b80632c1bc2b21161025a5780634348cbf611610213578063587f5ed7116101ed578063587f5ed7146106315780635a72fa3a1461064f5780635c975abb1461067f57806361d027b31461069d5761030a565b80634348cbf6146105c95780634c17b93b146105e557806353d6fd59146106155761030a565b80632c1bc2b2146104f25780632f2ff15d1461052757806336568abe146105435780633f4ba83a1461055f57806340c10f191461056957806342966c68146105995761030a565b806323bf4e9c116102c75780632630c12f116102a15780632630c12f14610468578063282c51f31461048657806329524ba8146104a45780632a1eafd9146104d45761030a565b806323bf4e9c146103fe578063248a9ca31461041a57806324ea54f41461044a5761030a565b806301ffc9a71461030e5780630d5e34a41461033e578063100cd71d1461036e578063150cf4bf146103a3578063153b0d1e146103c65780631cb44dfc146103e2575b5f5ffd5b61032860048036038101906103239190612e38565b6109fd565b6040516103359190612e7d565b60405180910390f35b61035860048036038101906103539190612f23565b610a76565b6040516103659190612e7d565b60405180910390f35b61038860048036038101906103839190612f61565b610bed565b60405161039a96959493929190612f9b565b60405180910390f35b6103ab610c25565b6040516103bd96959493929190612f9b565b60405180910390f35b6103e060048036038101906103db9190613024565b610c4e565b005b6103fc60048036038101906103f79190612f61565b610d1f565b005b61041860048036038101906104139190613062565b610dd4565b005b610434600480360381019061042f91906130d3565b610e6f565b604051610441919061310d565b60405180910390f35b610452610e8b565b60405161045f919061310d565b60405180910390f35b610470610eaf565b60405161047d9190613181565b60405180910390f35b61048e610ed4565b60405161049b919061310d565b60405180910390f35b6104be60048036038101906104b9919061319a565b610ef8565b6040516104cb91906131c5565b60405180910390f35b6104dc610f09565b6040516104e991906131c5565b60405180910390f35b61050c60048036038101906105079190612f61565b610f0f565b60405161051e96959493929190612f9b565b60405180910390f35b610541600480360381019061053c91906131de565b610f47565b005b61055d600480360381019061055891906131de565b610f69565b005b610567610fe4565b005b610583600480360381019061057e9190612f23565b611019565b60405161059091906131c5565b60405180910390f35b6105b360048036038101906105ae919061319a565b6114d1565b6040516105c091906131c5565b60405180910390f35b6105e360048036038101906105de9190613253565b611987565b005b6105ff60048036038101906105fa9190612f61565b611b42565b60405161060c91906131c5565b60405180910390f35b61062f600480360381019061062a9190613024565b611c20565b005b610639611cf1565b60405161064691906131c5565b60405180910390f35b610669600480360381019061066491906130d3565b611cf7565b6040516106769190612e7d565b60405180910390f35b610687611d14565b6040516106949190612e7d565b60405180910390f35b6106a5611d29565b6040516106b291906132c6565b60405180910390f35b6106d560048036038101906106d091906132df565b611d4e565b005b6106df611e22565b6040516106ec9190612e7d565b60405180910390f35b6106fd611e34565b60405161070a91906131c5565b60405180910390f35b61071b611e3a565b60405161072d96959493929190612f9b565b60405180910390f35b61073e611e63565b005b61075a60048036038101906107559190613368565b611e98565b60405161076791906132c6565b60405180910390f35b61078a600480360381019061078591906131de565b611ec8565b6040516107979190612e7d565b60405180910390f35b6107a8611f2b565b6040516107b591906131c5565b60405180910390f35b6107d860048036038101906107d391906132df565b611f33565b005b6107e2612007565b6040516107ef91906131c5565b60405180910390f35b61080061200d565b60405161080d91906133b3565b60405180910390f35b61081e612031565b60405161082b919061310d565b60405180910390f35b61083c612037565b60405161084991906131c5565b60405180910390f35b61086c6004803603810190610867919061319a565b612043565b60405161087991906131c5565b60405180910390f35b61088a612054565b60405161089c96959493929190612f9b565b60405180910390f35b6108ad61207d565b005b6108b76120c4565b6040516108c491906131c5565b60405180910390f35b6108d56120ca565b6040516108e2919061310d565b60405180910390f35b610905600480360381019061090091906131de565b6120ee565b005b610921600480360381019061091c9190612f61565b612110565b60405161092e9190612e7d565b60405180910390f35b61093f61212d565b60405161094c91906131c5565b60405180910390f35b61095d612133565b60405161096a9190612e7d565b60405180910390f35b61097b612146565b60405161098891906131c5565b60405180910390f35b6109ab60048036038101906109a69190612f61565b61214c565b6040516109b89190612e7d565b60405180910390f35b6109c9612169565b6040516109d6919061310d565b60405180910390f35b6109e761218d565b6040516109f491906132c6565b60405180910390f35b5f7f7965db0b000000000000000000000000000000000000000000000000000000007bffffffffffffffffffffffffffffffffffffffffffffffffffffffff1916827bffffffffffffffffffffffffffffffffffffffffffffffffffffffff19161480610a6f5750610a6e826121b1565b5b9050919050565b5f60185f8473ffffffffffffffffffffffffffffffffffffffff1673ffffffffffffffffffffffffffffffffffffffff1681526020019081526020015f205f9054906101000a900460ff1615610ace575f9050610be7565b601e5f9054906101000a900460ff1615610aea575f9050610be7565b6003800154821015610afe575f9050610be7565b600360020154821115610b13575f9050610be7565b5f600f5f8573ffffffffffffffffffffffffffffffffffffffff1673ffffffffffffffffffffffffffffffffffffffff1681526020019081526020015f206040518060c00160405290815f820154815260200160018201548152602001600282015481526020016003820154815260200160048201548152602001600582015481525050905060035f015483825f0151610bad91906133f9565b1115610bbc575f915050610be7565b600360010154838260200151610bd291906133f9565b1115610be1575f915050610be7565b60019150505b92915050565b6016602052805f5260405f205f91509050805f0154908060010154908060020154908060030154908060040154908060050154905086565b6003805f0154908060010154908060020154908060030154908060040154908060050154905086565b7f55435dd261a4b9b3364963f7738a7a662ad9c84396d64be3365284bb7f0a5041610c788161221a565b8160185f8573ffffffffffffffffffffffffffffffffffffffff1673ffffffffffffffffffffffffffffffffffffffff1681526020019081526020015f205f6101000a81548160ff0219169083151502179055508273ffffffffffffffffffffffffffffffffffffffff167f6a12b3df6cba4203bd7fd06b816789f87de8c594299aed5717ae070fac781bac83604051610d129190612e7d565b60405180910390a2505050565b5f5f1b610d2b8161221a565b5f73ffffffffffffffffffffffffffffffffffffffff168273ffffffffffffffffffffffffffffffffffffffff1603610d90576040517fd92e233d00000000000000000000000000000000000000000000000000000000815260040160405180910390fd5b8160225f6101000a81548173ffffffffffffffffffffffffffffffffffffffff021916908373ffffffffffffffffffffffffffffffffffffffff1602179055505050565b7f55435dd261a4b9b3364963f7738a7a662ad9c84396d64be3365284bb7f0a5041610dfe8161221a565b82601e5f6101000a81548160ff02191690831515021790555081601e60016101000a81548160ff0219169083151502179055507fda15e989e02798e0b63a6157a39cc71779d78c48dc9d8b643392aef18f20954b8383604051610e6292919061342c565b60405180910390a1505050565b5f5f5f8381526020019081526020015f20600101549050919050565b7f55435dd261a4b9b3364963f7738a7a662ad9c84396d64be3365284bb7f0a504181565b60225f9054906101000a900473ffffffffffffffffffffffffffffffffffffffff1681565b7f3c11d16cbaffd01df69ce1c404f6340ee057498f5f00246190ea54220576a84881565b5f610f028261222e565b9050919050565b601b5481565b600f602052805f5260405f205f91509050805f0154908060010154908060020154908060030154908060040154908060050154905086565b610f5082610e6f565b610f598161221a565b610f6383836123f6565b50505050565b610f716124df565b73ffffffffffffffffffffffffffffffffffffffff168173ffffffffffffffffffffffffffffffffffffffff1614610fd5576040517f6697b23200000000000000000000000000000000000000000000000000000000815260040160405180910390fd5b610fdf82826124e6565b505050565b7f55435dd261a4b9b3364963f7738a7a662ad9c84396d64be3365284bb7f0a504161100e8161221a565b6110166125cf565b50565b5f611022612630565b61102a612676565b60185f3373ffffffffffffffffffffffffffffffffffffffff1673ffffffffffffffffffffffffffffffffffffffff1681526020019081526020015f205f9054906101000a900460ff16156110ab576040517f09550c7700000000000000000000000000000000000000000000000000000000815260040160405180910390fd5b6001600360050154148015611107575060175f3373ffffffffffffffffffffffffffffffffffffffff1673ffffffffffffffffffffffffffffffffffffffff1681526020019081526020015f205f9054906101000a900460ff16155b1561113e576040517f584a793800000000000000000000000000000000000000000000000000000000815260040160405180910390fd5b8161114b338260016126b7565b601e5f9054906101000a900460ff1615611191576040517f3e57324e00000000000000000000000000000000000000000000000000000000815260040160405180910390fd5b60038001548310156111cf576040517fc2f5625a00000000000000000000000000000000000000000000000000000000815260040160405180910390fd5b60036002015483111561120e576040517f0625040100000000000000000000000000000000000000000000000000000000815260040160405180910390fd5b6112166129ec565b5f6112208461222e565b9050808461122e9190613453565b92508360165f3373ffffffffffffffffffffffffffffffffffffffff1673ffffffffffffffffffffffffffffffffffffffff1681526020019081526020015f205f015f82825461127e91906133f9565b925050819055504260165f3373ffffffffffffffffffffffffffffffffffffffff1673ffffffffffffffffffffffffffffffffffffffff1681526020019081526020015f206002018190555060165f3373ffffffffffffffffffffffffffffffffffffffff1673ffffffffffffffffffffffffffffffffffffffff1681526020019081526020015f206004015f81548092919061131a90613486565b91905055507f000000000000000000000000000000000000000000000000000000000000000073ffffffffffffffffffffffffffffffffffffffff166340c10f1986856040518363ffffffff1660e01b815260040161137a9291906134cd565b5f604051808303815f87803b158015611391575f5ffd5b505af11580156113a3573d5f5f3e3d5ffd5b505050505f811115611471577f000000000000000000000000000000000000000000000000000000000000000073ffffffffffffffffffffffffffffffffffffffff166340c10f1960205f9054906101000a900473ffffffffffffffffffffffffffffffffffffffff16836040518363ffffffff1660e01b815260040161142b9291906134cd565b5f604051808303815f87803b158015611442575f5ffd5b505af1158015611454573d5f5f3e3d5ffd5b505050508060215f82825461146991906133f9565b925050819055505b8473ffffffffffffffffffffffffffffffffffffffff167f25b428dfde728ccfaddad7e29e4ac23c24ed7fd1a6e3e3f91894a9a073f5dfff84836040516114b99291906134f4565b60405180910390a250506114cb612b21565b92915050565b5f6114da612630565b6114e2612676565b60185f3373ffffffffffffffffffffffffffffffffffffffff1673ffffffffffffffffffffffffffffffffffffffff1681526020019081526020015f205f9054906101000a900460ff1615611563576040517f09550c7700000000000000000000000000000000000000000000000000000000815260040160405180910390fd5b8161156f33825f6126b7565b601e60019054906101000a900460ff16156115b6576040517f3e57324e00000000000000000000000000000000000000000000000000000000815260040160405180910390fd5b6009600301548310156115f5576040517fc2f5625a00000000000000000000000000000000000000000000000000000000815260040160405180910390fd5b600960020154831115611634576040517f0625040100000000000000000000000000000000000000000000000000000000815260040160405180910390fd5b60096005015460165f3373ffffffffffffffffffffffffffffffffffffffff1673ffffffffffffffffffffffffffffffffffffffff1681526020019081526020015f206003015461168591906133f9565b4210156116be576040517faa9a98df00000000000000000000000000000000000000000000000000000000815260040160405180910390fd5b5f6116c884612b2a565b905080846116d69190613453565b92508260165f3373ffffffffffffffffffffffffffffffffffffffff1673ffffffffffffffffffffffffffffffffffffffff1681526020019081526020015f206001015f82825461172791906133f9565b925050819055504260165f3373ffffffffffffffffffffffffffffffffffffffff1673ffffffffffffffffffffffffffffffffffffffff1681526020019081526020015f206003018190555060165f3373ffffffffffffffffffffffffffffffffffffffff1673ffffffffffffffffffffffffffffffffffffffff1681526020019081526020015f206005015f8154809291906117c390613486565b91905055506118153330867f000000000000000000000000000000000000000000000000000000000000000073ffffffffffffffffffffffffffffffffffffffff16612b50909392919063ffffffff16565b7f000000000000000000000000000000000000000000000000000000000000000073ffffffffffffffffffffffffffffffffffffffff166342966c68846040518263ffffffff1660e01b815260040161186e91906131c5565b5f604051808303815f87803b158015611885575f5ffd5b505af1158015611897573d5f5f3e3d5ffd5b505050505f8111156119285761190f60205f9054906101000a900473ffffffffffffffffffffffffffffffffffffffff16827f000000000000000000000000000000000000000000000000000000000000000073ffffffffffffffffffffffffffffffffffffffff16612bd29092919063ffffffff16565b8060215f82825461192091906133f9565b925050819055505b3373ffffffffffffffffffffffffffffffffffffffff167f23ff0e75edf108e3d0392d92e13e8c8a868ef19001bd49f9e94876dc46dff87f84836040516119709291906134f4565b60405180910390a25050611982612b21565b919050565b7f9f2df0fed2c77648de5860a4cc508cd0818c85b8b8a1ab4ceeef8d981c8956a66119b18161221a565b5f858585856040516020016119c994939291906135b4565b604051602081830303815290604052805190602001209050601a5f8281526020019081526020015f205f9054906101000a900460ff1615611a36576040517f57eee76600000000000000000000000000000000000000000000000000000000815260040160405180910390fd5b6001601a5f8381526020019081526020015f205f6101000a81548160ff0219169083151502179055507f000000000000000000000000000000000000000000000000000000000000000073ffffffffffffffffffffffffffffffffffffffff166340c10f1986866040518363ffffffff1660e01b8152600401611aba9291906134cd565b5f604051808303815f87803b158015611ad1575f5ffd5b505af1158015611ae3573d5f5f3e3d5ffd5b505050508473ffffffffffffffffffffffffffffffffffffffff168661ffff167fde3efa2651c9e15a3a94c9449af526b01b6411fd99cdae3fae00ab304c8596df86604051611b3291906131c5565b60405180910390a3505050505050565b5f5f600f5f8473ffffffffffffffffffffffffffffffffffffffff1673ffffffffffffffffffffffffffffffffffffffff1681526020019081526020015f206040518060c00160405290815f8201548152602001600182015481526020016002820154815260200160038201548152602001600482015481526020016005820154815250509050620151808160800151611bdc91906133f9565b4210611bef5760035f0154915050611c1b565b805f015160035f015411611c03575f611c17565b805f015160035f0154611c169190613453565b5b9150505b919050565b7f97667070c54ef182b0f5858b034beac1b6f3089aa2d3188bb1e8929f4fa9b929611c4a8161221a565b8160175f8573ffffffffffffffffffffffffffffffffffffffff1673ffffffffffffffffffffffffffffffffffffffff1681526020019081526020015f205f6101000a81548160ff0219169083151502179055508273ffffffffffffffffffffffffffffffffffffffff167ff93f9a76c1bf3444d22400a00cb9fe990e6abe9dbb333fda48859cfee864543d83604051611ce49190612e7d565b60405180910390a2505050565b60215481565b601a602052805f5260405f205f915054906101000a900460ff1681565b5f60025f9054906101000a900460ff16905090565b60205f9054906101000a900473ffffffffffffffffffffffffffffffffffffffff1681565b7f97667070c54ef182b0f5858b034beac1b6f3089aa2d3188bb1e8929f4fa9b929611d788161221a565b6040518060c001604052808881526020018781526020018681526020018581526020018481526020018381525060095f820151815f01556020820151816001015560408201518160020155606082015181600301556080820151816004015560a082015181600501559050507fbcf5f4617a7df33d6ea208ceee9f4d83fcb8ab7fb09139a0bfb80f58062b2318604051611e119061365b565b60405180910390a150505050505050565b601e5f9054906101000a900460ff1681565b601f5481565b6009805f0154908060010154908060020154908060030154908060040154908060050154905086565b7f55435dd261a4b9b3364963f7738a7a662ad9c84396d64be3365284bb7f0a5041611e8d8161221a565b611e95612c51565b50565b6019602052805f5260405f205f915054906101000a900473ffffffffffffffffffffffffffffffffffffffff1681565b5f5f5f8481526020019081526020015f205f015f8373ffffffffffffffffffffffffffffffffffffffff1673ffffffffffffffffffffffffffffffffffffffff1681526020019081526020015f205f9054906101000a900460ff16905092915050565b6305f5e10081565b7f97667070c54ef182b0f5858b034beac1b6f3089aa2d3188bb1e8929f4fa9b929611f5d8161221a565b6040518060c001604052808881526020018781526020018681526020018581526020018481526020018381525060035f820151815f01556020820151816001015560408201518160020155606082015181600301556080820151816004015560a082015181600501559050507fbcf5f4617a7df33d6ea208ceee9f4d83fcb8ab7fb09139a0bfb80f58062b2318604051611ff6906136c3565b60405180910390a150505050505050565b60235481565b7f000000000000000000000000000000000000000000000000000000000000000081565b5f5f1b81565b670de0b6b3a764000081565b5f61204d82612b2a565b9050919050565b6010805f0154908060010154908060020154908060030154908060040154908060050154905086565b5f60215490505f6021819055507f860c0aa5520013080c2f65981705fcdea474d9f7c3daf954656ed5e65d692d1f816040516120b991906131c5565b60405180910390a150565b601d5481565b7f9f2df0fed2c77648de5860a4cc508cd0818c85b8b8a1ab4ceeef8d981c8956a681565b6120f782610e6f565b6121008161221a565b61210a83836124e6565b50505050565b6018602052805f5260405f205f915054906101000a900460ff1681565b601c5481565b601e60019054906101000a900460ff1681565b61271081565b6017602052805f5260405f205f915054906101000a900460ff1681565b7f97667070c54ef182b0f5858b034beac1b6f3089aa2d3188bb1e8929f4fa9b92981565b7f000000000000000000000000000000000000000000000000000000000000000081565b5f7f01ffc9a7000000000000000000000000000000000000000000000000000000007bffffffffffffffffffffffffffffffffffffffffffffffffffffffff1916827bffffffffffffffffffffffffffffffffffffffffffffffffffffffff1916149050919050565b61222b816122266124df565b612cb3565b50565b5f5f6127106003600401548461224491906136e1565b61224e919061374f565b90505f6003600501540361226557809150506123f1565b5f7f000000000000000000000000000000000000000000000000000000000000000073ffffffffffffffffffffffffffffffffffffffff166318160ddd6040518163ffffffff1660e01b8152600401602060405180830381865afa1580156122cf573d5f5f3e3d5ffd5b505050506040513d601f19601f820116820180604052508101906122f39190613793565b90505f601b546127108361230791906136e1565b612311919061374f565b9050601c54811115612375575f60646002612710846123309190613453565b61233a91906136e1565b612344919061374f565b9050612710818561235591906136e1565b61235f919061374f565b8461236a91906133f9565b9450505050506123f1565b601d548110156123ea575f60646032836127106123929190613453565b61239c91906136e1565b6123a6919061374f565b90505f61271082866123b891906136e1565b6123c2919061374f565b90508085116123d1575f6123de565b80856123dd9190613453565b5b955050505050506123f1565b8293505050505b919050565b5f6124018383611ec8565b6124d55760015f5f8581526020019081526020015f205f015f8473ffffffffffffffffffffffffffffffffffffffff1673ffffffffffffffffffffffffffffffffffffffff1681526020019081526020015f205f6101000a81548160ff0219169083151502179055506124726124df565b73ffffffffffffffffffffffffffffffffffffffff168273ffffffffffffffffffffffffffffffffffffffff16847f2f8788117e7eff1d82e926ec794901d17c78024a50270940304540a733656f0d60405160405180910390a4600190506124d9565b5f90505b92915050565b5f33905090565b5f6124f18383611ec8565b156125c5575f5f5f8581526020019081526020015f205f015f8473ffffffffffffffffffffffffffffffffffffffff1673ffffffffffffffffffffffffffffffffffffffff1681526020019081526020015f205f6101000a81548160ff0219169083151502179055506125626124df565b73ffffffffffffffffffffffffffffffffffffffff168273ffffffffffffffffffffffffffffffffffffffff16847ff6391f5c32d9c69d2a47ea670b442974b53935d1edc7fd64eb21e047a839171b60405160405180910390a4600190506125c9565b5f90505b92915050565b6125d7612d04565b5f60025f6101000a81548160ff0219169083151502179055507f5db9ee0a495bf2e6ff9c91a7834c1ba4fdd244a5e8aa4e537bd38aeae4b073aa6126196124df565b60405161262691906132c6565b60405180910390a1565b60026001540361266c576040517f3ee5aeb500000000000000000000000000000000000000000000000000000000815260040160405180910390fd5b6002600181905550565b61267e611d14565b156126b5576040517fd93c066500000000000000000000000000000000000000000000000000000000815260040160405180910390fd5b565b620151806010600401546126cb91906133f9565b42106126ef575f60105f01819055505f601060020181905550426010600401819055505b610e1060106005015461270291906133f9565b4210612727575f6010600101819055505f601060030181905550426010600501819055505b5f600f5f8573ffffffffffffffffffffffffffffffffffffffff1673ffffffffffffffffffffffffffffffffffffffff1681526020019081526020015f20905062015180816004015461277a91906133f9565b421061279b575f815f01819055505f81600201819055504281600401819055505b610e1081600501546127ad91906133f9565b42106127cf575f81600101819055505f81600301819055504281600501819055505b81156128de5760035f01548360105f01546127ea91906133f9565b1115612822576040517f194bd31400000000000000000000000000000000000000000000000000000000815260040160405180910390fd5b6003600101548360106001015461283991906133f9565b1115612871576040517f6d43d1ac00000000000000000000000000000000000000000000000000000000815260040160405180910390fd5b8260105f015f82825461288491906133f9565b925050819055508260106001015f82825461289f91906133f9565b9250508190555082815f015f8282546128b891906133f9565b9250508190555082816001015f8282546128d291906133f9565b925050819055506129e6565b60095f0154836010600201546128f491906133f9565b111561292c576040517f194bd31400000000000000000000000000000000000000000000000000000000815260040160405180910390fd5b6009600101548360106003015461294391906133f9565b111561297b576040517f6d43d1ac00000000000000000000000000000000000000000000000000000000815260040160405180910390fd5b8260106002015f82825461298f91906133f9565b925050819055508260106003015f8282546129aa91906133f9565b9250508190555082816002015f8282546129c491906133f9565b9250508190555082816003015f8282546129de91906133f9565b925050819055505b50505050565b5f60225f9054906101000a900473ffffffffffffffffffffffffffffffffffffffff1673ffffffffffffffffffffffffffffffffffffffff166398d5fdca6040518163ffffffff1660e01b8152600401602060405180830381865afa158015612a57573d5f5f3e3d5ffd5b505050506040513d601f19601f82011682018060405250810190612a7b9190613793565b90505f6305f5e10090505f81831115612ab957816127108385612a9e9190613453565b612aa891906136e1565b612ab2919061374f565b9050612ae0565b816127108484612ac99190613453565b612ad391906136e1565b612add919061374f565b90505b602354811115612b1c576040517fd3c4a2f200000000000000000000000000000000000000000000000000000000815260040160405180910390fd5b505050565b60018081905550565b5f61271060096004015483612b3f91906136e1565b612b49919061374f565b9050919050565b612bcc848573ffffffffffffffffffffffffffffffffffffffff166323b872dd868686604051602401612b85939291906137be565b604051602081830303815290604052915060e01b6020820180517bffffffffffffffffffffffffffffffffffffffffffffffffffffffff8381831617835250505050612d44565b50505050565b612c4c838473ffffffffffffffffffffffffffffffffffffffff1663a9059cbb8585604051602401612c059291906134cd565b604051602081830303815290604052915060e01b6020820180517bffffffffffffffffffffffffffffffffffffffffffffffffffffffff8381831617835250505050612d44565b505050565b612c59612676565b600160025f6101000a81548160ff0219169083151502179055507f62e78cea01bee320cd4e420270b5ea74000d11b0c9f74754ebdbfc544b05a258612c9c6124df565b604051612ca991906132c6565b60405180910390a1565b612cbd8282611ec8565b612d005780826040517fe2517d3f000000000000000000000000000000000000000000000000000000008152600401612cf79291906137f3565b60405180910390fd5b5050565b612d0c611d14565b612d42576040517f8dfc202b00000000000000000000000000000000000000000000000000000000815260040160405180910390fd5b565b5f5f60205f8451602086015f885af180612d63576040513d5f823e3d81fd5b3d92505f519150505f8214612d7c576001811415612d97565b5f8473ffffffffffffffffffffffffffffffffffffffff163b145b15612dd957836040517f5274afe7000000000000000000000000000000000000000000000000000000008152600401612dd091906132c6565b60405180910390fd5b50505050565b5f5ffd5b5f7fffffffff0000000000000000000000000000000000000000000000000000000082169050919050565b612e1781612de3565b8114612e21575f5ffd5b50565b5f81359050612e3281612e0e565b92915050565b5f60208284031215612e4d57612e4c612ddf565b5b5f612e5a84828501612e24565b91505092915050565b5f8115159050919050565b612e7781612e63565b82525050565b5f602082019050612e905f830184612e6e565b92915050565b5f73ffffffffffffffffffffffffffffffffffffffff82169050919050565b5f612ebf82612e96565b9050919050565b612ecf81612eb5565b8114612ed9575f5ffd5b50565b5f81359050612eea81612ec6565b92915050565b5f819050919050565b612f0281612ef0565b8114612f0c575f5ffd5b50565b5f81359050612f1d81612ef9565b92915050565b5f5f60408385031215612f3957612f38612ddf565b5b5f612f4685828601612edc565b9250506020612f5785828601612f0f565b9150509250929050565b5f60208284031215612f7657612f75612ddf565b5b5f612f8384828501612edc565b91505092915050565b612f9581612ef0565b82525050565b5f60c082019050612fae5f830189612f8c565b612fbb6020830188612f8c565b612fc86040830187612f8c565b612fd56060830186612f8c565b612fe26080830185612f8c565b612fef60a0830184612f8c565b979650505050505050565b61300381612e63565b811461300d575f5ffd5b50565b5f8135905061301e81612ffa565b92915050565b5f5f6040838503121561303a57613039612ddf565b5b5f61304785828601612edc565b925050602061305885828601613010565b9150509250929050565b5f5f6040838503121561307857613077612ddf565b5b5f61308585828601613010565b925050602061309685828601613010565b9150509250929050565b5f819050919050565b6130b2816130a0565b81146130bc575f5ffd5b50565b5f813590506130cd816130a9565b92915050565b5f602082840312156130e8576130e7612ddf565b5b5f6130f5848285016130bf565b91505092915050565b613107816130a0565b82525050565b5f6020820190506131205f8301846130fe565b92915050565b5f819050919050565b5f61314961314461313f84612e96565b613126565b612e96565b9050919050565b5f61315a8261312f565b9050919050565b5f61316b82613150565b9050919050565b61317b81613161565b82525050565b5f6020820190506131945f830184613172565b92915050565b5f602082840312156131af576131ae612ddf565b5b5f6131bc84828501612f0f565b91505092915050565b5f6020820190506131d85f830184612f8c565b92915050565b5f5f604083850312156131f4576131f3612ddf565b5b5f613201858286016130bf565b925050602061321285828601612edc565b9150509250929050565b5f61ffff82169050919050565b6132328161321c565b811461323c575f5ffd5b50565b5f8135905061324d81613229565b92915050565b5f5f5f5f6080858703121561326b5761326a612ddf565b5b5f6132788782880161323f565b945050602061328987828801612edc565b935050604061329a87828801612f0f565b92505060606132ab87828801612f0f565b91505092959194509250565b6132c081612eb5565b82525050565b5f6020820190506132d95f8301846132b7565b92915050565b5f5f5f5f5f5f60c087890312156132f9576132f8612ddf565b5b5f61330689828a01612f0f565b965050602061331789828a01612f0f565b955050604061332889828a01612f0f565b945050606061333989828a01612f0f565b935050608061334a89828a01612f0f565b92505060a061335b89828a01612f0f565b9150509295509295509295565b5f6020828403121561337d5761337c612ddf565b5b5f61338a8482850161323f565b91505092915050565b5f61339d82613150565b9050919050565b6133ad81613393565b82525050565b5f6020820190506133c65f8301846133a4565b92915050565b7f4e487b71000000000000000000000000000000000000000000000000000000005f52601160045260245ffd5b5f61340382612ef0565b915061340e83612ef0565b9250828201905080821115613426576134256133cc565b5b92915050565b5f60408201905061343f5f830185612e6e565b61344c6020830184612e6e565b9392505050565b5f61345d82612ef0565b915061346883612ef0565b92508282039050818111156134805761347f6133cc565b5b92915050565b5f61349082612ef0565b91507fffffffffffffffffffffffffffffffffffffffffffffffffffffffffffffffff82036134c2576134c16133cc565b5b600182019050919050565b5f6040820190506134e05f8301856132b7565b6134ed6020830184612f8c565b9392505050565b5f6040820190506135075f830185612f8c565b6135146020830184612f8c565b9392505050565b5f8160f01b9050919050565b5f6135318261351b565b9050919050565b6135496135448261321c565b613527565b82525050565b5f8160601b9050919050565b5f6135658261354f565b9050919050565b5f6135768261355b565b9050919050565b61358e61358982612eb5565b61356c565b82525050565b5f819050919050565b6135ae6135a982612ef0565b613594565b82525050565b5f6135bf8287613538565b6002820191506135cf828661357d565b6014820191506135df828561359d565b6020820191506135ef828461359d565b60208201915081905095945050505050565b5f82825260208201905092915050565b7f4255524e000000000000000000000000000000000000000000000000000000005f82015250565b5f613645600483613601565b915061365082613611565b602082019050919050565b5f6020820190508181035f83015261367281613639565b9050919050565b7f4d494e54000000000000000000000000000000000000000000000000000000005f82015250565b5f6136ad600483613601565b91506136b882613679565b602082019050919050565b5f6020820190508181035f8301526136da816136a1565b9050919050565b5f6136eb82612ef0565b91506136f683612ef0565b925082820261370481612ef0565b9150828204841483151761371b5761371a6133cc565b5b5092915050565b7f4e487b71000000000000000000000000000000000000000000000000000000005f52601260045260245ffd5b5f61375982612ef0565b915061376483612ef0565b92508261377457613773613722565b5b828204905092915050565b5f8151905061378d81612ef9565b92915050565b5f602082840312156137a8576137a7612ddf565b5b5f6137b58482850161377f565b91505092915050565b5f6060820190506137d15f8301866132b7565b6137de60208301856132b7565b6137eb6040830184612f8c565b949350505050565b5f6040820190506138065f8301856132b7565b61381360208301846130fe565b939250505056fea26469706673582212208c400db1172c38ee49197f43f80c54bd850f6ac2303644ad14ce7eea13569f6f64736f6c634300081d0033","linkReferences":{}},"methodIdentifiers":{"BURNER_ROLE()":"282c51f3","DEFAULT_ADMIN_ROLE()":"a217fddf","EMAD()":"9a0401db","FEE_PRECISION()":"e63a391f","GUARDIAN_ROLE()":"24ea54f4","MINTER_ROLE()":"d5391393","OPERATOR_ROLE()":"f5b541a6","PRECISION()":"aaf5eb68","PRICE_PRECISION()":"95082d25","accumulatedFees()":"587f5ed7","blacklisted(address)":"dbac26e9","burn(uint256)":"42966c68","burnParams()":"7469eecc","canMint(address,uint256)":"0d5e34a4","collectFees()":"c8796572","crossChainMint(uint16,address,uint256,uint256)":"4348cbf6","crossChainMinters(uint16)":"8ec3155c","emergencyBurnPaused()":"e546bd4b","emergencyMintPaused()":"6e6074b6","emergencyPause(bool,bool)":"23bf4e9c","emergencyWithdrawDelay()":"72070b81","getBurnFee(uint256)":"ad20d2e6","getMintFee(uint256)":"29524ba8","getRoleAdmin(bytes32)":"248a9ca3","getUserMintLimit(address)":"4c17b93b","globalLimits()":"c2e11e3f","grantRole(bytes32,address)":"2f2ff15d","hasRole(bytes32,address)":"91d14854","maxPriceDeviation()":"975b8662","mint(address,uint256)":"40c10f19","mintParams()":"150cf4bf","pause()":"8456cb59","paused()":"5c975abb","priceOracle()":"2630c12f","processedCrossChainMints(bytes32)":"5a72fa3a","renounceRole(bytes32,address)":"36568abe","revokeRole(bytes32,address)":"d547741f","setBlacklist(address,bool)":"153b0d1e","setWhitelist(address,bool)":"53d6fd59","supplyThresholdHigh()":"e1c56c8b","supplyThresholdLow()":"cb2c8c66","supportsInterface(bytes4)":"01ffc9a7","targetSupply()":"2a1eafd9","treasury()":"61d027b3","unpause()":"3f4ba83a","updateBurnParams(uint256,uint256,uint256,uint256,uint256,uint256)":"62645e27","updateMintParams(uint256,uint256,uint256,uint256,uint256,uint256)":"9652fc95","updateOracle(address)":"1cb44dfc","userHistory(address)":"100cd71d","userLimits(address)":"2c1bc2b2","vault()":"fbfa77cf","whitelistedMinters(address)":"ed1e0085"},"id":79}