{"abi":[{"type":"constructor","inputs":[{"name":"_emad","type":"address","internalType":"address"},{"name":"_treasury","type":"address","internalType":"address"},{"name":"_debtCeiling","type":"uint256","internalType":"uint256"}],"stateMutability":"nonpayable"},{"type":"function","name":"EMAD","inputs":[],"outputs":[{"name":"","type":"address","internalType":"contract IEMAD"}],"stateMutability":"view"},{"type":"function","name":"LIQUIDATION_DISCOUNT","inputs":[],"outputs":[{"name":"","type":"uint256","internalType":"uint256"}],"stateMutability":"view"},{"type":"function","name":"LIQUIDATION_PENALTY","inputs":[],"outputs":[{"name":"","type":"uint256","internalType":"uint256"}],"stateMutability":"view"},{"type":"function","name":"MIN_COLLATERAL_RATIO","inputs":[],"outputs":[{"name":"","type":"uint256","internalType":"uint256"}],"stateMutability":"view"},{"type":"function","name":"PERCENTAGE_BASE","inputs":[],"outputs":[{"name":"","type":"uint256","internalType":"uint256"}],"stateMutability":"view"},{"type":"function","name":"PRECISION","inputs":[],"outputs":[{"name":"","type":"uint256","internalType":"uint256"}],"stateMutability":"view"},{"type":"function","name":"accumulatedFees","inputs":[],"outputs":[{"name":"","type":"uint256","internalType":"uint256"}],"stateMutability":"view"},{"type":"function","name":"addCollateral","inputs":[{"name":"collateral","type":"address","internalType":"address"},{"name":"collateralRatio","type":"uint256","internalType":"uint256"},{"name":"liquidationRatio","type":"uint256","internalType":"uint256"},{"name":"stabilityFee","type":"uint256","internalType":"uint256"},{"name":"oracle","type":"address","internalType":"address"},{"name":"cap","type":"uint256","internalType":"uint256"}],"outputs":[],"stateMutability":"nonpayable"},{"type":"function","name":"burnEMAD","inputs":[{"name":"collateral","type":"address","internalType":"address"},{"name":"emadAmount","type":"uint256","internalType":"uint256"}],"outputs":[],"stateMutability":"nonpayable"},{"type":"function","name":"collateralInfo","inputs":[{"name":"","type":"address","internalType":"address"}],"outputs":[{"name":"accepted","type":"bool","internalType":"bool"},{"name":"collateralRatio","type":"uint256","internalType":"uint256"},{"name":"liquidationRatio","type":"uint256","internalType":"uint256"},{"name":"stabilityFee","type":"uint256","internalType":"uint256"},{"name":"priceFeed","type":"address","internalType":"contract IOracle"},{"name":"cap","type":"uint256","internalType":"uint256"},{"name":"totalDeposited","type":"uint256","internalType":"uint256"}],"stateMutability":"view"},{"type":"function","name":"collateralTokens","inputs":[{"name":"","type":"uint256","internalType":"uint256"}],"outputs":[{"name":"","type":"address","internalType":"address"}],"stateMutability":"view"},{"type":"function","name":"collectFees","inputs":[],"outputs":[],"stateMutability":"nonpayable"},{"type":"function","name":"debtCeiling","inputs":[],"outputs":[{"name":"","type":"uint256","internalType":"uint256"}],"stateMutability":"view"},{"type":"function","name":"depositCollateral","inputs":[{"name":"collateral","type":"address","internalType":"address"},{"name":"amount","type":"uint256","internalType":"uint256"}],"outputs":[],"stateMutability":"nonpayable"},{"type":"function","name":"getCollateralRatio","inputs":[{"name":"user","type":"address","internalType":"address"},{"name":"collateral","type":"address","internalType":"address"}],"outputs":[{"name":"","type":"uint256","internalType":"uint256"}],"stateMutability":"view"},{"type":"function","name":"liquidate","inputs":[{"name":"user","type":"address","internalType":"address"},{"name":"collateral","type":"address","internalType":"address"},{"name":"debtToCover","type":"uint256","internalType":"uint256"}],"outputs":[],"stateMutability":"nonpayable"},{"type":"function","name":"mintEMAD","inputs":[{"name":"collateral","type":"address","internalType":"address"},{"name":"emadAmount","type":"uint256","internalType":"uint256"}],"outputs":[],"stateMutability":"nonpayable"},{"type":"function","name":"mintFee","inputs":[],"outputs":[{"name":"","type":"uint256","internalType":"uint256"}],"stateMutability":"view"},{"type":"function","name":"owner","inputs":[],"outputs":[{"name":"","type":"address","internalType":"address"}],"stateMutability":"view"},{"type":"function","name":"paused","inputs":[],"outputs":[{"name":"","type":"bool","internalType":"bool"}],"stateMutability":"view"},{"type":"function","name":"positions","inputs":[{"name":"","type":"address","internalType":"address"},{"name":"","type":"address","internalType":"address"}],"outputs":[{"name":"collateralAmount","type":"uint256","internalType":"uint256"},{"name":"debtAmount","type":"uint256","internalType":"uint256"},{"name":"lastUpdate","type":"uint256","internalType":"uint256"}],"stateMutability":"view"},{"type":"function","name":"redeemFee","inputs":[],"outputs":[{"name":"","type":"uint256","internalType":"uint256"}],"stateMutability":"view"},{"type":"function","name":"renounceOwnership","inputs":[],"outputs":[],"stateMutability":"nonpayable"},{"type":"function","name":"setPaused","inputs":[{"name":"_paused","type":"bool","internalType":"bool"}],"outputs":[],"stateMutability":"nonpayable"},{"type":"function","name":"totalDebt","inputs":[],"outputs":[{"name":"","type":"uint256","internalType":"uint256"}],"stateMutability":"view"},{"type":"function","name":"transferOwnership","inputs":[{"name":"newOwner","type":"address","internalType":"address"}],"outputs":[],"stateMutability":"nonpayable"},{"type":"function","name":"treasury","inputs":[],"outputs":[{"name":"","type":"address","internalType":"address"}],"stateMutability":"view"},{"type":"function","name":"updateCollateral","inputs":[{"name":"collateral","type":"address","internalType":"address"},{"name":"newRatio","type":"uint256","internalType":"uint256"},{"name":"newCap","type":"uint256","internalType":"uint256"}],"outputs":[],"stateMutability":"nonpayable"},{"type":"function","name":"updateDebtCeiling","inputs":[{"name":"newCeiling","type":"uint256","internalType":"uint256"}],"outputs":[],"stateMutability":"nonpayable"},{"type":"function","name":"withdrawCollateral","inputs":[{"name":"collateral","type":"address","internalType":"address"},{"name":"amount","type":"uint256","internalType":"uint256"}],"outputs":[],"stateMutability":"nonpayable"},{"type":"event","name":"CollateralAdded","inputs":[{"name":"collateral","type":"address","indexed":true,"internalType":"address"},{"name":"ratio","type":"uint256","indexed":false,"internalType":"uint256"},{"name":"oracle","type":"address","indexed":false,"internalType":"address"}],"anonymous":false},{"type":"event","name":"CollateralDeposited","inputs":[{"name":"user","type":"address","indexed":true,"internalType":"address"},{"name":"collateral","type":"address","indexed":true,"internalType":"address"},{"name":"amount","type":"uint256","indexed":false,"internalType":"uint256"}],"anonymous":false},{"type":"event","name":"CollateralUpdated","inputs":[{"name":"collateral","type":"address","indexed":true,"internalType":"address"},{"name":"newRatio","type":"uint256","indexed":false,"internalType":"uint256"}],"anonymous":false},{"type":"event","name":"CollateralWithdrawn","inputs":[{"name":"user","type":"address","indexed":true,"internalType":"address"},{"name":"collateral","type":"address","indexed":true,"internalType":"address"},{"name":"amount","type":"uint256","indexed":false,"internalType":"uint256"}],"anonymous":false},{"type":"event","name":"EMADBurned","inputs":[{"name":"user","type":"address","indexed":true,"internalType":"address"},{"name":"collateral","type":"address","indexed":true,"internalType":"address"},{"name":"amount","type":"uint256","indexed":false,"internalType":"uint256"}],"anonymous":false},{"type":"event","name":"EMADMinted","inputs":[{"name":"user","type":"address","indexed":true,"internalType":"address"},{"name":"collateral","type":"address","indexed":true,"internalType":"address"},{"name":"amount","type":"uint256","indexed":false,"internalType":"uint256"}],"anonymous":false},{"type":"event","name":"FeesCollected","inputs":[{"name":"amount","type":"uint256","indexed":false,"internalType":"uint256"}],"anonymous":false},{"type":"event","name":"Liquidated","inputs":[{"name":"user","type":"address","indexed":true,"internalType":"address"},{"name":"liquidator","type":"address","indexed":true,"internalType":"address"},{"name":"collateral","type":"address","indexed":true,"internalType":"address"},{"name":"debtCovered","type":"uint256","indexed":false,"internalType":"uint256"}],"anonymous":false},{"type":"event","name":"OwnershipTransferred","inputs":[{"name":"previousOwner","type":"address","indexed":true,"internalType":"address"},{"name":"newOwner","type":"address","indexed":true,"internalType":"address"}],"anonymous":false},{"type":"error","name":"CollateralCapExceeded","inputs":[]},{"type":"error","name":"DebtCeilingExceeded","inputs":[]},{"type":"error","name":"InsufficientCollateral","inputs":[]},{"type":"error","name":"InvalidAmount","inputs":[]},{"type":"error","name":"InvalidCollateral","inputs":[]},{"type":"error","name":"InvalidRatio","inputs":[]},{"type":"error","name":"NoDebt","inputs":[]},{"type":"error","name":"OwnableInvalidOwner","inputs":[{"name":"owner","type":"address","internalType":"address"}]},{"type":"error","name":"OwnableUnauthorizedAccount","inputs":[{"name":"account","type":"address","internalType":"address"}]},{"type":"error","name":"Paused","inputs":[]},{"type":"error","name":"PositionSafe","inputs":[]},{"type":"error","name":"ReentrancyGuardReentrantCall","inputs":[]},{"type":"error","name":"SafeERC20FailedOperation","inputs":[{"name":"token","type":"address","internalType":"address"}]},{"type":"error","name":"UnsafePosition","inputs":[]},{"type":"error","name":"ZeroAddress","inputs":[]}],"bytecode":{"object":"0x60a0604052601e600655601e600755348015610019575f5ffd5b5060405161315b38038061315b833981810160405281019061003b9190610335565b335f73ffffffffffffffffffffffffffffffffffffffff168173ffffffffffffffffffffffffffffffffffffffff16036100ac575f6040517f1e4fbdf70000000000000000000000000000000000000000000000000000000081526004016100a39190610394565b60405180910390fd5b6100bb816101e360201b60201c565b50600180819055505f73ffffffffffffffffffffffffffffffffffffffff168373ffffffffffffffffffffffffffffffffffffffff16148061012857505f73ffffffffffffffffffffffffffffffffffffffff168273ffffffffffffffffffffffffffffffffffffffff16145b1561015f576040517fd92e233d00000000000000000000000000000000000000000000000000000000815260040160405180910390fd5b8273ffffffffffffffffffffffffffffffffffffffff1660808173ffffffffffffffffffffffffffffffffffffffff168152505081600860016101000a81548173ffffffffffffffffffffffffffffffffffffffff021916908373ffffffffffffffffffffffffffffffffffffffff160217905550806005819055505050506103ad565b5f5f5f9054906101000a900473ffffffffffffffffffffffffffffffffffffffff169050815f5f6101000a81548173ffffffffffffffffffffffffffffffffffffffff021916908373ffffffffffffffffffffffffffffffffffffffff1602179055508173ffffffffffffffffffffffffffffffffffffffff168173ffffffffffffffffffffffffffffffffffffffff167f8be0079c531659141344cd1fd0a4f28419497f9722a3daafe3b4186f6b6457e060405160405180910390a35050565b5f5ffd5b5f73ffffffffffffffffffffffffffffffffffffffff82169050919050565b5f6102d1826102a8565b9050919050565b6102e1816102c7565b81146102eb575f5ffd5b50565b5f815190506102fc816102d8565b92915050565b5f819050919050565b61031481610302565b811461031e575f5ffd5b50565b5f8151905061032f8161030b565b92915050565b5f5f5f6060848603121561034c5761034b6102a4565b5b5f610359868287016102ee565b935050602061036a868287016102ee565b925050604061037b86828701610321565b9150509250925092565b61038e816102c7565b82525050565b5f6020820190506103a75f830184610385565b92915050565b608051612d7a6103e15f395f81816106cf01528181610b800152818161179b0152818161182b0152611a4e0152612d7a5ff3fe608060405234801561000f575f5ffd5b50600436106101d8575f3560e01c80637a9fffb711610102578063a5d5db0c116100a0578063c9ac55db1161006f578063c9ac55db14610500578063e1c84ea41461051c578063f2fde38b1461053a578063fc7b9c1814610556576101d8565b8063a5d5db0c146104a0578063aaf5eb68146104bc578063c8796572146104da578063c91509be146104e4576101d8565b80638da5cb5b116100dc5780638da5cb5b14610428578063965fa21e146104465780639a0401db146104645780639b8621d514610482576101d8565b80637a9fffb7146103ce57806383f4ca7b146103ec57806387c139431461040a576101d8565b80633a357a271161017a5780635fa98942116101495780635fa989421461035457806361d027b314610370578063715018a61461038e5780637217c39c14610398576101d8565b80633a357a27146102b65780634bd21445146102e6578063587f5ed7146103185780635c975abb14610336576101d8565b806316c38b3c116101b657806316c38b3c14610232578063172c48c71461024e57806326c013031461027e578063350c35e91461029a576101d8565b806309edea87146101dc5780631218c5fd146101f857806313966db514610214575b5f5ffd5b6101f660048036038101906101f19190612748565b610574565b005b610212600480360381019061020d9190612786565b610801565b005b61021c610813565b60405161022991906127c0565b60405180910390f35b61024c6004803603810190610247919061280e565b610819565b005b61026860048036038101906102639190612786565b61083d565b6040516102759190612848565b60405180910390f35b61029860048036038101906102939190612861565b610878565b005b6102b460048036038101906102af9190612748565b610d9a565b005b6102d060048036038101906102cb91906128b1565b61114f565b6040516102dd91906127c0565b60405180910390f35b61030060048036038101906102fb91906128b1565b6113d0565b60405161030f939291906128ef565b60405180910390f35b610320611401565b60405161032d91906127c0565b60405180910390f35b61033e611407565b60405161034b9190612933565b60405180910390f35b61036e60048036038101906103699190612748565b611419565b005b61037861196b565b6040516103859190612848565b60405180910390f35b610396611991565b005b6103b260048036038101906103ad919061294c565b6119a4565b6040516103c597969594939291906129d2565b60405180910390f35b6103d6611a0d565b6040516103e391906127c0565b60405180910390f35b6103f4611a13565b60405161040191906127c0565b60405180910390f35b610412611a19565b60405161041f91906127c0565b60405180910390f35b610430611a1f565b60405161043d9190612848565b60405180910390f35b61044e611a46565b60405161045b91906127c0565b60405180910390f35b61046c611a4c565b6040516104799190612a5f565b60405180910390f35b61048a611a70565b60405161049791906127c0565b60405180910390f35b6104ba60048036038101906104b59190612748565b611a76565b005b6104c4611dd7565b6040516104d191906127c0565b60405180910390f35b6104e2611de3565b005b6104fe60048036038101906104f99190612a78565b611e2a565b005b61051a60048036038101906105159190612b01565b61211c565b005b610524612210565b60405161053191906127c0565b60405180910390f35b610554600480360381019061054f919061294c565b612216565b005b61055e61229a565b60405161056b91906127c0565b60405180910390f35b61057c6122a0565b60085f9054906101000a900460ff16156105c2576040517f9e87fac800000000000000000000000000000000000000000000000000000000815260040160405180910390fd5b5f81036105fb576040517f2c5211c600000000000000000000000000000000000000000000000000000000815260040160405180910390fd5b5f60035f3373ffffffffffffffffffffffffffffffffffffffff1673ffffffffffffffffffffffffffffffffffffffff1681526020019081526020015f205f8473ffffffffffffffffffffffffffffffffffffffff1673ffffffffffffffffffffffffffffffffffffffff1681526020019081526020015f2090505f8160010154036106b3576040517f11a3fbc600000000000000000000000000000000000000000000000000000000815260040160405180910390fd5b5f816001015483116106c557826106cb565b81600101545b90507f000000000000000000000000000000000000000000000000000000000000000073ffffffffffffffffffffffffffffffffffffffff166342966c68826040518263ffffffff1660e01b815260040161072691906127c0565b5f604051808303815f87803b15801561073d575f5ffd5b505af115801561074f573d5f5f3e3d5ffd5b5050505080826001015f8282546107669190612b7e565b925050819055508060045f82825461077e9190612b7e565b925050819055504282600201819055508373ffffffffffffffffffffffffffffffffffffffff163373ffffffffffffffffffffffffffffffffffffffff167ff8fcfadc5a162599a7dfc9d6a3e9b395812561ad06b8c78e45057f4f171212cf836040516107eb91906127c0565b60405180910390a350506107fd6122e6565b5050565b6108096122ef565b8060058190555050565b60065481565b6108216122ef565b8060085f6101000a81548160ff02191690831515021790555050565b600a818154811061084c575f80fd5b905f5260205f20015f915054906101000a900473ffffffffffffffffffffffffffffffffffffffff1681565b6108806122a0565b60085f9054906101000a900460ff16156108c6576040517f9e87fac800000000000000000000000000000000000000000000000000000000815260040160405180910390fd5b5f60035f8573ffffffffffffffffffffffffffffffffffffffff1673ffffffffffffffffffffffffffffffffffffffff1681526020019081526020015f205f8473ffffffffffffffffffffffffffffffffffffffff1673ffffffffffffffffffffffffffffffffffffffff1681526020019081526020015f2090505f60025f8573ffffffffffffffffffffffffffffffffffffffff1673ffffffffffffffffffffffffffffffffffffffff1681526020019081526020015f206040518060e00160405290815f82015f9054906101000a900460ff16151515158152602001600182015481526020016002820154815260200160038201548152602001600482015f9054906101000a900473ffffffffffffffffffffffffffffffffffffffff1673ffffffffffffffffffffffffffffffffffffffff1673ffffffffffffffffffffffffffffffffffffffff168152602001600582015481526020016006820154815250509050610a5e826040518060600160405290815f82015481526020016001820154815260200160028201548152505082612376565b15610a95576040517fac1724fb00000000000000000000000000000000000000000000000000000000815260040160405180910390fd5b5f606460328460010154610aa99190612bb1565b610ab39190612c1f565b905080841115610ac1578093505b5f826080015173ffffffffffffffffffffffffffffffffffffffff166398d5fdca6040518163ffffffff1660e01b8152600401602060405180830381865afa158015610b0f573d5f5f3e3d5ffd5b505050506040513d601f19601f82011682018060405250810190610b339190612c63565b90505f61271082610b449190612bb1565b6101f4612710610b549190612c8e565b670de0b6b3a764000088610b689190612bb1565b610b729190612bb1565b610b7c9190612c1f565b90507f000000000000000000000000000000000000000000000000000000000000000073ffffffffffffffffffffffffffffffffffffffff166342966c68876040518263ffffffff1660e01b8152600401610bd791906127c0565b5f604051808303815f87803b158015610bee575f5ffd5b505af1158015610c00573d5f5f3e3d5ffd5b5050505085856001015f828254610c179190612b7e565b9250508190555080855f015f828254610c309190612b7e565b925050819055508560045f828254610c489190612b7e565b925050819055505f61271061012c612710610c639190612b7e565b83610c6e9190612bb1565b610c789190612c1f565b9050610ca533828a73ffffffffffffffffffffffffffffffffffffffff166124539092919063ffffffff16565b5f8183610cb29190612b7e565b90505f811115610d0a57610d09600860019054906101000a900473ffffffffffffffffffffffffffffffffffffffff16828b73ffffffffffffffffffffffffffffffffffffffff166124539092919063ffffffff16565b5b8873ffffffffffffffffffffffffffffffffffffffff163373ffffffffffffffffffffffffffffffffffffffff168b73ffffffffffffffffffffffffffffffffffffffff167fa98cdf85495941fc3fee7f350b000897f77368ee1a39e7ab44323e1ceb4fd2b38b604051610d7e91906127c0565b60405180910390a450505050505050610d956122e6565b505050565b610da26122a0565b60085f9054906101000a900460ff1615610de8576040517f9e87fac800000000000000000000000000000000000000000000000000000000815260040160405180910390fd5b5f8103610e21576040517f2c5211c600000000000000000000000000000000000000000000000000000000815260040160405180910390fd5b5f60035f3373ffffffffffffffffffffffffffffffffffffffff1673ffffffffffffffffffffffffffffffffffffffff1681526020019081526020015f205f8473ffffffffffffffffffffffffffffffffffffffff1673ffffffffffffffffffffffffffffffffffffffff1681526020019081526020015f20905081815f01541015610ed9576040517f3a23d82500000000000000000000000000000000000000000000000000000000815260040160405180910390fd5b81815f015f828254610eeb9190612b7e565b925050819055505f81600101541115611053575f60025f8573ffffffffffffffffffffffffffffffffffffffff1673ffffffffffffffffffffffffffffffffffffffff1681526020019081526020015f206040518060e00160405290815f82015f9054906101000a900460ff16151515158152602001600182015481526020016002820154815260200160038201548152602001600482015f9054906101000a900473ffffffffffffffffffffffffffffffffffffffff1673ffffffffffffffffffffffffffffffffffffffff1673ffffffffffffffffffffffffffffffffffffffff16815260200160058201548152602001600682015481525050905061101b826040518060600160405290815f82015481526020016001820154815260200160028201548152505082612376565b611051576040517f2671118000000000000000000000000000000000000000000000000000000000815260040160405180910390fd5b505b8160025f8573ffffffffffffffffffffffffffffffffffffffff1673ffffffffffffffffffffffffffffffffffffffff1681526020019081526020015f206006015f8282546110a29190612b7e565b925050819055506110d433838573ffffffffffffffffffffffffffffffffffffffff166124539092919063ffffffff16565b4281600201819055508273ffffffffffffffffffffffffffffffffffffffff163373ffffffffffffffffffffffffffffffffffffffff167f45892a46e6cef329bb642da6d69846d324db43d19008edc141ed82382eda1bee8460405161113a91906127c0565b60405180910390a35061114b6122e6565b5050565b5f5f60035f8573ffffffffffffffffffffffffffffffffffffffff1673ffffffffffffffffffffffffffffffffffffffff1681526020019081526020015f205f8473ffffffffffffffffffffffffffffffffffffffff1673ffffffffffffffffffffffffffffffffffffffff1681526020019081526020015f206040518060600160405290815f82015481526020016001820154815260200160028201548152505090505f816020015103611227577fffffffffffffffffffffffffffffffffffffffffffffffffffffffffffffffff9150506113ca565b5f60025f8573ffffffffffffffffffffffffffffffffffffffff1673ffffffffffffffffffffffffffffffffffffffff1681526020019081526020015f206040518060e00160405290815f82015f9054906101000a900460ff16151515158152602001600182015481526020016002820154815260200160038201548152602001600482015f9054906101000a900473ffffffffffffffffffffffffffffffffffffffff1673ffffffffffffffffffffffffffffffffffffffff1673ffffffffffffffffffffffffffffffffffffffff1681526020016005820154815260200160068201548152505090505f670de0b6b3a7640000826080015173ffffffffffffffffffffffffffffffffffffffff166398d5fdca6040518163ffffffff1660e01b8152600401602060405180830381865afa158015611369573d5f5f3e3d5ffd5b505050506040513d601f19601f8201168201806040525081019061138d9190612c63565b845f015161139b9190612bb1565b6113a59190612c1f565b90508260200151612710826113ba9190612bb1565b6113c49190612c1f565b93505050505b92915050565b6003602052815f5260405f20602052805f5260405f205f9150915050805f0154908060010154908060020154905083565b60095481565b60085f9054906101000a900460ff1681565b6114216122a0565b60085f9054906101000a900460ff1615611467576040517f9e87fac800000000000000000000000000000000000000000000000000000000815260040160405180910390fd5b8160025f8273ffffffffffffffffffffffffffffffffffffffff1673ffffffffffffffffffffffffffffffffffffffff1681526020019081526020015f205f015f9054906101000a900460ff166114ea576040517fd1ef4cea00000000000000000000000000000000000000000000000000000000815260040160405180910390fd5b5f8203611523576040517f2c5211c600000000000000000000000000000000000000000000000000000000815260040160405180910390fd5b600554826004546115349190612c8e565b111561156c576040517fe24734c200000000000000000000000000000000000000000000000000000000815260040160405180910390fd5b5f60035f3373ffffffffffffffffffffffffffffffffffffffff1673ffffffffffffffffffffffffffffffffffffffff1681526020019081526020015f205f8573ffffffffffffffffffffffffffffffffffffffff1673ffffffffffffffffffffffffffffffffffffffff1681526020019081526020015f2090505f60025f8673ffffffffffffffffffffffffffffffffffffffff1673ffffffffffffffffffffffffffffffffffffffff1681526020019081526020015f206040518060e00160405290815f82015f9054906101000a900460ff16151515158152602001600182015481526020016002820154815260200160038201548152602001600482015f9054906101000a900473ffffffffffffffffffffffffffffffffffffffff1673ffffffffffffffffffffffffffffffffffffffff1673ffffffffffffffffffffffffffffffffffffffff1681526020016005820154815260200160068201548152505090505f612710600654866116e49190612bb1565b6116ee9190612c1f565b90505f81866116fd9190612c8e565b905080846001015f8282546117129190612c8e565b925050819055508060045f82825461172a9190612c8e565b92505081905550611763846040518060600160405290815f82015481526020016001820154815260200160028201548152505084612376565b611799576040517f2671118000000000000000000000000000000000000000000000000000000000815260040160405180910390fd5b7f000000000000000000000000000000000000000000000000000000000000000073ffffffffffffffffffffffffffffffffffffffff166340c10f1933886040518363ffffffff1660e01b81526004016117f4929190612cc1565b5f604051808303815f87803b15801561180b575f5ffd5b505af115801561181d573d5f5f3e3d5ffd5b505050505f8211156118ec577f000000000000000000000000000000000000000000000000000000000000000073ffffffffffffffffffffffffffffffffffffffff166340c10f19600860019054906101000a900473ffffffffffffffffffffffffffffffffffffffff16846040518363ffffffff1660e01b81526004016118a6929190612cc1565b5f604051808303815f87803b1580156118bd575f5ffd5b505af11580156118cf573d5f5f3e3d5ffd5b505050508160095f8282546118e49190612c8e565b925050819055505b4284600201819055508673ffffffffffffffffffffffffffffffffffffffff163373ffffffffffffffffffffffffffffffffffffffff167f1cb972df2c6f4e14584afd4e4de450be15badc20962c9e47e5e026e2d6e9f3458860405161195291906127c0565b60405180910390a350505050506119676122e6565b5050565b600860019054906101000a900473ffffffffffffffffffffffffffffffffffffffff1681565b6119996122ef565b6119a25f6124d2565b565b6002602052805f5260405f205f91509050805f015f9054906101000a900460ff1690806001015490806002015490806003015490806004015f9054906101000a900473ffffffffffffffffffffffffffffffffffffffff16908060050154908060060154905087565b612af881565b61012c81565b61271081565b5f5f5f9054906101000a900473ffffffffffffffffffffffffffffffffffffffff16905090565b60075481565b7f000000000000000000000000000000000000000000000000000000000000000081565b6101f481565b611a7e6122a0565b60085f9054906101000a900460ff1615611ac4576040517f9e87fac800000000000000000000000000000000000000000000000000000000815260040160405180910390fd5b8160025f8273ffffffffffffffffffffffffffffffffffffffff1673ffffffffffffffffffffffffffffffffffffffff1681526020019081526020015f205f015f9054906101000a900460ff16611b47576040517fd1ef4cea00000000000000000000000000000000000000000000000000000000815260040160405180910390fd5b5f8203611b80576040517f2c5211c600000000000000000000000000000000000000000000000000000000815260040160405180910390fd5b5f60025f8573ffffffffffffffffffffffffffffffffffffffff1673ffffffffffffffffffffffffffffffffffffffff1681526020019081526020015f2090508060050154838260060154611bd59190612c8e565b1115611c0d576040517f7a8a2dc600000000000000000000000000000000000000000000000000000000815260040160405180910390fd5b611c3a3330858773ffffffffffffffffffffffffffffffffffffffff16612593909392919063ffffffff16565b8260035f3373ffffffffffffffffffffffffffffffffffffffff1673ffffffffffffffffffffffffffffffffffffffff1681526020019081526020015f205f8673ffffffffffffffffffffffffffffffffffffffff1673ffffffffffffffffffffffffffffffffffffffff1681526020019081526020015f205f015f828254611cc39190612c8e565b925050819055504260035f3373ffffffffffffffffffffffffffffffffffffffff1673ffffffffffffffffffffffffffffffffffffffff1681526020019081526020015f205f8673ffffffffffffffffffffffffffffffffffffffff1673ffffffffffffffffffffffffffffffffffffffff1681526020019081526020015f206002018190555082816006015f828254611d5d9190612c8e565b925050819055508373ffffffffffffffffffffffffffffffffffffffff163373ffffffffffffffffffffffffffffffffffffffff167ff1c0dd7e9b98bbff859029005ef89b127af049cd18df1a8d79f0b7e019911e5685604051611dc191906127c0565b60405180910390a35050611dd36122e6565b5050565b670de0b6b3a764000081565b5f60095490505f6009819055507f860c0aa5520013080c2f65981705fcdea474d9f7c3daf954656ed5e65d692d1f81604051611e1f91906127c0565b60405180910390a150565b611e326122ef565b5f73ffffffffffffffffffffffffffffffffffffffff168673ffffffffffffffffffffffffffffffffffffffff161480611e9757505f73ffffffffffffffffffffffffffffffffffffffff168273ffffffffffffffffffffffffffffffffffffffff16145b15611ece576040517fd92e233d00000000000000000000000000000000000000000000000000000000815260040160405180910390fd5b612af8851015611f0a576040517f648564d300000000000000000000000000000000000000000000000000000000815260040160405180910390fd5b848410611f43576040517f648564d300000000000000000000000000000000000000000000000000000000815260040160405180910390fd5b6040518060e001604052806001151581526020018681526020018581526020018481526020018373ffffffffffffffffffffffffffffffffffffffff1681526020018281526020015f81525060025f8873ffffffffffffffffffffffffffffffffffffffff1673ffffffffffffffffffffffffffffffffffffffff1681526020019081526020015f205f820151815f015f6101000a81548160ff0219169083151502179055506020820151816001015560408201518160020155606082015181600301556080820151816004015f6101000a81548173ffffffffffffffffffffffffffffffffffffffff021916908373ffffffffffffffffffffffffffffffffffffffff16021790555060a0820151816005015560c08201518160060155905050600a86908060018154018082558091505060019003905f5260205f20015f9091909190916101000a81548173ffffffffffffffffffffffffffffffffffffffff021916908373ffffffffffffffffffffffffffffffffffffffff1602179055508573ffffffffffffffffffffffffffffffffffffffff167f10b4d6e2f7b4aa755bf12660a4e635dbe37dedd90987ecbfb145f88d26ecc26b868460405161210c929190612ce8565b60405180910390a2505050505050565b6121246122ef565b5f60025f8573ffffffffffffffffffffffffffffffffffffffff1673ffffffffffffffffffffffffffffffffffffffff1681526020019081526020015f209050805f015f9054906101000a900460ff166121aa576040517fd1ef4cea00000000000000000000000000000000000000000000000000000000815260040160405180910390fd5b8281600101819055508181600501819055508373ffffffffffffffffffffffffffffffffffffffff167fdf43c689abc8d83e86b74634bbe0ba590e2ecb34f3f432a612c6edef3e532cbd8460405161220291906127c0565b60405180910390a250505050565b60055481565b61221e6122ef565b5f73ffffffffffffffffffffffffffffffffffffffff168173ffffffffffffffffffffffffffffffffffffffff160361228e575f6040517f1e4fbdf70000000000000000000000000000000000000000000000000000000081526004016122859190612848565b60405180910390fd5b612297816124d2565b50565b60045481565b6002600154036122dc576040517f3ee5aeb500000000000000000000000000000000000000000000000000000000815260040160405180910390fd5b6002600181905550565b60018081905550565b6122f7612615565b73ffffffffffffffffffffffffffffffffffffffff16612315611a1f565b73ffffffffffffffffffffffffffffffffffffffff161461237457612338612615565b6040517f118cdaa700000000000000000000000000000000000000000000000000000000815260040161236b9190612848565b60405180910390fd5b565b5f5f83602001510361238b576001905061244d565b5f670de0b6b3a7640000836080015173ffffffffffffffffffffffffffffffffffffffff166398d5fdca6040518163ffffffff1660e01b8152600401602060405180830381865afa1580156123e2573d5f5f3e3d5ffd5b505050506040513d601f19601f820116820180604052508101906124069190612c63565b855f01516124149190612bb1565b61241e9190612c1f565b90505f612710846020015186602001516124389190612bb1565b6124429190612c1f565b905080821015925050505b92915050565b6124cd838473ffffffffffffffffffffffffffffffffffffffff1663a9059cbb8585604051602401612486929190612cc1565b604051602081830303815290604052915060e01b6020820180517bffffffffffffffffffffffffffffffffffffffffffffffffffffffff838183161783525050505061261c565b505050565b5f5f5f9054906101000a900473ffffffffffffffffffffffffffffffffffffffff169050815f5f6101000a81548173ffffffffffffffffffffffffffffffffffffffff021916908373ffffffffffffffffffffffffffffffffffffffff1602179055508173ffffffffffffffffffffffffffffffffffffffff168173ffffffffffffffffffffffffffffffffffffffff167f8be0079c531659141344cd1fd0a4f28419497f9722a3daafe3b4186f6b6457e060405160405180910390a35050565b61260f848573ffffffffffffffffffffffffffffffffffffffff166323b872dd8686866040516024016125c893929190612d0f565b604051602081830303815290604052915060e01b6020820180517bffffffffffffffffffffffffffffffffffffffffffffffffffffffff838183161783525050505061261c565b50505050565b5f33905090565b5f5f60205f8451602086015f885af18061263b576040513d5f823e3d81fd5b3d92505f519150505f821461265457600181141561266f565b5f8473ffffffffffffffffffffffffffffffffffffffff163b145b156126b157836040517f5274afe70000000000000000000000000000000000000000000000000000000081526004016126a89190612848565b60405180910390fd5b50505050565b5f5ffd5b5f73ffffffffffffffffffffffffffffffffffffffff82169050919050565b5f6126e4826126bb565b9050919050565b6126f4816126da565b81146126fe575f5ffd5b50565b5f8135905061270f816126eb565b92915050565b5f819050919050565b61272781612715565b8114612731575f5ffd5b50565b5f813590506127428161271e565b92915050565b5f5f6040838503121561275e5761275d6126b7565b5b5f61276b85828601612701565b925050602061277c85828601612734565b9150509250929050565b5f6020828403121561279b5761279a6126b7565b5b5f6127a884828501612734565b91505092915050565b6127ba81612715565b82525050565b5f6020820190506127d35f8301846127b1565b92915050565b5f8115159050919050565b6127ed816127d9565b81146127f7575f5ffd5b50565b5f81359050612808816127e4565b92915050565b5f60208284031215612823576128226126b7565b5b5f612830848285016127fa565b91505092915050565b612842816126da565b82525050565b5f60208201905061285b5f830184612839565b92915050565b5f5f5f60608486031215612878576128776126b7565b5b5f61288586828701612701565b935050602061289686828701612701565b92505060406128a786828701612734565b9150509250925092565b5f5f604083850312156128c7576128c66126b7565b5b5f6128d485828601612701565b92505060206128e585828601612701565b9150509250929050565b5f6060820190506129025f8301866127b1565b61290f60208301856127b1565b61291c60408301846127b1565b949350505050565b61292d816127d9565b82525050565b5f6020820190506129465f830184612924565b92915050565b5f60208284031215612961576129606126b7565b5b5f61296e84828501612701565b91505092915050565b5f819050919050565b5f61299a612995612990846126bb565b612977565b6126bb565b9050919050565b5f6129ab82612980565b9050919050565b5f6129bc826129a1565b9050919050565b6129cc816129b2565b82525050565b5f60e0820190506129e55f83018a612924565b6129f260208301896127b1565b6129ff60408301886127b1565b612a0c60608301876127b1565b612a1960808301866129c3565b612a2660a08301856127b1565b612a3360c08301846127b1565b98975050505050505050565b5f612a49826129a1565b9050919050565b612a5981612a3f565b82525050565b5f602082019050612a725f830184612a50565b92915050565b5f5f5f5f5f5f60c08789031215612a9257612a916126b7565b5b5f612a9f89828a01612701565b9650506020612ab089828a01612734565b9550506040612ac189828a01612734565b9450506060612ad289828a01612734565b9350506080612ae389828a01612701565b92505060a0612af489828a01612734565b9150509295509295509295565b5f5f5f60608486031215612b1857612b176126b7565b5b5f612b2586828701612701565b9350506020612b3686828701612734565b9250506040612b4786828701612734565b9150509250925092565b7f4e487b71000000000000000000000000000000000000000000000000000000005f52601160045260245ffd5b5f612b8882612715565b9150612b9383612715565b9250828203905081811115612bab57612baa612b51565b5b92915050565b5f612bbb82612715565b9150612bc683612715565b9250828202612bd481612715565b91508282048414831517612beb57612bea612b51565b5b5092915050565b7f4e487b71000000000000000000000000000000000000000000000000000000005f52601260045260245ffd5b5f612c2982612715565b9150612c3483612715565b925082612c4457612c43612bf2565b5b828204905092915050565b5f81519050612c5d8161271e565b92915050565b5f60208284031215612c7857612c776126b7565b5b5f612c8584828501612c4f565b91505092915050565b5f612c9882612715565b9150612ca383612715565b9250828201905080821115612cbb57612cba612b51565b5b92915050565b5f604082019050612cd45f830185612839565b612ce160208301846127b1565b9392505050565b5f604082019050612cfb5f8301856127b1565b612d086020830184612839565b9392505050565b5f606082019050612d225f830186612839565b612d2f6020830185612839565b612d3c60408301846127b1565b94935050505056fea26469706673582212208965a55cc712fa7089e03b69fe4e60ebcacc0a8cf7333c6f350aee2bdbdf68b264736f6c634300081d0033","linkReferences":{}},"methodIdentifiers":{"EMAD()":"9a0401db","LIQUIDATION_DISCOUNT()":"83f4ca7b","LIQUIDATION_PENALTY()":"9b8621d5","MIN_COLLATERAL_RATIO()":"7a9fffb7","PERCENTAGE_BASE()":"87c13943","PRECISION()":"aaf5eb68","accumulatedFees()":"587f5ed7","addCollateral(address,uint256,uint256,uint256,address,uint256)":"c91509be","burnEMAD(address,uint256)":"09edea87","collateralInfo(address)":"7217c39c","collateralTokens(uint256)":"172c48c7","collectFees()":"c8796572","debtCeiling()":"e1c84ea4","depositCollateral(address,uint256)":"a5d5db0c","getCollateralRatio(address,address)":"3a357a27","liquidate(address,address,uint256)":"26c01303","mintEMAD(address,uint256)":"5fa98942","mintFee()":"13966db5","owner()":"8da5cb5b","paused()":"5c975abb","positions(address,address)":"4bd21445","redeemFee()":"965fa21e","renounceOwnership()":"715018a6","setPaused(bool)":"16c38b3c","totalDebt()":"fc7b9c18","transferOwnership(address)":"f2fde38b","treasury()":"61d027b3","updateCollateral(address,uint256,uint256)":"c9ac55db","updateDebtCeiling(uint256)":"1218c5fd","withdrawCollateral(address,uint256)":"350c35e9"},"id":80}