{"abi":[{"type":"function","name":"decimals","inputs":[],"outputs":[{"name":"","type":"uint8","internalType":"uint8"}],"stateMutability":"view"},{"type":"function","name":"getPrice","inputs":[],"outputs":[{"name":"","type":"uint256","internalType":"uint256"}],"stateMutability":"view"},{"type":"function","name":"setPrice","inputs":[{"name":"_price","type":"uint256","internalType":"uint256"}],"outputs":[],"stateMutability":"nonpayable"},{"type":"function","name":"updatePrice","inputs":[{"name":"newPrice","type":"uint256","internalType":"uint256"}],"outputs":[],"stateMutability":"nonpayable"},{"type":"event","name":"PriceUpdated","inputs":[{"name":"oldPrice","type":"uint256","indexed":false,"internalType":"uint256"},{"name":"newPrice","type":"uint256","indexed":false,"internalType":"uint256"}],"anonymous":false}],"bytecode":{"object":"0x6080604052600860015f6101000a81548160ff021916908360ff1602179055503480156029575f5ffd5b50610287806100375f395ff3fe608060405234801561000f575f5ffd5b506004361061004a575f3560e01c8063313ce5671461004e5780638d6cc56d1461006c57806391b7f5ed1461008857806398d5fdca146100a4575b5f5ffd5b6100566100c2565b6040516100639190610187565b60405180910390f35b610086600480360381019061008191906101d7565b6100d4565b005b6100a2600480360381019061009d91906101d7565b61011c565b005b6100ac610164565b6040516100b99190610211565b60405180910390f35b60015f9054906101000a900460ff1681565b5f5f549050815f819055507f945c1c4e99aa89f648fbfe3df471b916f719e16d960fcec0737d4d56bd696838818360405161011092919061022a565b60405180910390a15050565b5f5f549050815f819055507f945c1c4e99aa89f648fbfe3df471b916f719e16d960fcec0737d4d56bd696838818360405161015892919061022a565b60405180910390a15050565b5f5f54905090565b5f60ff82169050919050565b6101818161016c565b82525050565b5f60208201905061019a5f830184610178565b92915050565b5f5ffd5b5f819050919050565b6101b6816101a4565b81146101c0575f5ffd5b50565b5f813590506101d1816101ad565b92915050565b5f602082840312156101ec576101eb6101a0565b5b5f6101f9848285016101c3565b91505092915050565b61020b816101a4565b82525050565b5f6020820190506102245f830184610202565b92915050565b5f60408201905061023d5f830185610202565b61024a6020830184610202565b939250505056fea2646970667358221220017c897038e6d4f750d4defaa3c2452ef7a92709cfa0c5d6f73cf506141eadde64736f6c634300081d0033","linkReferences":{}},"methodIdentifiers":{"decimals()":"313ce567","getPrice()":"98d5fdca","setPrice(uint256)":"91b7f5ed","updatePrice(uint256)":"8d6cc56d"},"id":41}